{"contracts/Escrow.sol":{"Escrow":{"abi":[{"inputs":[],"name":"AmountTooSmall","type":"error"},{"inputs":[],"name":"DeadlineNotPassed","type":"error"},{"inputs":[],"name":"DeliveryRequired","type":"error"},{"inputs":[],"name":"DisputeRequired","type":"error"},{"inputs":[],"name":"EthAmountMismatch","type":"error"},{"inputs":[],"name":"EthNotAllowed","type":"error"},{"inputs":[],"name":"EthTransferFailed","type":"error"},{"inputs":[],"name":"EthValueTooSmall","type":"error"},{"inputs":[],"name":"InvalidAddress","type":"error"},{"inputs":[],"name":"InvalidDeliveryPeriod","type":"error"},{"inputs":[],"name":"InvalidState","type":"error"},{"inputs":[],"name":"InvalidWinner","type":"error"},{"inputs":[],"name":"NeutralArbiterRequired","type":"error"},{"inputs":[],"name":"NoFees","type":"error"},{"inputs":[],"name":"OfferExpired","type":"error"},{"inputs":[],"name":"OnlyArbiter","type":"error"},{"inputs":[],"name":"OnlyBuyer","type":"error"},{"inputs":[],"name":"OnlyParty","type":"error"},{"inputs":[],"name":"OnlySeller","type":"error"},{"inputs":[],"name":"ReentrancyGuardReentrantCall","type":"error"},{"inputs":[{"internalType":"address","name":"token","type":"address"}],"name":"SafeERC20FailedOperation","type":"error"},{"inputs":[],"name":"SelfDeal","type":"error"},{"inputs":[],"name":"TimeoutNotReached","type":"error"},{"inputs":[],"name":"WindowActive","type":"error"},{"anonymous":false,"inputs":[{"indexed":true,"internalType":"uint256","name":"escrowId","type":"uint256"},{"indexed":false,"internalType":"uint48","name":"deliveryDeadline","type":"uint48"}],"name":"DealAccepted","type":"event"},{"anonymous":false,"inputs":[{"indexed":true,"internalType":"uint256","name":"escrowId","type":"uint256"}],"name":"DeliveryConfirmed","type":"event"},{"anonymous":false,"inputs":[{"indexed":true,"internalType":"uint256","name":"escrowId","type":"uint256"}],"name":"DisputeOpened","type":"event"},{"anonymous":false,"inputs":[{"indexed":true,"internalType":"uint256","name":"escrowId","type":"uint256"},{"indexed":true,"internalType":"address","name":"winner","type":"address"}],"name":"DisputeResolved","type":"event"},{"anonymous":false,"inputs":[{"indexed":true,"internalType":"uint256","name":"escrowId","type":"uint256"},{"indexed":true,"internalType":"address","name":"buyer","type":"address"},{"indexed":true,"internalType":"address","name":"seller","type":"address"},{"indexed":false,"internalType":"uint256","name":"amount","type":"uint256"}],"name":"EscrowCreated","type":"event"},{"anonymous":false,"inputs":[{"indexed":true,"internalType":"address","name":"arbiter","type":"address"},{"indexed":true,"internalType":"address","name":"token","type":"address"},{"indexed":false,"internalType":"uint256","name":"amount","type":"uint256"}],"name":"FeesWithdrawn","type":"event"},{"anonymous":false,"inputs":[{"indexed":true,"internalType":"uint256","name":"escrowId","type":"uint256"},{"indexed":false,"internalType":"uint256","name":"payout","type":"uint256"}],"name":"FundsReleased","type":"event"},{"anonymous":false,"inputs":[{"indexed":true,"internalType":"uint256","name":"escrowId","type":"uint256"}],"name":"MutualCancelCompleted","type":"event"},{"anonymous":false,"inputs":[{"indexed":true,"internalType":"uint256","name":"escrowId","type":"uint256"},{"indexed":true,"internalType":"address","name":"by","type":"address"}],"name":"MutualCancelRequested","type":"event"},{"anonymous":false,"inputs":[{"indexed":true,"internalType":"uint256","name":"escrowId","type":"uint256"},{"indexed":false,"internalType":"uint256","name":"amount","type":"uint256"}],"name":"Refunded","type":"event"},{"inputs":[],"name":"AUTO_RELEASE_WINDOW","outputs":[{"internalType":"uint256","name":"","type":"uint256"}],"stateMutability":"view","type":"function"},{"inputs":[],"name":"DISPUTE_TIMEOUT","outputs":[{"internalType":"uint256","name":"","type":"uint256"}],"stateMutability":"view","type":"function"},{"inputs":[],"name":"FEE_BPS","outputs":[{"internalType":"uint256","name":"","type":"uint256"}],"stateMutability":"view","type":"function"},{"inputs":[],"name":"MIN_ESCROW_AMOUNT","outputs":[{"internalType":"uint256","name":"","type":"uint256"}],"stateMutability":"view","type":"function"},{"inputs":[{"internalType":"uint256","name":"id","type":"uint256"}],"name":"acceptDeal","outputs":[],"stateMutability":"nonpayable","type":"function"},{"inputs":[{"internalType":"uint256","name":"","type":"uint256"}],"name":"buyerCancelRequest","outputs":[{"internalType":"bool","name":"","type":"bool"}],"stateMutability":"view","type":"function"},{"inputs":[{"internalType":"uint256","name":"id","type":"uint256"}],"name":"canClaimAutoRelease","outputs":[{"internalType":"bool","name":"","type":"bool"}],"stateMutability":"view","type":"function"},{"inputs":[{"internalType":"uint256","name":"id","type":"uint256"}],"name":"canClaimDeliveryTimeout","outputs":[{"internalType":"bool","name":"","type":"bool"}],"stateMutability":"view","type":"function"},{"inputs":[{"internalType":"uint256","name":"id","type":"uint256"}],"name":"canClaimDisputeTimeout","outputs":[{"internalType":"bool","name":"","type":"bool"}],"stateMutability":"view","type":"function"},{"inputs":[{"internalType":"uint256","name":"id","type":"uint256"}],"name":"cancelMutualCancelRequest","outputs":[],"stateMutability":"nonpayable","type":"function"},{"inputs":[{"internalType":"uint256","name":"id","type":"uint256"}],"name":"claimAutoRelease","outputs":[],"stateMutability":"nonpayable","type":"function"},{"inputs":[{"internalType":"uint256","name":"id","type":"uint256"}],"name":"claimDeliveryTimeout","outputs":[],"stateMutability":"nonpayable","type":"function"},{"inputs":[{"internalType":"uint256","name":"id","type":"uint256"}],"name":"claimDisputeTimeout","outputs":[],"stateMutability":"nonpayable","type":"function"},{"inputs":[{"internalType":"uint256","name":"id","type":"uint256"}],"name":"claimExpiredRefund","outputs":[],"stateMutability":"nonpayable","type":"function"},{"inputs":[{"internalType":"uint256","name":"id","type":"uint256"}],"name":"claimRefund","outputs":[],"stateMutability":"nonpayable","type":"function"},{"inputs":[{"internalType":"address","name":"seller","type":"address"},{"internalType":"address","name":"arbiter","type":"address"},{"internalType":"uint256","name":"amount","type":"uint256"},{"internalType":"address","name":"token","type":"address"},{"internalType":"string","name":"desc","type":"string"},{"internalType":"uint256","name":"accPeriod","type":"uint256"},{"internalType":"uint256","name":"delPeriod","type":"uint256"}],"name":"createEscrow","outputs":[],"stateMutability":"payable","type":"function"},{"inputs":[{"internalType":"uint256","name":"","type":"uint256"}],"name":"escrows","outputs":[{"internalType":"address","name":"buyer","type":"address"},{"internalType":"address","name":"seller","type":"address"},{"internalType":"address","name":"arbiter","type":"address"},{"internalType":"address","name":"token","type":"address"},{"internalType":"uint256","name":"amount","type":"uint256"},{"internalType":"enum Escrow.State","name":"state","type":"uint8"},{"internalType":"uint48","name":"acceptanceDeadline","type":"uint48"},{"internalType":"uint48","name":"deliveryDeadline","type":"uint48"},{"internalType":"uint48","name":"deliveryTimestamp","type":"uint48"},{"internalType":"uint48","name":"disputeTimestamp","type":"uint48"},{"internalType":"uint48","name":"deliveryPeriod","type":"uint48"},{"internalType":"string","name":"description","type":"string"},{"internalType":"string","name":"proofOfDelivery","type":"string"}],"stateMutability":"view","type":"function"},{"inputs":[{"internalType":"uint256","name":"id","type":"uint256"}],"name":"getEscrow","outputs":[{"components":[{"internalType":"address","name":"buyer","type":"address"},{"internalType":"address","name":"seller","type":"address"},{"internalType":"address","name":"arbiter","type":"address"},{"internalType":"address","name":"token","type":"address"},{"internalType":"uint256","name":"amount","type":"uint256"},{"internalType":"enum Escrow.State","name":"state","type":"uint8"},{"internalType":"uint48","name":"acceptanceDeadline","type":"uint48"},{"internalType":"uint48","name":"deliveryDeadline","type":"uint48"},{"internalType":"uint48","name":"deliveryTimestamp","type":"uint48"},{"internalType":"uint48","name":"disputeTimestamp","type":"uint48"},{"internalType":"uint48","name":"deliveryPeriod","type":"uint48"},{"internalType":"string","name":"description","type":"string"},{"internalType":"string","name":"proofOfDelivery","type":"string"}],"internalType":"struct Escrow.Deal","name":"","type":"tuple"}],"stateMutability":"view","type":"function"},{"inputs":[{"internalType":"uint256","name":"id","type":"uint256"}],"name":"getMutualCancelStatus","outputs":[{"internalType":"bool","name":"","type":"bool"},{"internalType":"bool","name":"","type":"bool"}],"stateMutability":"view","type":"function"},{"inputs":[{"internalType":"address","name":"arbiter","type":"address"},{"internalType":"address","name":"token","type":"address"}],"name":"getPendingFees","outputs":[{"internalType":"uint256","name":"","type":"uint256"}],"stateMutability":"view","type":"function"},{"inputs":[{"internalType":"uint256","name":"id","type":"uint256"},{"internalType":"string","name":"proof","type":"string"}],"name":"markDelivered","outputs":[],"stateMutability":"nonpayable","type":"function"},{"inputs":[],"name":"nextEscrowId","outputs":[{"internalType":"uint256","name":"","type":"uint256"}],"stateMutability":"view","type":"function"},{"inputs":[{"internalType":"address","name":"","type":"address"},{"internalType":"address","name":"","type":"address"}],"name":"pendingFees","outputs":[{"internalType":"uint256","name":"","type":"uint256"}],"stateMutability":"view","type":"function"},{"inputs":[{"internalType":"uint256","name":"id","type":"uint256"}],"name":"raiseDispute","outputs":[],"stateMutability":"nonpayable","type":"function"},{"inputs":[{"internalType":"uint256","name":"id","type":"uint256"}],"name":"rejectDeal","outputs":[],"stateMutability":"nonpayable","type":"function"},{"inputs":[{"internalType":"uint256","name":"id","type":"uint256"}],"name":"release","outputs":[],"stateMutability":"nonpayable","type":"function"},{"inputs":[{"internalType":"uint256","name":"id","type":"uint256"}],"name":"requestMutualCancel","outputs":[],"stateMutability":"nonpayable","type":"function"},{"inputs":[{"internalType":"uint256","name":"id","type":"uint256"},{"internalType":"address","name":"winner","type":"address"}],"name":"resolveDispute","outputs":[],"stateMutability":"nonpayable","type":"function"},{"inputs":[{"internalType":"uint256","name":"","type":"uint256"}],"name":"sellerCancelRequest","outputs":[{"internalType":"bool","name":"","type":"bool"}],"stateMutability":"view","type":"function"},{"inputs":[{"internalType":"address","name":"token","type":"address"}],"name":"withdrawFees","outputs":[],"stateMutability":"nonpayable","type":"function"}],"evm":{"bytecode":{"linkReferences":{},"object":"60808060405234601a576001600055611cf390816100208239f35b600080fdfe6080604052600436101561001257600080fd5b60003560e01c806277c10a14611228578063012f52ee14611778578063058127c61461170d5780630bfd5b82146116885780630e33599d146114b4578063164e68de146113ea5780631c8a5249146113cc5780633212323e1461135d57806337bdc99b146112c8578063486265c6146112aa5780634b00c323146112795780634db15e74146112285780635b7baf64146111cf5780635e39058014610ffc5780637d19e59614610dab5780637d41702e14610cc457806386d6d65914610c6457806389cb29dd14610c465780638e9856f914610c28578063a41f130a14610be0578063a5c1674e14610b15578063a8d883cd1461097b578063b3331db9146108dc578063bcfcc8d51461084e578063bf333f2c14610832578063d1976b08146107c6578063d5f274f214610717578063e962bf2514610236578063f70742191461019b5763fd4050f01461016557600080fd5b34610196576020366003190112610196576004356000526004602052602060ff604060002054166040519015158152f35b600080fd5b34610196576020366003190112610196576004356101b7611a63565b600081815260026020526040902060018101546001600160a01b031633036102255760ff600582015416600681101561020f576101fe576101f791611b44565b6001600055005b63baf3f0f760e01b60005260046000fd5b634e487b7160e01b600052602160045260246000fd5b6342e8fb9360e11b60005260046000fd5b60e03660031901126101965761024a611884565b61025261189a565b90604435906064356001600160a01b038116908190036101965760843567ffffffffffffffff81116101965761028c903690600401611a1b565b909160a43560c4359461029d611a63565b6001600160a01b03169687158015610706575b6106f557620f42408710610621573388146106e4576001600160a01b03169033821480156106db575b6106ca5785156106b957868361056f5780340361055e576509184e72a0001161054d575b6001549560001987146105375760018781018155600088815260026020819052604090912080546001600160a01b031990811633178255928101805484168d179055908101805483169095179094556003840180549091169094179093556004820187905560058201805460ff1916815560069390918061052e575061038762278d005b42611a49565b82547fff000000000000ffffffffffffffffffffffffffffffffffff000000000000ff1660089190911b66ffffffffffff00161760c89190911b65ffffffffffff60c81b16179055019167ffffffffffffffff82116105185781906103ec84546118b0565b601f81116104c5575b50600090601f831160011461045f57600092610454575b50508160011b916000199060031b1c19161790555b6040519182527f9405ad0a6208539879349284d71265479b1623846f70303da1f9890d6e8c10a760203393a46001600055005b01359050868061040c565b84825260208220925090601f198416815b8181106104ad5750908460019594939210610493575b505050811b019055610421565b0135600019600384901b60f8161c19169055868080610486565b91936020600181928787013581550195019201610470565b909150836000526020600020601f840160051c8101916020851061050e575b90601f859493920160051c01905b8181106104ff57506103f5565b600081558493506001016104f2565b90915081906104e4565b634e487b7160e01b600052604160045260246000fd5b61038790610381565b634e487b7160e01b600052601160045260246000fd5b637ca6412160e01b60005260046000fd5b630768122960e11b60005260046000fd5b909650346106a8576040516370a0823160e01b815230600482015290602082602481875afa91821561066657600092610672575b506105df90604051906323b872dd60e01b60208301523360248301523060448301526064820152606481526105d9608482611907565b84611c62565b6040516370a0823160e01b815230600482015290602082602481875afa801561066657600090610632575b6106149250611a56565b95620f42408710156102fd575b63617ab12d60e11b60005260046000fd5b506020823d60201161065e575b8161064c60209383611907565b8101031261019657610614915161060a565b3d915061063f565b6040513d6000823e3d90fd5b9091506020813d6020116106a0575b8161068e60209383611907565b810103126101965751906105df6105a3565b3d9150610681565b6305dba15160e11b60005260046000fd5b6352382f6960e11b60005260046000fd5b631002bdef60e21b60005260046000fd5b508782146102d9565b63702d685960e01b60005260046000fd5b63e6c4247b60e01b60005260046000fd5b506001600160a01b038116156102b0565b3461019657602036600319011261019657600435610733611a63565b8060005260026020526040600020906005820191825460ff8116600681101561020f576002036107b55765ffffffffffff9060681c16621275008101809111610537574211156107a457825460ff191660031790925560018201546101f7926001600160a01b039190911691611ba9565b636c823d4160e11b60005260046000fd5b63cf7ee6df60e01b60005260046000fd5b3461019657602036600319011261019657600435600052600260205260056040600020015460ff8116600681101561020f57600214908161080f575b6020826040519015158152f35b65ffffffffffff915060681c166212750081018091116105375742116020610802565b34610196576000366003190112610196576020604051600a8152f35b346101965760203660031901126101965760043561086a611a63565b600081815260026020526040902080546001600160a01b031633036108cb57600581015460ff8116600681101561020f576101fe5760081c65ffffffffffff164211156108ba576101f791611b44565b6302eb354360e41b60005260046000fd5b6386efbb5560e01b60005260046000fd5b34610196576020366003190112610196576004356108f8611a63565b600081815260026020526040902080546001600160a01b031633036108cb57600581015460ff8116600681101561020f5760040361096a5765ffffffffffff9060981c1662278d00810180911161053757421115610959576101f791611b44565b6326c015ab60e21b60005260046000fd5b63c6690c4760e01b60005260046000fd5b3461019657602036600319011261019657600435610997611a63565b806000526002602052604060002060ff600582015416600681101561020f5760018114159081610b09575b506101fe5780546001600160a01b03163314801580610af2575b610ae15715610ac3578160005260036020526040600020600160ff198254161790555b33827ff0c15ca4fde757356a9f03d93d4524acee3be5b185aceb8af66ef9f31233b5bb600080a381600052600360205260ff6040600020541680610aab575b610a49576001600055005b610a7f90826000526003602052604060002060ff198154169055826000526004602052604060002060ff19815416905582611b44565b7fdfc737cd15a43ad3814036264d6e7f96bbeba4ce40727be8df939ed2a1f671a1600080a280806101f7565b5081600052600460205260ff60406000205416610a3e565b8160005260046020526040600020600160ff198254161790556109ff565b632b41c4cd60e01b60005260046000fd5b5060018201546001600160a01b03163314156109dc565b600291501415836109c2565b3461019657602036600319011261019657600435806000526002602052604060002060018060a01b0381541633141580610bc9575b610ae15760050160ff815416600681101561020f5760018114159081610bbd575b506101fe57805460ff65ffffffffffff60981b0119164260981b65ffffffffffff60981b161760041790557fed50123fe46d12537dcaae53f33aee1c64bcc9e4f222560f3bae6c0824040dd3600080a2005b60029150141583610b6b565b5060018101546001600160a01b0316331415610b4a565b3461019657602036600319011261019657604060043580600052600360205260ff82600020541690600052600460205260ff8260002054168251911515825215156020820152f35b34610196576000366003190112610196576020604051620f42408152f35b34610196576000366003190112610196576020600154604051908152f35b3461019657602036600319011261019657600435600052600260205260056040600020015460ff811690600682101561020f576001602092149081610caf575b506040519015158152f35b65ffffffffffff915060381c16421182610ca4565b3461019657602036600319011261019657600435600081815260026020526040902060018101546001600160a01b0316330361022557600501805460ff8116600681101561020f576101fe5760081c65ffffffffffff164211610d9a5760207f9588f431a8bcf33fe3fe494614a8058ed92b7a6d34aa985fbb5112dd7727c46591600160ff19825416178155805465ffffffffffff60381b610d7165ffffffffffff8360c81c1642611a49565b60381b169065ffffffffffff60381b19161780915565ffffffffffff6040519160381c168152a2005b639cb1308760e01b60005260046000fd5b34610196576020366003190112610196576060610180604051610dcd816118ea565b60008152600060208201526000604082015260008382015260006080820152600060a0820152600060c0820152600060e082015260006101008201526000610120820152600061014082015282610160820152015260043560005260026020526040600020604051610e3e816118ea565b81546001600160a01b039081168252600183015481166020830190815260028401548216604084019081526003850154909216606084019081526004850154608085019081526005860154929592919060a0860160ff8416600681101561020f57815260c087018460081c65ffffffffffff16815260e08801918560381c65ffffffffffff1683526101008901938660681c65ffffffffffff1685526101208a01958760981c65ffffffffffff1687526101408b019760c81c65ffffffffffff16885260068901610f0e90611929565b986101608c01998a52600701610f2390611929565b6101808c019081526040805160208082529d516001600160a01b039081169e82019e909e529d518d16908e015299518b1660608d01525190991660808b0152975160a08a01529651889790610f7c9060c08a01906119cd565b5165ffffffffffff1660e08801525165ffffffffffff166101008701525165ffffffffffff166101208601525165ffffffffffff166101408501525165ffffffffffff166101608401525161018083016101a090526101c08301610fdf916119da565b9051828203601f19016101a0840152610ff891906119da565b0390f35b346101965760403660031901126101965760043560243567ffffffffffffffff811161019657611030903690600401611a1b565b600083815260026020526040902060018101549293926001600160a01b0316330361022557600581019060ff825416600681101561020f576001036101fe57815472ffffffffffff000000000000000000000000ff19164260681b65ffffffffffff60681b16176002179091556007019067ffffffffffffffff8111610518576110ba82546118b0565b601f8111611187575b506000601f82116001146111245781929394600092611119575b50508160011b916000199060031b1c19161790555b7f375b4005eeae25d0e37d56e1b3841d3bb394b277efa2548de3293f5dcb7a3493600080a2005b0135905084806110dd565b601f198216948382526020822091805b87811061116f575083600195969710611155575b505050811b0190556110f2565b0135600019600384901b60f8161c19169055848080611148565b90926020600181928686013581550194019101611134565b826000526020600020601f830160051c810191602084106111c5575b601f0160051c01905b8181106111b957506110c3565b600081556001016111ac565b90915081906111a3565b34610196576020366003190112610196576004356111eb611a63565b600081815260026020526040902080546001600160a01b031633036108cb5760ff600582015416600681101561020f576101fe576101f791611b44565b3461019657604036600319011261019657611241611884565b61124961189a565b6001600160a01b039182166000908152600560209081526040808320949093168252928352819020549051908152f35b34610196576020366003190112610196576004356000526003602052602060ff604060002054166040519015158152f35b3461019657600036600319011261019657602060405162278d008152f35b34610196576020366003190112610196576004356112e4611a63565b600081815260026020526040902080549091906001600160a01b031633036108cb57600582019160ff835416600681101561020f5760018114159081611351575b506101fe57825460ff191660031790925560018201546101f7926001600160a01b039190911691611ba9565b60029150141584611325565b3461019657602036600319011261019657600435611379611a63565b600081815260026020526040902080546001600160a01b031633036108cb57600581015460ff8116600681101561020f576001036101fe5760381c65ffffffffffff164211156108ba576101f791611b44565b34610196576000366003190112610196576020604051621275008152f35b3461019657602036600319011261019657611403611884565b61140b611a63565b336000526005602052604060002060018060a01b0382166000526020526040600020549081156114a357336000526005602052604060002060018060a01b03821660005260205260006040812055611464823383611a85565b6040519182526001600160a01b03169033907f5e110f8bc8a20b65dcc87f224bdf1cc039346e267118bae2739847f07321ffa890602090a36001600055005b6303fbecdf60e51b60005260046000fd5b34610196576040366003190112610196576004356114d061189a565b906114d9611a63565b806000526002602052604060002091600283019260018060a01b03845416330361167757600581019160ff835416600681101561020f5760040361096a576001600160a01b031693841561164f5781546001600160a01b031685141580611660575b61164f57600482015492600a8402848104600a14851517156105375761271061156691048095611a56565b6001840180546001600160a01b0316880361161f57825460ff191660039081179093559184015491546115a5926001600160a01b039182169116611a85565b826115da575b5050507ff77ceb5e091d2da041bc760667f9d5fe7a756949eaf29250ad0e60ca6f4c27d9600080a36001600055005b546001600160a01b03908116600090815260056020908152604080832060039095015490931682529290925290208054909161161591611a49565b90558280806115ab565b50815460ff19166005179091556003830154835461164a92916001600160a01b039182169116611a85565b6115a5565b6393a5f3c760e01b60005260046000fd5b5060018201546001600160a01b031685141561153b565b6372cc71e760e11b60005260046000fd5b3461019657602036600319011261019657600435600081815260026020526040902054336001600160a01b03909116036116d4576000908152600360205260409020805460ff19169055005b80600052600260205260018060a01b036001604060002001541633146116f657005b6000526004602052604060002060ff198154169055005b3461019657602036600319011261019657600435600052600260205260056040600020015460ff8116600681101561020f576004149081611755576020826040519015158152f35b65ffffffffffff915060981c1662278d0081018091116105375742116020610802565b34610196576020366003190112610196576004356000526002602052604060002060018060a01b03815416610ff860018060a01b036001840154169261187560018060a01b036002830154169165ffffffffffff60018060a01b0360038301541660048301546005840154916117fc60076117f560068801611929565b9601611929565b966040519a8b9a8b5260208b015260408a01526060890152608088015261182960a0880160ff83166119cd565b818160081c1660c0880152818160381c1660e0880152818160681c16610100880152818160981c1661012088015260c81c166101408601526101a06101608601526101a08501906119da565b908382036101808501526119da565b600435906001600160a01b038216820361019657565b602435906001600160a01b038216820361019657565b90600182811c921680156118e0575b60208310146118ca57565b634e487b7160e01b600052602260045260246000fd5b91607f16916118bf565b6101a0810190811067ffffffffffffffff82111761051857604052565b90601f8019910116810190811067ffffffffffffffff82111761051857604052565b906040519182600082549261193d846118b0565b80845293600181169081156119ab5750600114611964575b5061196292500383611907565b565b90506000929192526020600020906000915b81831061198f5750509060206119629282010138611955565b6020919350806001915483858901015201910190918492611976565b90506020925061196294915060ff191682840152151560051b82010138611955565b90600682101561020f5752565b919082519283825260005b848110611a06575050826000602080949584010152601f8019910116010190565b806020809284010151828286010152016119e5565b9181601f840112156101965782359167ffffffffffffffff8311610196576020838186019501011161019657565b9190820180921161053757565b9190820391821161053757565b600260005414611a74576002600055565b633ee5aeb560e01b60005260046000fd5b8215610621576001600160a01b031680611b0457506000918291829182916001600160a01b03165af13d15611aff573d67ffffffffffffffff81116105185760405190611adc601f8201601f191660200183611907565b8152600060203d92013e5b15611aee57565b630db2c7f160e31b60005260046000fd5b611ae7565b60405163a9059cbb60e01b60208201526001600160a01b03909216602483015260448083019390935291815261196291611b3f606483611907565b611c62565b6005808301805460ff19169091179055600382015482546004909301805492937fb7c1f9298a18c36af08bd57eabbfbeb04695f24d0438f67614741ec15fb5c4a993602093611b9f926001600160a01b039081169116611a85565b54604051908152a2565b9190600481015490600a820291808304600a1481151715610537577f80230996023d69b50793fa73f1919127c9d8e741d3989743c479169f22e7a28893611bf7612710602095048093611a56565b92611c1084600383019360018060a01b03855416611a85565b82611c22575b505050604051908152a2565b600201546001600160a01b03908116600090815260058652604080822093549092168152918552902080549091611c5891611a49565b9055388080611c16565b906000602091828151910182855af115610666576000513d611cb457506001600160a01b0381163b155b611c935750565b635274afe760e01b60009081526001600160a01b0391909116600452602490fd5b60011415611c8c56fea2646970667358221220dff464883d1ef63ddb60742ec7423c5d74199f50d4905b46825b18c53f3b802864736f6c634300081c0033","opcodes":"PUSH1 0x80 DUP1 PUSH1 0x40 MSTORE CALLVALUE PUSH1 0x1A JUMPI PUSH1 0x1 PUSH1 0x0 SSTORE PUSH2 0x1CF3 SWAP1 DUP2 PUSH2 0x20 DUP3 CODECOPY RETURN JUMPDEST PUSH1 0x0 DUP1 REVERT INVALID PUSH1 0x80 PUSH1 0x40 MSTORE PUSH1 0x4 CALLDATASIZE LT ISZERO PUSH2 0x12 JUMPI PUSH1 0x0 DUP1 REVERT JUMPDEST PUSH1 0x0 CALLDATALOAD PUSH1 0xE0 SHR DUP1 PUSH3 0x77C10A EQ PUSH2 0x1228 JUMPI DUP1 PUSH4 0x12F52EE EQ PUSH2 0x1778 JUMPI DUP1 PUSH4 0x58127C6 EQ PUSH2 0x170D JUMPI DUP1 PUSH4 0xBFD5B82 EQ PUSH2 0x1688 JUMPI DUP1 PUSH4 0xE33599D EQ PUSH2 0x14B4 JUMPI DUP1 PUSH4 0x164E68DE EQ PUSH2 0x13EA JUMPI DUP1 PUSH4 0x1C8A5249 EQ PUSH2 0x13CC JUMPI DUP1 PUSH4 0x3212323E EQ PUSH2 0x135D JUMPI DUP1 PUSH4 0x37BDC99B EQ PUSH2 0x12C8 JUMPI DUP1 PUSH4 0x486265C6 EQ PUSH2 0x12AA JUMPI DUP1 PUSH4 0x4B00C323 EQ PUSH2 0x1279 JUMPI DUP1 PUSH4 0x4DB15E74 EQ PUSH2 0x1228 JUMPI DUP1 PUSH4 0x5B7BAF64 EQ PUSH2 0x11CF JUMPI DUP1 PUSH4 0x5E390580 EQ PUSH2 0xFFC JUMPI DUP1 PUSH4 0x7D19E596 EQ PUSH2 0xDAB JUMPI DUP1 PUSH4 0x7D41702E EQ PUSH2 0xCC4 JUMPI DUP1 PUSH4 0x86D6D659 EQ PUSH2 0xC64 JUMPI DUP1 PUSH4 0x89CB29DD EQ PUSH2 0xC46 JUMPI DUP1 PUSH4 0x8E9856F9 EQ PUSH2 0xC28 JUMPI DUP1 PUSH4 0xA41F130A EQ PUSH2 0xBE0 JUMPI DUP1 PUSH4 0xA5C1674E EQ PUSH2 0xB15 JUMPI DUP1 PUSH4 0xA8D883CD EQ PUSH2 0x97B JUMPI DUP1 PUSH4 0xB3331DB9 EQ PUSH2 0x8DC JUMPI DUP1 PUSH4 0xBCFCC8D5 EQ PUSH2 0x84E JUMPI DUP1 PUSH4 0xBF333F2C EQ PUSH2 0x832 JUMPI DUP1 PUSH4 0xD1976B08 EQ PUSH2 0x7C6 JUMPI DUP1 PUSH4 0xD5F274F2 EQ PUSH2 0x717 JUMPI DUP1 PUSH4 0xE962BF25 EQ PUSH2 0x236 JUMPI DUP1 PUSH4 0xF7074219 EQ PUSH2 0x19B JUMPI PUSH4 0xFD4050F0 EQ PUSH2 0x165 JUMPI PUSH1 0x0 DUP1 REVERT JUMPDEST CALLVALUE PUSH2 0x196 JUMPI PUSH1 0x20 CALLDATASIZE PUSH1 0x3 NOT ADD SLT PUSH2 0x196 JUMPI PUSH1 0x4 CALLDATALOAD PUSH1 0x0 MSTORE PUSH1 0x4 PUSH1 0x20 MSTORE PUSH1 0x20 PUSH1 0xFF PUSH1 0x40 PUSH1 0x0 KECCAK256 SLOAD AND PUSH1 0x40 MLOAD SWAP1 ISZERO ISZERO DUP2 MSTORE RETURN JUMPDEST PUSH1 0x0 DUP1 REVERT JUMPDEST CALLVALUE PUSH2 0x196 JUMPI PUSH1 0x20 CALLDATASIZE PUSH1 0x3 NOT ADD SLT PUSH2 0x196 JUMPI PUSH1 0x4 CALLDATALOAD PUSH2 0x1B7 PUSH2 0x1A63 JUMP JUMPDEST PUSH1 0x0 DUP2 DUP2 MSTORE PUSH1 0x2 PUSH1 0x20 MSTORE PUSH1 0x40 SWAP1 KECCAK256 PUSH1 0x1 DUP2 ADD SLOAD PUSH1 0x1 PUSH1 0x1 PUSH1 0xA0 SHL SUB AND CALLER SUB PUSH2 0x225 JUMPI PUSH1 0xFF PUSH1 0x5 DUP3 ADD SLOAD AND PUSH1 0x6 DUP2 LT ISZERO PUSH2 0x20F JUMPI PUSH2 0x1FE JUMPI PUSH2 0x1F7 SWAP2 PUSH2 0x1B44 JUMP JUMPDEST PUSH1 0x1 PUSH1 0x0 SSTORE STOP JUMPDEST PUSH4 0xBAF3F0F7 PUSH1 0xE0 SHL PUSH1 0x0 MSTORE PUSH1 0x4 PUSH1 0x0 REVERT JUMPDEST PUSH4 0x4E487B71 PUSH1 0xE0 SHL PUSH1 0x0 MSTORE PUSH1 0x21 PUSH1 0x4 MSTORE PUSH1 0x24 PUSH1 0x0 REVERT JUMPDEST PUSH4 0x42E8FB93 PUSH1 0xE1 SHL PUSH1 0x0 MSTORE PUSH1 0x4 PUSH1 0x0 REVERT JUMPDEST PUSH1 0xE0 CALLDATASIZE PUSH1 0x3 NOT ADD SLT PUSH2 0x196 JUMPI PUSH2 0x24A PUSH2 0x1884 JUMP JUMPDEST PUSH2 0x252 PUSH2 0x189A JUMP JUMPDEST SWAP1 PUSH1 0x44 CALLDATALOAD SWAP1 PUSH1 0x64 CALLDATALOAD PUSH1 0x1 PUSH1 0x1 PUSH1 0xA0 SHL SUB DUP2 AND SWAP1 DUP2 SWAP1 SUB PUSH2 0x196 JUMPI PUSH1 0x84 CALLDATALOAD PUSH8 0xFFFFFFFFFFFFFFFF DUP2 GT PUSH2 0x196 JUMPI PUSH2 0x28C SWAP1 CALLDATASIZE SWAP1 PUSH1 0x4 ADD PUSH2 0x1A1B JUMP JUMPDEST SWAP1 SWAP2 PUSH1 0xA4 CALLDATALOAD PUSH1 0xC4 CALLDATALOAD SWAP5 PUSH2 0x29D PUSH2 0x1A63 JUMP JUMPDEST PUSH1 0x1 PUSH1 0x1 PUSH1 0xA0 SHL SUB AND SWAP7 DUP8 ISZERO DUP1 ISZERO PUSH2 0x706 JUMPI JUMPDEST PUSH2 0x6F5 JUMPI PUSH3 0xF4240 DUP8 LT PUSH2 0x621 JUMPI CALLER DUP9 EQ PUSH2 0x6E4 JUMPI PUSH1 0x1 PUSH1 0x1 PUSH1 0xA0 SHL SUB AND SWAP1 CALLER DUP3 EQ DUP1 ISZERO PUSH2 0x6DB JUMPI JUMPDEST PUSH2 0x6CA JUMPI DUP6 ISZERO PUSH2 0x6B9 JUMPI DUP7 DUP4 PUSH2 0x56F JUMPI DUP1 CALLVALUE SUB PUSH2 0x55E JUMPI PUSH6 0x9184E72A000 GT PUSH2 0x54D JUMPI JUMPDEST PUSH1 0x1 SLOAD SWAP6 PUSH1 0x0 NOT DUP8 EQ PUSH2 0x537 JUMPI PUSH1 0x1 DUP8 DUP2 ADD DUP2 SSTORE PUSH1 0x0 DUP9 DUP2 MSTORE PUSH1 0x2 PUSH1 0x20 DUP2 SWAP1 MSTORE PUSH1 0x40 SWAP1 SWAP2 KECCAK256 DUP1 SLOAD PUSH1 0x1 PUSH1 0x1 PUSH1 0xA0 SHL SUB NOT SWAP1 DUP2 AND CALLER OR DUP3 SSTORE SWAP3 DUP2 ADD DUP1 SLOAD DUP5 AND DUP14 OR SWAP1 SSTORE SWAP1 DUP2 ADD DUP1 SLOAD DUP4 AND SWAP1 SWAP6 OR SWAP1 SWAP5 SSTORE PUSH1 0x3 DUP5 ADD DUP1 SLOAD SWAP1 SWAP2 AND SWAP1 SWAP5 OR SWAP1 SWAP4 SSTORE PUSH1 0x4 DUP3 ADD DUP8 SWAP1 SSTORE PUSH1 0x5 DUP3 ADD DUP1 SLOAD PUSH1 0xFF NOT AND DUP2 SSTORE PUSH1 0x6 SWAP4 SWAP1 SWAP2 DUP1 PUSH2 0x52E JUMPI POP PUSH2 0x387 PUSH3 0x278D00 JUMPDEST TIMESTAMP PUSH2 0x1A49 JUMP JUMPDEST DUP3 SLOAD PUSH32 0xFF000000000000FFFFFFFFFFFFFFFFFFFFFFFFFFFFFFFFFFFF000000000000FF AND PUSH1 0x8 SWAP2 SWAP1 SWAP2 SHL PUSH7 0xFFFFFFFFFFFF00 AND OR PUSH1 0xC8 SWAP2 SWAP1 SWAP2 SHL PUSH6 0xFFFFFFFFFFFF PUSH1 0xC8 SHL AND OR SWAP1 SSTORE ADD SWAP2 PUSH8 0xFFFFFFFFFFFFFFFF DUP3 GT PUSH2 0x518 JUMPI DUP2 SWAP1 PUSH2 0x3EC DUP5 SLOAD PUSH2 0x18B0 JUMP JUMPDEST PUSH1 0x1F DUP2 GT PUSH2 0x4C5 JUMPI JUMPDEST POP PUSH1 0x0 SWAP1 PUSH1 0x1F DUP4 GT PUSH1 0x1 EQ PUSH2 0x45F JUMPI PUSH1 0x0 SWAP3 PUSH2 0x454 JUMPI JUMPDEST POP POP DUP2 PUSH1 0x1 SHL SWAP2 PUSH1 0x0 NOT SWAP1 PUSH1 0x3 SHL SHR NOT AND OR SWAP1 SSTORE JUMPDEST PUSH1 0x40 MLOAD SWAP2 DUP3 MSTORE PUSH32 0x9405AD0A6208539879349284D71265479B1623846F70303DA1F9890D6E8C10A7 PUSH1 0x20 CALLER SWAP4 LOG4 PUSH1 0x1 PUSH1 0x0 SSTORE STOP JUMPDEST ADD CALLDATALOAD SWAP1 POP DUP7 DUP1 PUSH2 0x40C JUMP JUMPDEST DUP5 DUP3 MSTORE PUSH1 0x20 DUP3 KECCAK256 SWAP3 POP SWAP1 PUSH1 0x1F NOT DUP5 AND DUP2 JUMPDEST DUP2 DUP2 LT PUSH2 0x4AD JUMPI POP SWAP1 DUP5 PUSH1 0x1 SWAP6 SWAP5 SWAP4 SWAP3 LT PUSH2 0x493 JUMPI JUMPDEST POP POP POP DUP2 SHL ADD SWAP1 SSTORE PUSH2 0x421 JUMP JUMPDEST ADD CALLDATALOAD PUSH1 0x0 NOT PUSH1 0x3 DUP5 SWAP1 SHL PUSH1 0xF8 AND SHR NOT AND SWAP1 SSTORE DUP7 DUP1 DUP1 PUSH2 0x486 JUMP JUMPDEST SWAP2 SWAP4 PUSH1 0x20 PUSH1 0x1 DUP2 SWAP3 DUP8 DUP8 ADD CALLDATALOAD DUP2 SSTORE ADD SWAP6 ADD SWAP3 ADD PUSH2 0x470 JUMP JUMPDEST SWAP1 SWAP2 POP DUP4 PUSH1 0x0 MSTORE PUSH1 0x20 PUSH1 0x0 KECCAK256 PUSH1 0x1F DUP5 ADD PUSH1 0x5 SHR DUP2 ADD SWAP2 PUSH1 0x20 DUP6 LT PUSH2 0x50E JUMPI JUMPDEST SWAP1 PUSH1 0x1F DUP6 SWAP5 SWAP4 SWAP3 ADD PUSH1 0x5 SHR ADD SWAP1 JUMPDEST DUP2 DUP2 LT PUSH2 0x4FF JUMPI POP PUSH2 0x3F5 JUMP JUMPDEST PUSH1 0x0 DUP2 SSTORE DUP5 SWAP4 POP PUSH1 0x1 ADD PUSH2 0x4F2 JUMP JUMPDEST SWAP1 SWAP2 POP DUP2 SWAP1 PUSH2 0x4E4 JUMP JUMPDEST PUSH4 0x4E487B71 PUSH1 0xE0 SHL PUSH1 0x0 MSTORE PUSH1 0x41 PUSH1 0x4 MSTORE PUSH1 0x24 PUSH1 0x0 REVERT JUMPDEST PUSH2 0x387 SWAP1 PUSH2 0x381 JUMP JUMPDEST PUSH4 0x4E487B71 PUSH1 0xE0 SHL PUSH1 0x0 MSTORE PUSH1 0x11 PUSH1 0x4 MSTORE PUSH1 0x24 PUSH1 0x0 REVERT JUMPDEST PUSH4 0x7CA64121 PUSH1 0xE0 SHL PUSH1 0x0 MSTORE PUSH1 0x4 PUSH1 0x0 REVERT JUMPDEST PUSH4 0x7681229 PUSH1 0xE1 SHL PUSH1 0x0 MSTORE PUSH1 0x4 PUSH1 0x0 REVERT JUMPDEST SWAP1 SWAP7 POP CALLVALUE PUSH2 0x6A8 JUMPI PUSH1 0x40 MLOAD PUSH4 0x70A08231 PUSH1 0xE0 SHL DUP2 MSTORE ADDRESS PUSH1 0x4 DUP3 ADD MSTORE SWAP1 PUSH1 0x20 DUP3 PUSH1 0x24 DUP2 DUP8 GAS STATICCALL SWAP2 DUP3 ISZERO PUSH2 0x666 JUMPI PUSH1 0x0 SWAP3 PUSH2 0x672 JUMPI JUMPDEST POP PUSH2 0x5DF SWAP1 PUSH1 0x40 MLOAD SWAP1 PUSH4 0x23B872DD PUSH1 0xE0 SHL PUSH1 0x20 DUP4 ADD MSTORE CALLER PUSH1 0x24 DUP4 ADD MSTORE ADDRESS PUSH1 0x44 DUP4 ADD MSTORE PUSH1 0x64 DUP3 ADD MSTORE PUSH1 0x64 DUP2 MSTORE PUSH2 0x5D9 PUSH1 0x84 DUP3 PUSH2 0x1907 JUMP JUMPDEST DUP5 PUSH2 0x1C62 JUMP JUMPDEST PUSH1 0x40 MLOAD PUSH4 0x70A08231 PUSH1 0xE0 SHL DUP2 MSTORE ADDRESS PUSH1 0x4 DUP3 ADD MSTORE SWAP1 PUSH1 0x20 DUP3 PUSH1 0x24 DUP2 DUP8 GAS STATICCALL DUP1 ISZERO PUSH2 0x666 JUMPI PUSH1 0x0 SWAP1 PUSH2 0x632 JUMPI JUMPDEST PUSH2 0x614 SWAP3 POP PUSH2 0x1A56 JUMP JUMPDEST SWAP6 PUSH3 0xF4240 DUP8 LT ISZERO PUSH2 0x2FD JUMPI JUMPDEST PUSH4 0x617AB12D PUSH1 0xE1 SHL PUSH1 0x0 MSTORE PUSH1 0x4 PUSH1 0x0 REVERT JUMPDEST POP PUSH1 0x20 DUP3 RETURNDATASIZE PUSH1 0x20 GT PUSH2 0x65E JUMPI JUMPDEST DUP2 PUSH2 0x64C PUSH1 0x20 SWAP4 DUP4 PUSH2 0x1907 JUMP JUMPDEST DUP2 ADD SUB SLT PUSH2 0x196 JUMPI PUSH2 0x614 SWAP2 MLOAD PUSH2 0x60A JUMP JUMPDEST RETURNDATASIZE SWAP2 POP PUSH2 0x63F JUMP JUMPDEST PUSH1 0x40 MLOAD RETURNDATASIZE PUSH1 0x0 DUP3 RETURNDATACOPY RETURNDATASIZE SWAP1 REVERT JUMPDEST SWAP1 SWAP2 POP PUSH1 0x20 DUP2 RETURNDATASIZE PUSH1 0x20 GT PUSH2 0x6A0 JUMPI JUMPDEST DUP2 PUSH2 0x68E PUSH1 0x20 SWAP4 DUP4 PUSH2 0x1907 JUMP JUMPDEST DUP2 ADD SUB SLT PUSH2 0x196 JUMPI MLOAD SWAP1 PUSH2 0x5DF PUSH2 0x5A3 JUMP JUMPDEST RETURNDATASIZE SWAP2 POP PUSH2 0x681 JUMP JUMPDEST PUSH4 0x5DBA151 PUSH1 0xE1 SHL PUSH1 0x0 MSTORE PUSH1 0x4 PUSH1 0x0 REVERT JUMPDEST PUSH4 0x52382F69 PUSH1 0xE1 SHL PUSH1 0x0 MSTORE PUSH1 0x4 PUSH1 0x0 REVERT JUMPDEST PUSH4 0x1002BDEF PUSH1 0xE2 SHL PUSH1 0x0 MSTORE PUSH1 0x4 PUSH1 0x0 REVERT JUMPDEST POP DUP8 DUP3 EQ PUSH2 0x2D9 JUMP JUMPDEST PUSH4 0x702D6859 PUSH1 0xE0 SHL PUSH1 0x0 MSTORE PUSH1 0x4 PUSH1 0x0 REVERT JUMPDEST PUSH4 0xE6C4247B PUSH1 0xE0 SHL PUSH1 0x0 MSTORE PUSH1 0x4 PUSH1 0x0 REVERT JUMPDEST POP PUSH1 0x1 PUSH1 0x1 PUSH1 0xA0 SHL SUB DUP2 AND ISZERO PUSH2 0x2B0 JUMP JUMPDEST CALLVALUE PUSH2 0x196 JUMPI PUSH1 0x20 CALLDATASIZE PUSH1 0x3 NOT ADD SLT PUSH2 0x196 JUMPI PUSH1 0x4 CALLDATALOAD PUSH2 0x733 PUSH2 0x1A63 JUMP JUMPDEST DUP1 PUSH1 0x0 MSTORE PUSH1 0x2 PUSH1 0x20 MSTORE PUSH1 0x40 PUSH1 0x0 KECCAK256 SWAP1 PUSH1 0x5 DUP3 ADD SWAP2 DUP3 SLOAD PUSH1 0xFF DUP2 AND PUSH1 0x6 DUP2 LT ISZERO PUSH2 0x20F JUMPI PUSH1 0x2 SUB PUSH2 0x7B5 JUMPI PUSH6 0xFFFFFFFFFFFF SWAP1 PUSH1 0x68 SHR AND PUSH3 0x127500 DUP2 ADD DUP1 SWAP2 GT PUSH2 0x537 JUMPI TIMESTAMP GT ISZERO PUSH2 0x7A4 JUMPI DUP3 SLOAD PUSH1 0xFF NOT AND PUSH1 0x3 OR SWAP1 SWAP3 SSTORE PUSH1 0x1 DUP3 ADD SLOAD PUSH2 0x1F7 SWAP3 PUSH1 0x1 PUSH1 0x1 PUSH1 0xA0 SHL SUB SWAP2 SWAP1 SWAP2 AND SWAP2 PUSH2 0x1BA9 JUMP JUMPDEST PUSH4 0x6C823D41 PUSH1 0xE1 SHL PUSH1 0x0 MSTORE PUSH1 0x4 PUSH1 0x0 REVERT JUMPDEST PUSH4 0xCF7EE6DF PUSH1 0xE0 SHL PUSH1 0x0 MSTORE PUSH1 0x4 PUSH1 0x0 REVERT JUMPDEST CALLVALUE PUSH2 0x196 JUMPI PUSH1 0x20 CALLDATASIZE PUSH1 0x3 NOT ADD SLT PUSH2 0x196 JUMPI PUSH1 0x4 CALLDATALOAD PUSH1 0x0 MSTORE PUSH1 0x2 PUSH1 0x20 MSTORE PUSH1 0x5 PUSH1 0x40 PUSH1 0x0 KECCAK256 ADD SLOAD PUSH1 0xFF DUP2 AND PUSH1 0x6 DUP2 LT ISZERO PUSH2 0x20F JUMPI PUSH1 0x2 EQ SWAP1 DUP2 PUSH2 0x80F JUMPI JUMPDEST PUSH1 0x20 DUP3 PUSH1 0x40 MLOAD SWAP1 ISZERO ISZERO DUP2 MSTORE RETURN JUMPDEST PUSH6 0xFFFFFFFFFFFF SWAP2 POP PUSH1 0x68 SHR AND PUSH3 0x127500 DUP2 ADD DUP1 SWAP2 GT PUSH2 0x537 JUMPI TIMESTAMP GT PUSH1 0x20 PUSH2 0x802 JUMP JUMPDEST CALLVALUE PUSH2 0x196 JUMPI PUSH1 0x0 CALLDATASIZE PUSH1 0x3 NOT ADD SLT PUSH2 0x196 JUMPI PUSH1 0x20 PUSH1 0x40 MLOAD PUSH1 0xA DUP2 MSTORE RETURN JUMPDEST CALLVALUE PUSH2 0x196 JUMPI PUSH1 0x20 CALLDATASIZE PUSH1 0x3 NOT ADD SLT PUSH2 0x196 JUMPI PUSH1 0x4 CALLDATALOAD PUSH2 0x86A PUSH2 0x1A63 JUMP JUMPDEST PUSH1 0x0 DUP2 DUP2 MSTORE PUSH1 0x2 PUSH1 0x20 MSTORE PUSH1 0x40 SWAP1 KECCAK256 DUP1 SLOAD PUSH1 0x1 PUSH1 0x1 PUSH1 0xA0 SHL SUB AND CALLER SUB PUSH2 0x8CB JUMPI PUSH1 0x5 DUP2 ADD SLOAD PUSH1 0xFF DUP2 AND PUSH1 0x6 DUP2 LT ISZERO PUSH2 0x20F JUMPI PUSH2 0x1FE JUMPI PUSH1 0x8 SHR PUSH6 0xFFFFFFFFFFFF AND TIMESTAMP GT ISZERO PUSH2 0x8BA JUMPI PUSH2 0x1F7 SWAP2 PUSH2 0x1B44 JUMP JUMPDEST PUSH4 0x2EB3543 PUSH1 0xE4 SHL PUSH1 0x0 MSTORE PUSH1 0x4 PUSH1 0x0 REVERT JUMPDEST PUSH4 0x86EFBB55 PUSH1 0xE0 SHL PUSH1 0x0 MSTORE PUSH1 0x4 PUSH1 0x0 REVERT JUMPDEST CALLVALUE PUSH2 0x196 JUMPI PUSH1 0x20 CALLDATASIZE PUSH1 0x3 NOT ADD SLT PUSH2 0x196 JUMPI PUSH1 0x4 CALLDATALOAD PUSH2 0x8F8 PUSH2 0x1A63 JUMP JUMPDEST PUSH1 0x0 DUP2 DUP2 MSTORE PUSH1 0x2 PUSH1 0x20 MSTORE PUSH1 0x40 SWAP1 KECCAK256 DUP1 SLOAD PUSH1 0x1 PUSH1 0x1 PUSH1 0xA0 SHL SUB AND CALLER SUB PUSH2 0x8CB JUMPI PUSH1 0x5 DUP2 ADD SLOAD PUSH1 0xFF DUP2 AND PUSH1 0x6 DUP2 LT ISZERO PUSH2 0x20F JUMPI PUSH1 0x4 SUB PUSH2 0x96A JUMPI PUSH6 0xFFFFFFFFFFFF SWAP1 PUSH1 0x98 SHR AND PUSH3 0x278D00 DUP2 ADD DUP1 SWAP2 GT PUSH2 0x537 JUMPI TIMESTAMP GT ISZERO PUSH2 0x959 JUMPI PUSH2 0x1F7 SWAP2 PUSH2 0x1B44 JUMP JUMPDEST PUSH4 0x26C015AB PUSH1 0xE2 SHL PUSH1 0x0 MSTORE PUSH1 0x4 PUSH1 0x0 REVERT JUMPDEST PUSH4 0xC6690C47 PUSH1 0xE0 SHL PUSH1 0x0 MSTORE PUSH1 0x4 PUSH1 0x0 REVERT JUMPDEST CALLVALUE PUSH2 0x196 JUMPI PUSH1 0x20 CALLDATASIZE PUSH1 0x3 NOT ADD SLT PUSH2 0x196 JUMPI PUSH1 0x4 CALLDATALOAD PUSH2 0x997 PUSH2 0x1A63 JUMP JUMPDEST DUP1 PUSH1 0x0 MSTORE PUSH1 0x2 PUSH1 0x20 MSTORE PUSH1 0x40 PUSH1 0x0 KECCAK256 PUSH1 0xFF PUSH1 0x5 DUP3 ADD SLOAD AND PUSH1 0x6 DUP2 LT ISZERO PUSH2 0x20F JUMPI PUSH1 0x1 DUP2 EQ ISZERO SWAP1 DUP2 PUSH2 0xB09 JUMPI JUMPDEST POP PUSH2 0x1FE JUMPI DUP1 SLOAD PUSH1 0x1 PUSH1 0x1 PUSH1 0xA0 SHL SUB AND CALLER EQ DUP1 ISZERO DUP1 PUSH2 0xAF2 JUMPI JUMPDEST PUSH2 0xAE1 JUMPI ISZERO PUSH2 0xAC3 JUMPI DUP2 PUSH1 0x0 MSTORE PUSH1 0x3 PUSH1 0x20 MSTORE PUSH1 0x40 PUSH1 0x0 KECCAK256 PUSH1 0x1 PUSH1 0xFF NOT DUP3 SLOAD AND OR SWAP1 SSTORE JUMPDEST CALLER DUP3 PUSH32 0xF0C15CA4FDE757356A9F03D93D4524ACEE3BE5B185ACEB8AF66EF9F31233B5BB PUSH1 0x0 DUP1 LOG3 DUP2 PUSH1 0x0 MSTORE PUSH1 0x3 PUSH1 0x20 MSTORE PUSH1 0xFF PUSH1 0x40 PUSH1 0x0 KECCAK256 SLOAD AND DUP1 PUSH2 0xAAB JUMPI JUMPDEST PUSH2 0xA49 JUMPI PUSH1 0x1 PUSH1 0x0 SSTORE STOP JUMPDEST PUSH2 0xA7F SWAP1 DUP3 PUSH1 0x0 MSTORE PUSH1 0x3 PUSH1 0x20 MSTORE PUSH1 0x40 PUSH1 0x0 KECCAK256 PUSH1 0xFF NOT DUP2 SLOAD AND SWAP1 SSTORE DUP3 PUSH1 0x0 MSTORE PUSH1 0x4 PUSH1 0x20 MSTORE PUSH1 0x40 PUSH1 0x0 KECCAK256 PUSH1 0xFF NOT DUP2 SLOAD AND SWAP1 SSTORE DUP3 PUSH2 0x1B44 JUMP JUMPDEST PUSH32 0xDFC737CD15A43AD3814036264D6E7F96BBEBA4CE40727BE8DF939ED2A1F671A1 PUSH1 0x0 DUP1 LOG2 DUP1 DUP1 PUSH2 0x1F7 JUMP JUMPDEST POP DUP2 PUSH1 0x0 MSTORE PUSH1 0x4 PUSH1 0x20 MSTORE PUSH1 0xFF PUSH1 0x40 PUSH1 0x0 KECCAK256 SLOAD AND PUSH2 0xA3E JUMP JUMPDEST DUP2 PUSH1 0x0 MSTORE PUSH1 0x4 PUSH1 0x20 MSTORE PUSH1 0x40 PUSH1 0x0 KECCAK256 PUSH1 0x1 PUSH1 0xFF NOT DUP3 SLOAD AND OR SWAP1 SSTORE PUSH2 0x9FF JUMP JUMPDEST PUSH4 0x2B41C4CD PUSH1 0xE0 SHL PUSH1 0x0 MSTORE PUSH1 0x4 PUSH1 0x0 REVERT JUMPDEST POP PUSH1 0x1 DUP3 ADD SLOAD PUSH1 0x1 PUSH1 0x1 PUSH1 0xA0 SHL SUB AND CALLER EQ ISZERO PUSH2 0x9DC JUMP JUMPDEST PUSH1 0x2 SWAP2 POP EQ ISZERO DUP4 PUSH2 0x9C2 JUMP JUMPDEST CALLVALUE PUSH2 0x196 JUMPI PUSH1 0x20 CALLDATASIZE PUSH1 0x3 NOT ADD SLT PUSH2 0x196 JUMPI PUSH1 0x4 CALLDATALOAD DUP1 PUSH1 0x0 MSTORE PUSH1 0x2 PUSH1 0x20 MSTORE PUSH1 0x40 PUSH1 0x0 KECCAK256 PUSH1 0x1 DUP1 PUSH1 0xA0 SHL SUB DUP2 SLOAD AND CALLER EQ ISZERO DUP1 PUSH2 0xBC9 JUMPI JUMPDEST PUSH2 0xAE1 JUMPI PUSH1 0x5 ADD PUSH1 0xFF DUP2 SLOAD AND PUSH1 0x6 DUP2 LT ISZERO PUSH2 0x20F JUMPI PUSH1 0x1 DUP2 EQ ISZERO SWAP1 DUP2 PUSH2 0xBBD JUMPI JUMPDEST POP PUSH2 0x1FE JUMPI DUP1 SLOAD PUSH1 0xFF PUSH6 0xFFFFFFFFFFFF PUSH1 0x98 SHL ADD NOT AND TIMESTAMP PUSH1 0x98 SHL PUSH6 0xFFFFFFFFFFFF PUSH1 0x98 SHL AND OR PUSH1 0x4 OR SWAP1 SSTORE PUSH32 0xED50123FE46D12537DCAAE53F33AEE1C64BCC9E4F222560F3BAE6C0824040DD3 PUSH1 0x0 DUP1 LOG2 STOP JUMPDEST PUSH1 0x2 SWAP2 POP EQ ISZERO DUP4 PUSH2 0xB6B JUMP JUMPDEST POP PUSH1 0x1 DUP2 ADD SLOAD PUSH1 0x1 PUSH1 0x1 PUSH1 0xA0 SHL SUB AND CALLER EQ ISZERO PUSH2 0xB4A JUMP JUMPDEST CALLVALUE PUSH2 0x196 JUMPI PUSH1 0x20 CALLDATASIZE PUSH1 0x3 NOT ADD SLT PUSH2 0x196 JUMPI PUSH1 0x40 PUSH1 0x4 CALLDATALOAD DUP1 PUSH1 0x0 MSTORE PUSH1 0x3 PUSH1 0x20 MSTORE PUSH1 0xFF DUP3 PUSH1 0x0 KECCAK256 SLOAD AND SWAP1 PUSH1 0x0 MSTORE PUSH1 0x4 PUSH1 0x20 MSTORE PUSH1 0xFF DUP3 PUSH1 0x0 KECCAK256 SLOAD AND DUP3 MLOAD SWAP2 ISZERO ISZERO DUP3 MSTORE ISZERO ISZERO PUSH1 0x20 DUP3 ADD MSTORE RETURN JUMPDEST CALLVALUE PUSH2 0x196 JUMPI PUSH1 0x0 CALLDATASIZE PUSH1 0x3 NOT ADD SLT PUSH2 0x196 JUMPI PUSH1 0x20 PUSH1 0x40 MLOAD PUSH3 0xF4240 DUP2 MSTORE RETURN JUMPDEST CALLVALUE PUSH2 0x196 JUMPI PUSH1 0x0 CALLDATASIZE PUSH1 0x3 NOT ADD SLT PUSH2 0x196 JUMPI PUSH1 0x20 PUSH1 0x1 SLOAD PUSH1 0x40 MLOAD SWAP1 DUP2 MSTORE RETURN JUMPDEST CALLVALUE PUSH2 0x196 JUMPI PUSH1 0x20 CALLDATASIZE PUSH1 0x3 NOT ADD SLT PUSH2 0x196 JUMPI PUSH1 0x4 CALLDATALOAD PUSH1 0x0 MSTORE PUSH1 0x2 PUSH1 0x20 MSTORE PUSH1 0x5 PUSH1 0x40 PUSH1 0x0 KECCAK256 ADD SLOAD PUSH1 0xFF DUP2 AND SWAP1 PUSH1 0x6 DUP3 LT ISZERO PUSH2 0x20F JUMPI PUSH1 0x1 PUSH1 0x20 SWAP3 EQ SWAP1 DUP2 PUSH2 0xCAF JUMPI JUMPDEST POP PUSH1 0x40 MLOAD SWAP1 ISZERO ISZERO DUP2 MSTORE RETURN JUMPDEST PUSH6 0xFFFFFFFFFFFF SWAP2 POP PUSH1 0x38 SHR AND TIMESTAMP GT DUP3 PUSH2 0xCA4 JUMP JUMPDEST CALLVALUE PUSH2 0x196 JUMPI PUSH1 0x20 CALLDATASIZE PUSH1 0x3 NOT ADD SLT PUSH2 0x196 JUMPI PUSH1 0x4 CALLDATALOAD PUSH1 0x0 DUP2 DUP2 MSTORE PUSH1 0x2 PUSH1 0x20 MSTORE PUSH1 0x40 SWAP1 KECCAK256 PUSH1 0x1 DUP2 ADD SLOAD PUSH1 0x1 PUSH1 0x1 PUSH1 0xA0 SHL SUB AND CALLER SUB PUSH2 0x225 JUMPI PUSH1 0x5 ADD DUP1 SLOAD PUSH1 0xFF DUP2 AND PUSH1 0x6 DUP2 LT ISZERO PUSH2 0x20F JUMPI PUSH2 0x1FE JUMPI PUSH1 0x8 SHR PUSH6 0xFFFFFFFFFFFF AND TIMESTAMP GT PUSH2 0xD9A JUMPI PUSH1 0x20 PUSH32 0x9588F431A8BCF33FE3FE494614A8058ED92B7A6D34AA985FBB5112DD7727C465 SWAP2 PUSH1 0x1 PUSH1 0xFF NOT DUP3 SLOAD AND OR DUP2 SSTORE DUP1 SLOAD PUSH6 0xFFFFFFFFFFFF PUSH1 0x38 SHL PUSH2 0xD71 PUSH6 0xFFFFFFFFFFFF DUP4 PUSH1 0xC8 SHR AND TIMESTAMP PUSH2 0x1A49 JUMP JUMPDEST PUSH1 0x38 SHL AND SWAP1 PUSH6 0xFFFFFFFFFFFF PUSH1 0x38 SHL NOT AND OR DUP1 SWAP2 SSTORE PUSH6 0xFFFFFFFFFFFF PUSH1 0x40 MLOAD SWAP2 PUSH1 0x38 SHR AND DUP2 MSTORE LOG2 STOP JUMPDEST PUSH4 0x9CB13087 PUSH1 0xE0 SHL PUSH1 0x0 MSTORE PUSH1 0x4 PUSH1 0x0 REVERT JUMPDEST CALLVALUE PUSH2 0x196 JUMPI PUSH1 0x20 CALLDATASIZE PUSH1 0x3 NOT ADD SLT PUSH2 0x196 JUMPI PUSH1 0x60 PUSH2 0x180 PUSH1 0x40 MLOAD PUSH2 0xDCD DUP2 PUSH2 0x18EA JUMP JUMPDEST PUSH1 0x0 DUP2 MSTORE PUSH1 0x0 PUSH1 0x20 DUP3 ADD MSTORE PUSH1 0x0 PUSH1 0x40 DUP3 ADD MSTORE PUSH1 0x0 DUP4 DUP3 ADD MSTORE PUSH1 0x0 PUSH1 0x80 DUP3 ADD MSTORE PUSH1 0x0 PUSH1 0xA0 DUP3 ADD MSTORE PUSH1 0x0 PUSH1 0xC0 DUP3 ADD MSTORE PUSH1 0x0 PUSH1 0xE0 DUP3 ADD MSTORE PUSH1 0x0 PUSH2 0x100 DUP3 ADD MSTORE PUSH1 0x0 PUSH2 0x120 DUP3 ADD MSTORE PUSH1 0x0 PUSH2 0x140 DUP3 ADD MSTORE DUP3 PUSH2 0x160 DUP3 ADD MSTORE ADD MSTORE PUSH1 0x4 CALLDATALOAD PUSH1 0x0 MSTORE PUSH1 0x2 PUSH1 0x20 MSTORE PUSH1 0x40 PUSH1 0x0 KECCAK256 PUSH1 0x40 MLOAD PUSH2 0xE3E DUP2 PUSH2 0x18EA JUMP JUMPDEST DUP2 SLOAD PUSH1 0x1 PUSH1 0x1 PUSH1 0xA0 SHL SUB SWAP1 DUP2 AND DUP3 MSTORE PUSH1 0x1 DUP4 ADD SLOAD DUP2 AND PUSH1 0x20 DUP4 ADD SWAP1 DUP2 MSTORE PUSH1 0x2 DUP5 ADD SLOAD DUP3 AND PUSH1 0x40 DUP5 ADD SWAP1 DUP2 MSTORE PUSH1 0x3 DUP6 ADD SLOAD SWAP1 SWAP3 AND PUSH1 0x60 DUP5 ADD SWAP1 DUP2 MSTORE PUSH1 0x4 DUP6 ADD SLOAD PUSH1 0x80 DUP6 ADD SWAP1 DUP2 MSTORE PUSH1 0x5 DUP7 ADD SLOAD SWAP3 SWAP6 SWAP3 SWAP2 SWAP1 PUSH1 0xA0 DUP7 ADD PUSH1 0xFF DUP5 AND PUSH1 0x6 DUP2 LT ISZERO PUSH2 0x20F JUMPI DUP2 MSTORE PUSH1 0xC0 DUP8 ADD DUP5 PUSH1 0x8 SHR PUSH6 0xFFFFFFFFFFFF AND DUP2 MSTORE PUSH1 0xE0 DUP9 ADD SWAP2 DUP6 PUSH1 0x38 SHR PUSH6 0xFFFFFFFFFFFF AND DUP4 MSTORE PUSH2 0x100 DUP10 ADD SWAP4 DUP7 PUSH1 0x68 SHR PUSH6 0xFFFFFFFFFFFF AND DUP6 MSTORE PUSH2 0x120 DUP11 ADD SWAP6 DUP8 PUSH1 0x98 SHR PUSH6 0xFFFFFFFFFFFF AND DUP8 MSTORE PUSH2 0x140 DUP12 ADD SWAP8 PUSH1 0xC8 SHR PUSH6 0xFFFFFFFFFFFF AND DUP9 MSTORE PUSH1 0x6 DUP10 ADD PUSH2 0xF0E SWAP1 PUSH2 0x1929 JUMP JUMPDEST SWAP9 PUSH2 0x160 DUP13 ADD SWAP10 DUP11 MSTORE PUSH1 0x7 ADD PUSH2 0xF23 SWAP1 PUSH2 0x1929 JUMP JUMPDEST PUSH2 0x180 DUP13 ADD SWAP1 DUP2 MSTORE PUSH1 0x40 DUP1 MLOAD PUSH1 0x20 DUP1 DUP3 MSTORE SWAP14 MLOAD PUSH1 0x1 PUSH1 0x1 PUSH1 0xA0 SHL SUB SWAP1 DUP2 AND SWAP15 DUP3 ADD SWAP15 SWAP1 SWAP15 MSTORE SWAP14 MLOAD DUP14 AND SWAP1 DUP15 ADD MSTORE SWAP10 MLOAD DUP12 AND PUSH1 0x60 DUP14 ADD MSTORE MLOAD SWAP1 SWAP10 AND PUSH1 0x80 DUP12 ADD MSTORE SWAP8 MLOAD PUSH1 0xA0 DUP11 ADD MSTORE SWAP7 MLOAD DUP9 SWAP8 SWAP1 PUSH2 0xF7C SWAP1 PUSH1 0xC0 DUP11 ADD SWAP1 PUSH2 0x19CD JUMP JUMPDEST MLOAD PUSH6 0xFFFFFFFFFFFF AND PUSH1 0xE0 DUP9 ADD MSTORE MLOAD PUSH6 0xFFFFFFFFFFFF AND PUSH2 0x100 DUP8 ADD MSTORE MLOAD PUSH6 0xFFFFFFFFFFFF AND PUSH2 0x120 DUP7 ADD MSTORE MLOAD PUSH6 0xFFFFFFFFFFFF AND PUSH2 0x140 DUP6 ADD MSTORE MLOAD PUSH6 0xFFFFFFFFFFFF AND PUSH2 0x160 DUP5 ADD MSTORE MLOAD PUSH2 0x180 DUP4 ADD PUSH2 0x1A0 SWAP1 MSTORE PUSH2 0x1C0 DUP4 ADD PUSH2 0xFDF SWAP2 PUSH2 0x19DA JUMP JUMPDEST SWAP1 MLOAD DUP3 DUP3 SUB PUSH1 0x1F NOT ADD PUSH2 0x1A0 DUP5 ADD MSTORE PUSH2 0xFF8 SWAP2 SWAP1 PUSH2 0x19DA JUMP JUMPDEST SUB SWAP1 RETURN JUMPDEST CALLVALUE PUSH2 0x196 JUMPI PUSH1 0x40 CALLDATASIZE PUSH1 0x3 NOT ADD SLT PUSH2 0x196 JUMPI PUSH1 0x4 CALLDATALOAD PUSH1 0x24 CALLDATALOAD PUSH8 0xFFFFFFFFFFFFFFFF DUP2 GT PUSH2 0x196 JUMPI PUSH2 0x1030 SWAP1 CALLDATASIZE SWAP1 PUSH1 0x4 ADD PUSH2 0x1A1B JUMP JUMPDEST PUSH1 0x0 DUP4 DUP2 MSTORE PUSH1 0x2 PUSH1 0x20 MSTORE PUSH1 0x40 SWAP1 KECCAK256 PUSH1 0x1 DUP2 ADD SLOAD SWAP3 SWAP4 SWAP3 PUSH1 0x1 PUSH1 0x1 PUSH1 0xA0 SHL SUB AND CALLER SUB PUSH2 0x225 JUMPI PUSH1 0x5 DUP2 ADD SWAP1 PUSH1 0xFF DUP3 SLOAD AND PUSH1 0x6 DUP2 LT ISZERO PUSH2 0x20F JUMPI PUSH1 0x1 SUB PUSH2 0x1FE JUMPI DUP2 SLOAD PUSH19 0xFFFFFFFFFFFF000000000000000000000000FF NOT AND TIMESTAMP PUSH1 0x68 SHL PUSH6 0xFFFFFFFFFFFF PUSH1 0x68 SHL AND OR PUSH1 0x2 OR SWAP1 SWAP2 SSTORE PUSH1 0x7 ADD SWAP1 PUSH8 0xFFFFFFFFFFFFFFFF DUP2 GT PUSH2 0x518 JUMPI PUSH2 0x10BA DUP3 SLOAD PUSH2 0x18B0 JUMP JUMPDEST PUSH1 0x1F DUP2 GT PUSH2 0x1187 JUMPI JUMPDEST POP PUSH1 0x0 PUSH1 0x1F DUP3 GT PUSH1 0x1 EQ PUSH2 0x1124 JUMPI DUP2 SWAP3 SWAP4 SWAP5 PUSH1 0x0 SWAP3 PUSH2 0x1119 JUMPI JUMPDEST POP POP DUP2 PUSH1 0x1 SHL SWAP2 PUSH1 0x0 NOT SWAP1 PUSH1 0x3 SHL SHR NOT AND OR SWAP1 SSTORE JUMPDEST PUSH32 0x375B4005EEAE25D0E37D56E1B3841D3BB394B277EFA2548DE3293F5DCB7A3493 PUSH1 0x0 DUP1 LOG2 STOP JUMPDEST ADD CALLDATALOAD SWAP1 POP DUP5 DUP1 PUSH2 0x10DD JUMP JUMPDEST PUSH1 0x1F NOT DUP3 AND SWAP5 DUP4 DUP3 MSTORE PUSH1 0x20 DUP3 KECCAK256 SWAP2 DUP1 JUMPDEST DUP8 DUP2 LT PUSH2 0x116F JUMPI POP DUP4 PUSH1 0x1 SWAP6 SWAP7 SWAP8 LT PUSH2 0x1155 JUMPI JUMPDEST POP POP POP DUP2 SHL ADD SWAP1 SSTORE PUSH2 0x10F2 JUMP JUMPDEST ADD CALLDATALOAD PUSH1 0x0 NOT PUSH1 0x3 DUP5 SWAP1 SHL PUSH1 0xF8 AND SHR NOT AND SWAP1 SSTORE DUP5 DUP1 DUP1 PUSH2 0x1148 JUMP JUMPDEST SWAP1 SWAP3 PUSH1 0x20 PUSH1 0x1 DUP2 SWAP3 DUP7 DUP7 ADD CALLDATALOAD DUP2 SSTORE ADD SWAP5 ADD SWAP2 ADD PUSH2 0x1134 JUMP JUMPDEST DUP3 PUSH1 0x0 MSTORE PUSH1 0x20 PUSH1 0x0 KECCAK256 PUSH1 0x1F DUP4 ADD PUSH1 0x5 SHR DUP2 ADD SWAP2 PUSH1 0x20 DUP5 LT PUSH2 0x11C5 JUMPI JUMPDEST PUSH1 0x1F ADD PUSH1 0x5 SHR ADD SWAP1 JUMPDEST DUP2 DUP2 LT PUSH2 0x11B9 JUMPI POP PUSH2 0x10C3 JUMP JUMPDEST PUSH1 0x0 DUP2 SSTORE PUSH1 0x1 ADD PUSH2 0x11AC JUMP JUMPDEST SWAP1 SWAP2 POP DUP2 SWAP1 PUSH2 0x11A3 JUMP JUMPDEST CALLVALUE PUSH2 0x196 JUMPI PUSH1 0x20 CALLDATASIZE PUSH1 0x3 NOT ADD SLT PUSH2 0x196 JUMPI PUSH1 0x4 CALLDATALOAD PUSH2 0x11EB PUSH2 0x1A63 JUMP JUMPDEST PUSH1 0x0 DUP2 DUP2 MSTORE PUSH1 0x2 PUSH1 0x20 MSTORE PUSH1 0x40 SWAP1 KECCAK256 DUP1 SLOAD PUSH1 0x1 PUSH1 0x1 PUSH1 0xA0 SHL SUB AND CALLER SUB PUSH2 0x8CB JUMPI PUSH1 0xFF PUSH1 0x5 DUP3 ADD SLOAD AND PUSH1 0x6 DUP2 LT ISZERO PUSH2 0x20F JUMPI PUSH2 0x1FE JUMPI PUSH2 0x1F7 SWAP2 PUSH2 0x1B44 JUMP JUMPDEST CALLVALUE PUSH2 0x196 JUMPI PUSH1 0x40 CALLDATASIZE PUSH1 0x3 NOT ADD SLT PUSH2 0x196 JUMPI PUSH2 0x1241 PUSH2 0x1884 JUMP JUMPDEST PUSH2 0x1249 PUSH2 0x189A JUMP JUMPDEST PUSH1 0x1 PUSH1 0x1 PUSH1 0xA0 SHL SUB SWAP2 DUP3 AND PUSH1 0x0 SWAP1 DUP2 MSTORE PUSH1 0x5 PUSH1 0x20 SWAP1 DUP2 MSTORE PUSH1 0x40 DUP1 DUP4 KECCAK256 SWAP5 SWAP1 SWAP4 AND DUP3 MSTORE SWAP3 DUP4 MSTORE DUP2 SWAP1 KECCAK256 SLOAD SWAP1 MLOAD SWAP1 DUP2 MSTORE RETURN JUMPDEST CALLVALUE PUSH2 0x196 JUMPI PUSH1 0x20 CALLDATASIZE PUSH1 0x3 NOT ADD SLT PUSH2 0x196 JUMPI PUSH1 0x4 CALLDATALOAD PUSH1 0x0 MSTORE PUSH1 0x3 PUSH1 0x20 MSTORE PUSH1 0x20 PUSH1 0xFF PUSH1 0x40 PUSH1 0x0 KECCAK256 SLOAD AND PUSH1 0x40 MLOAD SWAP1 ISZERO ISZERO DUP2 MSTORE RETURN JUMPDEST CALLVALUE PUSH2 0x196 JUMPI PUSH1 0x0 CALLDATASIZE PUSH1 0x3 NOT ADD SLT PUSH2 0x196 JUMPI PUSH1 0x20 PUSH1 0x40 MLOAD PUSH3 0x278D00 DUP2 MSTORE RETURN JUMPDEST CALLVALUE PUSH2 0x196 JUMPI PUSH1 0x20 CALLDATASIZE PUSH1 0x3 NOT ADD SLT PUSH2 0x196 JUMPI PUSH1 0x4 CALLDATALOAD PUSH2 0x12E4 PUSH2 0x1A63 JUMP JUMPDEST PUSH1 0x0 DUP2 DUP2 MSTORE PUSH1 0x2 PUSH1 0x20 MSTORE PUSH1 0x40 SWAP1 KECCAK256 DUP1 SLOAD SWAP1 SWAP2 SWAP1 PUSH1 0x1 PUSH1 0x1 PUSH1 0xA0 SHL SUB AND CALLER SUB PUSH2 0x8CB JUMPI PUSH1 0x5 DUP3 ADD SWAP2 PUSH1 0xFF DUP4 SLOAD AND PUSH1 0x6 DUP2 LT ISZERO PUSH2 0x20F JUMPI PUSH1 0x1 DUP2 EQ ISZERO SWAP1 DUP2 PUSH2 0x1351 JUMPI JUMPDEST POP PUSH2 0x1FE JUMPI DUP3 SLOAD PUSH1 0xFF NOT AND PUSH1 0x3 OR SWAP1 SWAP3 SSTORE PUSH1 0x1 DUP3 ADD SLOAD PUSH2 0x1F7 SWAP3 PUSH1 0x1 PUSH1 0x1 PUSH1 0xA0 SHL SUB SWAP2 SWAP1 SWAP2 AND SWAP2 PUSH2 0x1BA9 JUMP JUMPDEST PUSH1 0x2 SWAP2 POP EQ ISZERO DUP5 PUSH2 0x1325 JUMP JUMPDEST CALLVALUE PUSH2 0x196 JUMPI PUSH1 0x20 CALLDATASIZE PUSH1 0x3 NOT ADD SLT PUSH2 0x196 JUMPI PUSH1 0x4 CALLDATALOAD PUSH2 0x1379 PUSH2 0x1A63 JUMP JUMPDEST PUSH1 0x0 DUP2 DUP2 MSTORE PUSH1 0x2 PUSH1 0x20 MSTORE PUSH1 0x40 SWAP1 KECCAK256 DUP1 SLOAD PUSH1 0x1 PUSH1 0x1 PUSH1 0xA0 SHL SUB AND CALLER SUB PUSH2 0x8CB JUMPI PUSH1 0x5 DUP2 ADD SLOAD PUSH1 0xFF DUP2 AND PUSH1 0x6 DUP2 LT ISZERO PUSH2 0x20F JUMPI PUSH1 0x1 SUB PUSH2 0x1FE JUMPI PUSH1 0x38 SHR PUSH6 0xFFFFFFFFFFFF AND TIMESTAMP GT ISZERO PUSH2 0x8BA JUMPI PUSH2 0x1F7 SWAP2 PUSH2 0x1B44 JUMP JUMPDEST CALLVALUE PUSH2 0x196 JUMPI PUSH1 0x0 CALLDATASIZE PUSH1 0x3 NOT ADD SLT PUSH2 0x196 JUMPI PUSH1 0x20 PUSH1 0x40 MLOAD PUSH3 0x127500 DUP2 MSTORE RETURN JUMPDEST CALLVALUE PUSH2 0x196 JUMPI PUSH1 0x20 CALLDATASIZE PUSH1 0x3 NOT ADD SLT PUSH2 0x196 JUMPI PUSH2 0x1403 PUSH2 0x1884 JUMP JUMPDEST PUSH2 0x140B PUSH2 0x1A63 JUMP JUMPDEST CALLER PUSH1 0x0 MSTORE PUSH1 0x5 PUSH1 0x20 MSTORE PUSH1 0x40 PUSH1 0x0 KECCAK256 PUSH1 0x1 DUP1 PUSH1 0xA0 SHL SUB DUP3 AND PUSH1 0x0 MSTORE PUSH1 0x20 MSTORE PUSH1 0x40 PUSH1 0x0 KECCAK256 SLOAD SWAP1 DUP2 ISZERO PUSH2 0x14A3 JUMPI CALLER PUSH1 0x0 MSTORE PUSH1 0x5 PUSH1 0x20 MSTORE PUSH1 0x40 PUSH1 0x0 KECCAK256 PUSH1 0x1 DUP1 PUSH1 0xA0 SHL SUB DUP3 AND PUSH1 0x0 MSTORE PUSH1 0x20 MSTORE PUSH1 0x0 PUSH1 0x40 DUP2 KECCAK256 SSTORE PUSH2 0x1464 DUP3 CALLER DUP4 PUSH2 0x1A85 JUMP JUMPDEST PUSH1 0x40 MLOAD SWAP2 DUP3 MSTORE PUSH1 0x1 PUSH1 0x1 PUSH1 0xA0 SHL SUB AND SWAP1 CALLER SWAP1 PUSH32 0x5E110F8BC8A20B65DCC87F224BDF1CC039346E267118BAE2739847F07321FFA8 SWAP1 PUSH1 0x20 SWAP1 LOG3 PUSH1 0x1 PUSH1 0x0 SSTORE STOP JUMPDEST PUSH4 0x3FBECDF PUSH1 0xE5 SHL PUSH1 0x0 MSTORE PUSH1 0x4 PUSH1 0x0 REVERT JUMPDEST CALLVALUE PUSH2 0x196 JUMPI PUSH1 0x40 CALLDATASIZE PUSH1 0x3 NOT ADD SLT PUSH2 0x196 JUMPI PUSH1 0x4 CALLDATALOAD PUSH2 0x14D0 PUSH2 0x189A JUMP JUMPDEST SWAP1 PUSH2 0x14D9 PUSH2 0x1A63 JUMP JUMPDEST DUP1 PUSH1 0x0 MSTORE PUSH1 0x2 PUSH1 0x20 MSTORE PUSH1 0x40 PUSH1 0x0 KECCAK256 SWAP2 PUSH1 0x2 DUP4 ADD SWAP3 PUSH1 0x1 DUP1 PUSH1 0xA0 SHL SUB DUP5 SLOAD AND CALLER SUB PUSH2 0x1677 JUMPI PUSH1 0x5 DUP2 ADD SWAP2 PUSH1 0xFF DUP4 SLOAD AND PUSH1 0x6 DUP2 LT ISZERO PUSH2 0x20F JUMPI PUSH1 0x4 SUB PUSH2 0x96A JUMPI PUSH1 0x1 PUSH1 0x1 PUSH1 0xA0 SHL SUB AND SWAP4 DUP5 ISZERO PUSH2 0x164F JUMPI DUP2 SLOAD PUSH1 0x1 PUSH1 0x1 PUSH1 0xA0 SHL SUB AND DUP6 EQ ISZERO DUP1 PUSH2 0x1660 JUMPI JUMPDEST PUSH2 0x164F JUMPI PUSH1 0x4 DUP3 ADD SLOAD SWAP3 PUSH1 0xA DUP5 MUL DUP5 DUP2 DIV PUSH1 0xA EQ DUP6 ISZERO OR ISZERO PUSH2 0x537 JUMPI PUSH2 0x2710 PUSH2 0x1566 SWAP2 DIV DUP1 SWAP6 PUSH2 0x1A56 JUMP JUMPDEST PUSH1 0x1 DUP5 ADD DUP1 SLOAD PUSH1 0x1 PUSH1 0x1 PUSH1 0xA0 SHL SUB AND DUP9 SUB PUSH2 0x161F JUMPI DUP3 SLOAD PUSH1 0xFF NOT AND PUSH1 0x3 SWAP1 DUP2 OR SWAP1 SWAP4 SSTORE SWAP2 DUP5 ADD SLOAD SWAP2 SLOAD PUSH2 0x15A5 SWAP3 PUSH1 0x1 PUSH1 0x1 PUSH1 0xA0 SHL SUB SWAP2 DUP3 AND SWAP2 AND PUSH2 0x1A85 JUMP JUMPDEST DUP3 PUSH2 0x15DA JUMPI JUMPDEST POP POP POP PUSH32 0xF77CEB5E091D2DA041BC760667F9D5FE7A756949EAF29250AD0E60CA6F4C27D9 PUSH1 0x0 DUP1 LOG3 PUSH1 0x1 PUSH1 0x0 SSTORE STOP JUMPDEST SLOAD PUSH1 0x1 PUSH1 0x1 PUSH1 0xA0 SHL SUB SWAP1 DUP2 AND PUSH1 0x0 SWAP1 DUP2 MSTORE PUSH1 0x5 PUSH1 0x20 SWAP1 DUP2 MSTORE PUSH1 0x40 DUP1 DUP4 KECCAK256 PUSH1 0x3 SWAP1 SWAP6 ADD SLOAD SWAP1 SWAP4 AND DUP3 MSTORE SWAP3 SWAP1 SWAP3 MSTORE SWAP1 KECCAK256 DUP1 SLOAD SWAP1 SWAP2 PUSH2 0x1615 SWAP2 PUSH2 0x1A49 JUMP JUMPDEST SWAP1 SSTORE DUP3 DUP1 DUP1 PUSH2 0x15AB JUMP JUMPDEST POP DUP2 SLOAD PUSH1 0xFF NOT AND PUSH1 0x5 OR SWAP1 SWAP2 SSTORE PUSH1 0x3 DUP4 ADD SLOAD DUP4 SLOAD PUSH2 0x164A SWAP3 SWAP2 PUSH1 0x1 PUSH1 0x1 PUSH1 0xA0 SHL SUB SWAP2 DUP3 AND SWAP2 AND PUSH2 0x1A85 JUMP JUMPDEST PUSH2 0x15A5 JUMP JUMPDEST PUSH4 0x93A5F3C7 PUSH1 0xE0 SHL PUSH1 0x0 MSTORE PUSH1 0x4 PUSH1 0x0 REVERT JUMPDEST POP PUSH1 0x1 DUP3 ADD SLOAD PUSH1 0x1 PUSH1 0x1 PUSH1 0xA0 SHL SUB AND DUP6 EQ ISZERO PUSH2 0x153B JUMP JUMPDEST PUSH4 0x72CC71E7 PUSH1 0xE1 SHL PUSH1 0x0 MSTORE PUSH1 0x4 PUSH1 0x0 REVERT JUMPDEST CALLVALUE PUSH2 0x196 JUMPI PUSH1 0x20 CALLDATASIZE PUSH1 0x3 NOT ADD SLT PUSH2 0x196 JUMPI PUSH1 0x4 CALLDATALOAD PUSH1 0x0 DUP2 DUP2 MSTORE PUSH1 0x2 PUSH1 0x20 MSTORE PUSH1 0x40 SWAP1 KECCAK256 SLOAD CALLER PUSH1 0x1 PUSH1 0x1 PUSH1 0xA0 SHL SUB SWAP1 SWAP2 AND SUB PUSH2 0x16D4 JUMPI PUSH1 0x0 SWAP1 DUP2 MSTORE PUSH1 0x3 PUSH1 0x20 MSTORE PUSH1 0x40 SWAP1 KECCAK256 DUP1 SLOAD PUSH1 0xFF NOT AND SWAP1 SSTORE STOP JUMPDEST DUP1 PUSH1 0x0 MSTORE PUSH1 0x2 PUSH1 0x20 MSTORE PUSH1 0x1 DUP1 PUSH1 0xA0 SHL SUB PUSH1 0x1 PUSH1 0x40 PUSH1 0x0 KECCAK256 ADD SLOAD AND CALLER EQ PUSH2 0x16F6 JUMPI STOP JUMPDEST PUSH1 0x0 MSTORE PUSH1 0x4 PUSH1 0x20 MSTORE PUSH1 0x40 PUSH1 0x0 KECCAK256 PUSH1 0xFF NOT DUP2 SLOAD AND SWAP1 SSTORE STOP JUMPDEST CALLVALUE PUSH2 0x196 JUMPI PUSH1 0x20 CALLDATASIZE PUSH1 0x3 NOT ADD SLT PUSH2 0x196 JUMPI PUSH1 0x4 CALLDATALOAD PUSH1 0x0 MSTORE PUSH1 0x2 PUSH1 0x20 MSTORE PUSH1 0x5 PUSH1 0x40 PUSH1 0x0 KECCAK256 ADD SLOAD PUSH1 0xFF DUP2 AND PUSH1 0x6 DUP2 LT ISZERO PUSH2 0x20F JUMPI PUSH1 0x4 EQ SWAP1 DUP2 PUSH2 0x1755 JUMPI PUSH1 0x20 DUP3 PUSH1 0x40 MLOAD SWAP1 ISZERO ISZERO DUP2 MSTORE RETURN JUMPDEST PUSH6 0xFFFFFFFFFFFF SWAP2 POP PUSH1 0x98 SHR AND PUSH3 0x278D00 DUP2 ADD DUP1 SWAP2 GT PUSH2 0x537 JUMPI TIMESTAMP GT PUSH1 0x20 PUSH2 0x802 JUMP JUMPDEST CALLVALUE PUSH2 0x196 JUMPI PUSH1 0x20 CALLDATASIZE PUSH1 0x3 NOT ADD SLT PUSH2 0x196 JUMPI PUSH1 0x4 CALLDATALOAD PUSH1 0x0 MSTORE PUSH1 0x2 PUSH1 0x20 MSTORE PUSH1 0x40 PUSH1 0x0 KECCAK256 PUSH1 0x1 DUP1 PUSH1 0xA0 SHL SUB DUP2 SLOAD AND PUSH2 0xFF8 PUSH1 0x1 DUP1 PUSH1 0xA0 SHL SUB PUSH1 0x1 DUP5 ADD SLOAD AND SWAP3 PUSH2 0x1875 PUSH1 0x1 DUP1 PUSH1 0xA0 SHL SUB PUSH1 0x2 DUP4 ADD SLOAD AND SWAP2 PUSH6 0xFFFFFFFFFFFF PUSH1 0x1 DUP1 PUSH1 0xA0 SHL SUB PUSH1 0x3 DUP4 ADD SLOAD AND PUSH1 0x4 DUP4 ADD SLOAD PUSH1 0x5 DUP5 ADD SLOAD SWAP2 PUSH2 0x17FC PUSH1 0x7 PUSH2 0x17F5 PUSH1 0x6 DUP9 ADD PUSH2 0x1929 JUMP JUMPDEST SWAP7 ADD PUSH2 0x1929 JUMP JUMPDEST SWAP7 PUSH1 0x40 MLOAD SWAP11 DUP12 SWAP11 DUP12 MSTORE PUSH1 0x20 DUP12 ADD MSTORE PUSH1 0x40 DUP11 ADD MSTORE PUSH1 0x60 DUP10 ADD MSTORE PUSH1 0x80 DUP9 ADD MSTORE PUSH2 0x1829 PUSH1 0xA0 DUP9 ADD PUSH1 0xFF DUP4 AND PUSH2 0x19CD JUMP JUMPDEST DUP2 DUP2 PUSH1 0x8 SHR AND PUSH1 0xC0 DUP9 ADD MSTORE DUP2 DUP2 PUSH1 0x38 SHR AND PUSH1 0xE0 DUP9 ADD MSTORE DUP2 DUP2 PUSH1 0x68 SHR AND PUSH2 0x100 DUP9 ADD MSTORE DUP2 DUP2 PUSH1 0x98 SHR AND PUSH2 0x120 DUP9 ADD MSTORE PUSH1 0xC8 SHR AND PUSH2 0x140 DUP7 ADD MSTORE PUSH2 0x1A0 PUSH2 0x160 DUP7 ADD MSTORE PUSH2 0x1A0 DUP6 ADD SWAP1 PUSH2 0x19DA JUMP JUMPDEST SWAP1 DUP4 DUP3 SUB PUSH2 0x180 DUP6 ADD MSTORE PUSH2 0x19DA JUMP JUMPDEST PUSH1 0x4 CALLDATALOAD SWAP1 PUSH1 0x1 PUSH1 0x1 PUSH1 0xA0 SHL SUB DUP3 AND DUP3 SUB PUSH2 0x196 JUMPI JUMP JUMPDEST PUSH1 0x24 CALLDATALOAD SWAP1 PUSH1 0x1 PUSH1 0x1 PUSH1 0xA0 SHL SUB DUP3 AND DUP3 SUB PUSH2 0x196 JUMPI JUMP JUMPDEST SWAP1 PUSH1 0x1 DUP3 DUP2 SHR SWAP3 AND DUP1 ISZERO PUSH2 0x18E0 JUMPI JUMPDEST PUSH1 0x20 DUP4 LT EQ PUSH2 0x18CA JUMPI JUMP JUMPDEST PUSH4 0x4E487B71 PUSH1 0xE0 SHL PUSH1 0x0 MSTORE PUSH1 0x22 PUSH1 0x4 MSTORE PUSH1 0x24 PUSH1 0x0 REVERT JUMPDEST SWAP2 PUSH1 0x7F AND SWAP2 PUSH2 0x18BF JUMP JUMPDEST PUSH2 0x1A0 DUP2 ADD SWAP1 DUP2 LT PUSH8 0xFFFFFFFFFFFFFFFF DUP3 GT OR PUSH2 0x518 JUMPI PUSH1 0x40 MSTORE JUMP JUMPDEST SWAP1 PUSH1 0x1F DUP1 NOT SWAP2 ADD AND DUP2 ADD SWAP1 DUP2 LT PUSH8 0xFFFFFFFFFFFFFFFF DUP3 GT OR PUSH2 0x518 JUMPI PUSH1 0x40 MSTORE JUMP JUMPDEST SWAP1 PUSH1 0x40 MLOAD SWAP2 DUP3 PUSH1 0x0 DUP3 SLOAD SWAP3 PUSH2 0x193D DUP5 PUSH2 0x18B0 JUMP JUMPDEST DUP1 DUP5 MSTORE SWAP4 PUSH1 0x1 DUP2 AND SWAP1 DUP2 ISZERO PUSH2 0x19AB JUMPI POP PUSH1 0x1 EQ PUSH2 0x1964 JUMPI JUMPDEST POP PUSH2 0x1962 SWAP3 POP SUB DUP4 PUSH2 0x1907 JUMP JUMPDEST JUMP JUMPDEST SWAP1 POP PUSH1 0x0 SWAP3 SWAP2 SWAP3 MSTORE PUSH1 0x20 PUSH1 0x0 KECCAK256 SWAP1 PUSH1 0x0 SWAP2 JUMPDEST DUP2 DUP4 LT PUSH2 0x198F JUMPI POP POP SWAP1 PUSH1 0x20 PUSH2 0x1962 SWAP3 DUP3 ADD ADD CODESIZE PUSH2 0x1955 JUMP JUMPDEST PUSH1 0x20 SWAP2 SWAP4 POP DUP1 PUSH1 0x1 SWAP2 SLOAD DUP4 DUP6 DUP10 ADD ADD MSTORE ADD SWAP2 ADD SWAP1 SWAP2 DUP5 SWAP3 PUSH2 0x1976 JUMP JUMPDEST SWAP1 POP PUSH1 0x20 SWAP3 POP PUSH2 0x1962 SWAP5 SWAP2 POP PUSH1 0xFF NOT AND DUP3 DUP5 ADD MSTORE ISZERO ISZERO PUSH1 0x5 SHL DUP3 ADD ADD CODESIZE PUSH2 0x1955 JUMP JUMPDEST SWAP1 PUSH1 0x6 DUP3 LT ISZERO PUSH2 0x20F JUMPI MSTORE JUMP JUMPDEST SWAP2 SWAP1 DUP3 MLOAD SWAP3 DUP4 DUP3 MSTORE PUSH1 0x0 JUMPDEST DUP5 DUP2 LT PUSH2 0x1A06 JUMPI POP POP DUP3 PUSH1 0x0 PUSH1 0x20 DUP1 SWAP5 SWAP6 DUP5 ADD ADD MSTORE PUSH1 0x1F DUP1 NOT SWAP2 ADD AND ADD ADD SWAP1 JUMP JUMPDEST DUP1 PUSH1 0x20 DUP1 SWAP3 DUP5 ADD ADD MLOAD DUP3 DUP3 DUP7 ADD ADD MSTORE ADD PUSH2 0x19E5 JUMP JUMPDEST SWAP2 DUP2 PUSH1 0x1F DUP5 ADD SLT ISZERO PUSH2 0x196 JUMPI DUP3 CALLDATALOAD SWAP2 PUSH8 0xFFFFFFFFFFFFFFFF DUP4 GT PUSH2 0x196 JUMPI PUSH1 0x20 DUP4 DUP2 DUP7 ADD SWAP6 ADD ADD GT PUSH2 0x196 JUMPI JUMP JUMPDEST SWAP2 SWAP1 DUP3 ADD DUP1 SWAP3 GT PUSH2 0x537 JUMPI JUMP JUMPDEST SWAP2 SWAP1 DUP3 SUB SWAP2 DUP3 GT PUSH2 0x537 JUMPI JUMP JUMPDEST PUSH1 0x2 PUSH1 0x0 SLOAD EQ PUSH2 0x1A74 JUMPI PUSH1 0x2 PUSH1 0x0 SSTORE JUMP JUMPDEST PUSH4 0x3EE5AEB5 PUSH1 0xE0 SHL PUSH1 0x0 MSTORE PUSH1 0x4 PUSH1 0x0 REVERT JUMPDEST DUP3 ISZERO PUSH2 0x621 JUMPI PUSH1 0x1 PUSH1 0x1 PUSH1 0xA0 SHL SUB AND DUP1 PUSH2 0x1B04 JUMPI POP PUSH1 0x0 SWAP2 DUP3 SWAP2 DUP3 SWAP2 DUP3 SWAP2 PUSH1 0x1 PUSH1 0x1 PUSH1 0xA0 SHL SUB AND GAS CALL RETURNDATASIZE ISZERO PUSH2 0x1AFF JUMPI RETURNDATASIZE PUSH8 0xFFFFFFFFFFFFFFFF DUP2 GT PUSH2 0x518 JUMPI PUSH1 0x40 MLOAD SWAP1 PUSH2 0x1ADC PUSH1 0x1F DUP3 ADD PUSH1 0x1F NOT AND PUSH1 0x20 ADD DUP4 PUSH2 0x1907 JUMP JUMPDEST DUP2 MSTORE PUSH1 0x0 PUSH1 0x20 RETURNDATASIZE SWAP3 ADD RETURNDATACOPY JUMPDEST ISZERO PUSH2 0x1AEE JUMPI JUMP JUMPDEST PUSH4 0xDB2C7F1 PUSH1 0xE3 SHL PUSH1 0x0 MSTORE PUSH1 0x4 PUSH1 0x0 REVERT JUMPDEST PUSH2 0x1AE7 JUMP JUMPDEST PUSH1 0x40 MLOAD PUSH4 0xA9059CBB PUSH1 0xE0 SHL PUSH1 0x20 DUP3 ADD MSTORE PUSH1 0x1 PUSH1 0x1 PUSH1 0xA0 SHL SUB SWAP1 SWAP3 AND PUSH1 0x24 DUP4 ADD MSTORE PUSH1 0x44 DUP1 DUP4 ADD SWAP4 SWAP1 SWAP4 MSTORE SWAP2 DUP2 MSTORE PUSH2 0x1962 SWAP2 PUSH2 0x1B3F PUSH1 0x64 DUP4 PUSH2 0x1907 JUMP JUMPDEST PUSH2 0x1C62 JUMP JUMPDEST PUSH1 0x5 DUP1 DUP4 ADD DUP1 SLOAD PUSH1 0xFF NOT AND SWAP1 SWAP2 OR SWAP1 SSTORE PUSH1 0x3 DUP3 ADD SLOAD DUP3 SLOAD PUSH1 0x4 SWAP1 SWAP4 ADD DUP1 SLOAD SWAP3 SWAP4 PUSH32 0xB7C1F9298A18C36AF08BD57EABBFBEB04695F24D0438F67614741EC15FB5C4A9 SWAP4 PUSH1 0x20 SWAP4 PUSH2 0x1B9F SWAP3 PUSH1 0x1 PUSH1 0x1 PUSH1 0xA0 SHL SUB SWAP1 DUP2 AND SWAP2 AND PUSH2 0x1A85 JUMP JUMPDEST SLOAD PUSH1 0x40 MLOAD SWAP1 DUP2 MSTORE LOG2 JUMP JUMPDEST SWAP2 SWAP1 PUSH1 0x4 DUP2 ADD SLOAD SWAP1 PUSH1 0xA DUP3 MUL SWAP2 DUP1 DUP4 DIV PUSH1 0xA EQ DUP2 ISZERO OR ISZERO PUSH2 0x537 JUMPI PUSH32 0x80230996023D69B50793FA73F1919127C9D8E741D3989743C479169F22E7A288 SWAP4 PUSH2 0x1BF7 PUSH2 0x2710 PUSH1 0x20 SWAP6 DIV DUP1 SWAP4 PUSH2 0x1A56 JUMP JUMPDEST SWAP3 PUSH2 0x1C10 DUP5 PUSH1 0x3 DUP4 ADD SWAP4 PUSH1 0x1 DUP1 PUSH1 0xA0 SHL SUB DUP6 SLOAD AND PUSH2 0x1A85 JUMP JUMPDEST DUP3 PUSH2 0x1C22 JUMPI JUMPDEST POP POP POP PUSH1 0x40 MLOAD SWAP1 DUP2 MSTORE LOG2 JUMP JUMPDEST PUSH1 0x2 ADD SLOAD PUSH1 0x1 PUSH1 0x1 PUSH1 0xA0 SHL SUB SWAP1 DUP2 AND PUSH1 0x0 SWAP1 DUP2 MSTORE PUSH1 0x5 DUP7 MSTORE PUSH1 0x40 DUP1 DUP3 KECCAK256 SWAP4 SLOAD SWAP1 SWAP3 AND DUP2 MSTORE SWAP2 DUP6 MSTORE SWAP1 KECCAK256 DUP1 SLOAD SWAP1 SWAP2 PUSH2 0x1C58 SWAP2 PUSH2 0x1A49 JUMP JUMPDEST SWAP1 SSTORE CODESIZE DUP1 DUP1 PUSH2 0x1C16 JUMP JUMPDEST SWAP1 PUSH1 0x0 PUSH1 0x20 SWAP2 DUP3 DUP2 MLOAD SWAP2 ADD DUP3 DUP6 GAS CALL ISZERO PUSH2 0x666 JUMPI PUSH1 0x0 MLOAD RETURNDATASIZE PUSH2 0x1CB4 JUMPI POP PUSH1 0x1 PUSH1 0x1 PUSH1 0xA0 SHL SUB DUP2 AND EXTCODESIZE ISZERO JUMPDEST PUSH2 0x1C93 JUMPI POP JUMP JUMPDEST PUSH4 0x5274AFE7 PUSH1 0xE0 SHL PUSH1 0x0 SWAP1 DUP2 MSTORE PUSH1 0x1 PUSH1 0x1 PUSH1 0xA0 SHL SUB SWAP2 SWAP1 SWAP2 AND PUSH1 0x4 MSTORE PUSH1 0x24 SWAP1 REVERT JUMPDEST PUSH1 0x1 EQ ISZERO PUSH2 0x1C8C JUMP INVALID LOG2 PUSH5 0x6970667358 0x22 SLT KECCAK256 0xDF DELEGATECALL PUSH5 0x883D1EF63D 0xDB PUSH1 0x74 0x2E 0xC7 TIMESTAMP EXTCODECOPY TSTORE PUSH21 0x199F50D4905B46825B18C53F3B802864736F6C6343 STOP ADDMOD SHR STOP CALLER "},"methodIdentifiers":{"AUTO_RELEASE_WINDOW()":"1c8a5249","DISPUTE_TIMEOUT()":"486265c6","FEE_BPS()":"bf333f2c","MIN_ESCROW_AMOUNT()":"8e9856f9","acceptDeal(uint256)":"7d41702e","buyerCancelRequest(uint256)":"4b00c323","canClaimAutoRelease(uint256)":"d1976b08","canClaimDeliveryTimeout(uint256)":"86d6d659","canClaimDisputeTimeout(uint256)":"058127c6","cancelMutualCancelRequest(uint256)":"0bfd5b82","claimAutoRelease(uint256)":"d5f274f2","claimDeliveryTimeout(uint256)":"3212323e","claimDisputeTimeout(uint256)":"b3331db9","claimExpiredRefund(uint256)":"bcfcc8d5","claimRefund(uint256)":"5b7baf64","createEscrow(address,address,uint256,address,string,uint256,uint256)":"e962bf25","escrows(uint256)":"012f52ee","getEscrow(uint256)":"7d19e596","getMutualCancelStatus(uint256)":"a41f130a","getPendingFees(address,address)":"0077c10a","markDelivered(uint256,string)":"5e390580","nextEscrowId()":"89cb29dd","pendingFees(address,address)":"4db15e74","raiseDispute(uint256)":"a5c1674e","rejectDeal(uint256)":"f7074219","release(uint256)":"37bdc99b","requestMutualCancel(uint256)":"a8d883cd","resolveDispute(uint256,address)":"0e33599d","sellerCancelRequest(uint256)":"fd4050f0","withdrawFees(address)":"164e68de"}}}}}