{"contracts/Escrow.sol":{"Escrow":{"abi":[{"inputs":[],"name":"ReentrancyGuardReentrantCall","type":"error"},{"inputs":[{"internalType":"address","name":"token","type":"address"}],"name":"SafeERC20FailedOperation","type":"error"},{"anonymous":false,"inputs":[{"indexed":true,"internalType":"uint256","name":"escrowId","type":"uint256"},{"indexed":false,"internalType":"uint48","name":"deliveryDeadline","type":"uint48"}],"name":"DealAccepted","type":"event"},{"anonymous":false,"inputs":[{"indexed":true,"internalType":"uint256","name":"escrowId","type":"uint256"}],"name":"DeliveryConfirmed","type":"event"},{"anonymous":false,"inputs":[{"indexed":true,"internalType":"uint256","name":"escrowId","type":"uint256"}],"name":"DisputeOpened","type":"event"},{"anonymous":false,"inputs":[{"indexed":true,"internalType":"uint256","name":"escrowId","type":"uint256"},{"indexed":true,"internalType":"address","name":"winner","type":"address"}],"name":"DisputeResolved","type":"event"},{"anonymous":false,"inputs":[{"indexed":true,"internalType":"uint256","name":"escrowId","type":"uint256"},{"indexed":true,"internalType":"address","name":"buyer","type":"address"},{"indexed":true,"internalType":"address","name":"seller","type":"address"},{"indexed":false,"internalType":"uint256","name":"amount","type":"uint256"}],"name":"EscrowCreated","type":"event"},{"anonymous":false,"inputs":[{"indexed":true,"internalType":"address","name":"arbiter","type":"address"},{"indexed":true,"internalType":"address","name":"token","type":"address"},{"indexed":false,"internalType":"uint256","name":"amount","type":"uint256"}],"name":"FeesWithdrawn","type":"event"},{"anonymous":false,"inputs":[{"indexed":true,"internalType":"uint256","name":"escrowId","type":"uint256"},{"indexed":false,"internalType":"uint256","name":"payout","type":"uint256"}],"name":"FundsReleased","type":"event"},{"anonymous":false,"inputs":[{"indexed":true,"internalType":"uint256","name":"escrowId","type":"uint256"}],"name":"MutualCancelCompleted","type":"event"},{"anonymous":false,"inputs":[{"indexed":true,"internalType":"uint256","name":"escrowId","type":"uint256"},{"indexed":true,"internalType":"address","name":"by","type":"address"}],"name":"MutualCancelRequested","type":"event"},{"anonymous":false,"inputs":[{"indexed":true,"internalType":"uint256","name":"escrowId","type":"uint256"},{"indexed":false,"internalType":"uint256","name":"amount","type":"uint256"}],"name":"Refunded","type":"event"},{"inputs":[],"name":"AUTO_RELEASE_WINDOW","outputs":[{"internalType":"uint256","name":"","type":"uint256"}],"stateMutability":"view","type":"function"},{"inputs":[],"name":"DISPUTE_TIMEOUT","outputs":[{"internalType":"uint256","name":"","type":"uint256"}],"stateMutability":"view","type":"function"},{"inputs":[],"name":"FEE_BPS","outputs":[{"internalType":"uint256","name":"","type":"uint256"}],"stateMutability":"view","type":"function"},{"inputs":[],"name":"MIN_ESCROW_AMOUNT","outputs":[{"internalType":"uint256","name":"","type":"uint256"}],"stateMutability":"view","type":"function"},{"inputs":[{"internalType":"uint256","name":"id","type":"uint256"}],"name":"acceptDeal","outputs":[],"stateMutability":"nonpayable","type":"function"},{"inputs":[{"internalType":"uint256","name":"","type":"uint256"}],"name":"buyerCancelRequest","outputs":[{"internalType":"bool","name":"","type":"bool"}],"stateMutability":"view","type":"function"},{"inputs":[{"internalType":"uint256","name":"id","type":"uint256"}],"name":"canClaimAutoRelease","outputs":[{"internalType":"bool","name":"","type":"bool"}],"stateMutability":"view","type":"function"},{"inputs":[{"internalType":"uint256","name":"id","type":"uint256"}],"name":"canClaimDeliveryTimeout","outputs":[{"internalType":"bool","name":"","type":"bool"}],"stateMutability":"view","type":"function"},{"inputs":[{"internalType":"uint256","name":"id","type":"uint256"}],"name":"canClaimDisputeTimeout","outputs":[{"internalType":"bool","name":"","type":"bool"}],"stateMutability":"view","type":"function"},{"inputs":[{"internalType":"uint256","name":"id","type":"uint256"}],"name":"cancelMutualCancelRequest","outputs":[],"stateMutability":"nonpayable","type":"function"},{"inputs":[{"internalType":"uint256","name":"id","type":"uint256"}],"name":"claimAutoRelease","outputs":[],"stateMutability":"nonpayable","type":"function"},{"inputs":[{"internalType":"uint256","name":"id","type":"uint256"}],"name":"claimDeliveryTimeout","outputs":[],"stateMutability":"nonpayable","type":"function"},{"inputs":[{"internalType":"uint256","name":"id","type":"uint256"}],"name":"claimDisputeTimeout","outputs":[],"stateMutability":"nonpayable","type":"function"},{"inputs":[{"internalType":"uint256","name":"id","type":"uint256"}],"name":"claimExpiredRefund","outputs":[],"stateMutability":"nonpayable","type":"function"},{"inputs":[{"internalType":"uint256","name":"id","type":"uint256"}],"name":"claimRefund","outputs":[],"stateMutability":"nonpayable","type":"function"},{"inputs":[{"internalType":"address","name":"seller","type":"address"},{"internalType":"address","name":"arbiter","type":"address"},{"internalType":"uint256","name":"amount","type":"uint256"},{"internalType":"address","name":"token","type":"address"},{"internalType":"string","name":"desc","type":"string"},{"internalType":"uint256","name":"accPeriod","type":"uint256"},{"internalType":"uint256","name":"delPeriod","type":"uint256"}],"name":"createEscrow","outputs":[],"stateMutability":"payable","type":"function"},{"inputs":[{"internalType":"uint256","name":"","type":"uint256"}],"name":"escrows","outputs":[{"internalType":"address","name":"buyer","type":"address"},{"internalType":"address","name":"seller","type":"address"},{"internalType":"address","name":"arbiter","type":"address"},{"internalType":"address","name":"token","type":"address"},{"internalType":"uint256","name":"amount","type":"uint256"},{"internalType":"enum Escrow.State","name":"state","type":"uint8"},{"internalType":"uint48","name":"acceptanceDeadline","type":"uint48"},{"internalType":"uint48","name":"deliveryDeadline","type":"uint48"},{"internalType":"uint48","name":"deliveryTimestamp","type":"uint48"},{"internalType":"uint48","name":"disputeTimestamp","type":"uint48"},{"internalType":"uint48","name":"deliveryPeriod","type":"uint48"},{"internalType":"string","name":"description","type":"string"},{"internalType":"string","name":"proofOfDelivery","type":"string"}],"stateMutability":"view","type":"function"},{"inputs":[{"internalType":"uint256","name":"id","type":"uint256"}],"name":"getEscrow","outputs":[{"components":[{"internalType":"address","name":"buyer","type":"address"},{"internalType":"address","name":"seller","type":"address"},{"internalType":"address","name":"arbiter","type":"address"},{"internalType":"address","name":"token","type":"address"},{"internalType":"uint256","name":"amount","type":"uint256"},{"internalType":"enum Escrow.State","name":"state","type":"uint8"},{"internalType":"uint48","name":"acceptanceDeadline","type":"uint48"},{"internalType":"uint48","name":"deliveryDeadline","type":"uint48"},{"internalType":"uint48","name":"deliveryTimestamp","type":"uint48"},{"internalType":"uint48","name":"disputeTimestamp","type":"uint48"},{"internalType":"uint48","name":"deliveryPeriod","type":"uint48"},{"internalType":"string","name":"description","type":"string"},{"internalType":"string","name":"proofOfDelivery","type":"string"}],"internalType":"struct Escrow.Deal","name":"","type":"tuple"}],"stateMutability":"view","type":"function"},{"inputs":[{"internalType":"uint256","name":"id","type":"uint256"}],"name":"getMutualCancelStatus","outputs":[{"internalType":"bool","name":"","type":"bool"},{"internalType":"bool","name":"","type":"bool"}],"stateMutability":"view","type":"function"},{"inputs":[{"internalType":"address","name":"arbiter","type":"address"},{"internalType":"address","name":"token","type":"address"}],"name":"getPendingFees","outputs":[{"internalType":"uint256","name":"","type":"uint256"}],"stateMutability":"view","type":"function"},{"inputs":[{"internalType":"uint256","name":"id","type":"uint256"},{"internalType":"string","name":"proof","type":"string"}],"name":"markDelivered","outputs":[],"stateMutability":"nonpayable","type":"function"},{"inputs":[],"name":"nextEscrowId","outputs":[{"internalType":"uint256","name":"","type":"uint256"}],"stateMutability":"view","type":"function"},{"inputs":[{"internalType":"address","name":"","type":"address"},{"internalType":"address","name":"","type":"address"}],"name":"pendingFees","outputs":[{"internalType":"uint256","name":"","type":"uint256"}],"stateMutability":"view","type":"function"},{"inputs":[{"internalType":"uint256","name":"id","type":"uint256"}],"name":"raiseDispute","outputs":[],"stateMutability":"nonpayable","type":"function"},{"inputs":[{"internalType":"uint256","name":"id","type":"uint256"}],"name":"rejectDeal","outputs":[],"stateMutability":"nonpayable","type":"function"},{"inputs":[{"internalType":"uint256","name":"id","type":"uint256"}],"name":"release","outputs":[],"stateMutability":"nonpayable","type":"function"},{"inputs":[{"internalType":"uint256","name":"id","type":"uint256"}],"name":"requestMutualCancel","outputs":[],"stateMutability":"nonpayable","type":"function"},{"inputs":[{"internalType":"uint256","name":"id","type":"uint256"},{"internalType":"address","name":"winner","type":"address"}],"name":"resolveDispute","outputs":[],"stateMutability":"nonpayable","type":"function"},{"inputs":[{"internalType":"uint256","name":"","type":"uint256"}],"name":"sellerCancelRequest","outputs":[{"internalType":"bool","name":"","type":"bool"}],"stateMutability":"view","type":"function"},{"inputs":[{"internalType":"address","name":"token","type":"address"}],"name":"withdrawFees","outputs":[],"stateMutability":"nonpayable","type":"function"}],"evm":{"bytecode":{"linkReferences":{},"object":"60808060405234601a57600160005561206790816100208239f35b600080fdfe6080604052600436101561001257600080fd5b60003560e01c806277c10a14611396578063012f52ee1461198b578063058127c6146119205780630bfd5b821461189b5780630e33599d14611648578063164e68de146115605780631c8a5249146115425780633212323e146114cb57806337bdc99b14611436578063486265c6146114185780634b00c323146113e75780634db15e74146113965780635b7baf64146113585780635e3905801461117d5780637d19e59614610f2c5780637d41702e14610e1d57806386d6d65914610dbd57806389cb29dd14610d9f5780638e9856f914610d81578063a41f130a14610d39578063a5c1674e14610c72578063a8d883cd14610b0d578063b3331db914610a57578063bcfcc8d5146109e2578063bf333f2c146109c6578063d1976b081461095a578063d5f274f214610863578063e962bf251461021d578063f70742191461019b5763fd4050f01461016557600080fd5b34610196576020366003190112610196576004356000526004602052602060ff604060002054166040519015158152f35b600080fd5b34610196576020366003190112610196576004356101b7611dce565b80600052600260205260406000206101dc60018060a01b036001830154163314611d5d565b60ff600582015416916006831015610207576101fb6102009315611ce9565b611ec8565b6001600055005b634e487b7160e01b600052602160045260246000fd5b60e036600319011261019657610231611a97565b610239611aad565b90604435906064356001600160a01b038116908190036101965760843567ffffffffffffffff811161019657610273903690600401611c2e565b909160a43560c43594610284611dce565b6001600160a01b03169687151580610851575b1561081d57620f424087106107ec573388146107bb576001600160a01b03169033821415806107b1575b1561077a57851561073e5786836105af5780340361057b576509184e72a00011610536575b6001549560001987146105205760018781018155600088815260026020819052604090912080546001600160a01b031990811633178255928101805484168d179055908101805483169095179094556003840180549091169094179093556004820187905560058201805460ff19168155600693909180610517575061037062278d005b42611c5c565b82547fff000000000000ffffffffffffffffffffffffffffffffffff000000000000ff1660089190911b66ffffffffffff00161760c89190911b65ffffffffffff60c81b16179055019167ffffffffffffffff82116105015781906103d58454611ac3565b601f81116104ae575b50600090601f83116001146104485760009261043d575b50508160011b916000199060031b1c19161790555b6040519182527f9405ad0a6208539879349284d71265479b1623846f70303da1f9890d6e8c10a760203393a46001600055005b0135905086806103f5565b84825260208220925090601f198416815b818110610496575090846001959493921061047c575b505050811b01905561040a565b0135600019600384901b60f8161c1916905586808061046f565b91936020600181928787013581550195019201610459565b909150836000526020600020601f840160051c810191602085106104f7575b90601f859493920160051c01905b8181106104e857506103de565b600081558493506001016104db565b90915081906104cd565b634e487b7160e01b600052604160045260246000fd5b6103709061036a565b634e487b7160e01b600052601160045260246000fd5b60405162461bcd60e51b815260206004820152601b60248201527f45544820746f6f20736d616c6c20286d696e20302e30303030312900000000006044820152606490fd5b60405162461bcd60e51b815260206004820152600c60248201526b08aa89040dad2e6dac2e8c6d60a31b6044820152606490fd5b90965034610710576040516370a0823160e01b815230600482015290602082602481875afa9182156106ce576000926106da575b5061061f90604051906323b872dd60e01b6020830152336024830152306044830152606482015260648152610619608482611b1a565b84611fd6565b6040516370a0823160e01b815230600482015290602082602481875afa80156106ce5760009061069a575b6106549250611ca4565b95620f42408710156102e65760405162461bcd60e51b8152602060048201526012602482015271149958d95a5d9959081d1bdbc81cdb585b1b60721b6044820152606490fd5b506020823d6020116106c6575b816106b460209383611b1a565b8101031261019657610654915161064a565b3d91506106a7565b6040513d6000823e3d90fd5b9091506020813d602011610708575b816106f660209383611b1a565b8101031261019657519061061f6105e3565b3d91506106e9565b60405162461bcd60e51b815260206004820152600660248201526509cde408aa8960d31b6044820152606490fd5b60405162461bcd60e51b8152602060048201526014602482015273139959590819195b1a5d995c9e481c195c9a5bd960621b6044820152606490fd5b60405162461bcd60e51b815260206004820152600f60248201526e2732baba3930b61030b93134ba32b960891b6044820152606490fd5b50878214156102c1565b60405162461bcd60e51b815260206004820152600960248201526814d95b198b5919585b60ba1b6044820152606490fd5b60405162461bcd60e51b8152602060048201526009602482015268151bdbc81cdb585b1b60ba1b6044820152606490fd5b60405162461bcd60e51b815260206004820152600c60248201526b24b73b30b634b21030b2323960a11b6044820152606490fd5b506001600160a01b0381161515610297565b346101965760203660031901126101965760043561087f611dce565b8060005260026020526040600020906005820191825460ff81166006811015610207576002036109255765ffffffffffff9060681c166203f4808101809111610520574211156108f057825460ff19166003179092556001820154610200926001600160a01b039190911691611f2d565b60405162461bcd60e51b815260206004820152600d60248201526c57696e646f772061637469766560981b6044820152606490fd5b60405162461bcd60e51b815260206004820152600d60248201526c139bdd0819195b1a5d995c9959609a1b6044820152606490fd5b3461019657602036600319011261019657600435600052600260205260056040600020015460ff811660068110156102075760021490816109a3575b6020826040519015158152f35b65ffffffffffff915060681c166203f48081018091116105205742116020610996565b34610196576000366003190112610196576020604051600a8152f35b34610196576020366003190112610196576004356109fe611dce565b8060005260026020526040600020610a2060018060a01b038254163314611cb1565b60058101549160ff83169260068410156102075765ffffffffffff6101fb91610a4c6102009615611ce9565b60081c164211611d23565b3461019657602036600319011261019657600435610a73611dce565b8060005260026020526040600020610a9560018060a01b038254163314611cb1565b600581015460ff811690600682101561020757610abb600465ffffffffffff9314611c69565b60981c1662278d00810180911161052057421115610adc5761020091611ec8565b60405162461bcd60e51b8152602060048201526009602482015268546f6f206561726c7960b81b6044820152606490fd5b3461019657602036600319011261019657600435610b29611dce565b806000526002602052604060002060ff600582015416600681101561020757806001610b5e9214908115610c67575b50611ce9565b80546001600160a01b03163314808015610c51575b610b7c90611d96565b15610c33578160005260036020526040600020600160ff198254161790555b33827ff0c15ca4fde757356a9f03d93d4524acee3be5b185aceb8af66ef9f31233b5bb600080a381600052600360205260ff6040600020541680610c1b575b610be5576001600055005b610bef9082611ec8565b7fdfc737cd15a43ad3814036264d6e7f96bbeba4ce40727be8df939ed2a1f671a1600080a28080610200565b5081600052600460205260ff60406000205416610bda565b8160005260046020526040600020600160ff19825416179055610b9b565b5060018201546001600160a01b03163314610b73565b600291501484610b58565b34610196576020366003190112610196576004358060005260026020526005604060002060018060a01b0381541633148015610d23575b610cb290611d96565b0160ff815416600681101561020757806001610cd69214908115610c675750611ce9565b805460ff65ffffffffffff60981b0119164260981b65ffffffffffff60981b161760041790557fed50123fe46d12537dcaae53f33aee1c64bcc9e4f222560f3bae6c0824040dd3600080a2005b5060018101546001600160a01b03163314610ca9565b3461019657602036600319011261019657604060043580600052600360205260ff82600020541690600052600460205260ff8260002054168251911515825215156020820152f35b34610196576000366003190112610196576020604051620f42408152f35b34610196576000366003190112610196576020600154604051908152f35b3461019657602036600319011261019657600435600052600260205260056040600020015460ff8116906006821015610207576001602092149081610e08575b506040519015158152f35b65ffffffffffff915060381c16421182610dfd565b346101965760203660031901126101965760043580600052600260205260056040600020610e5860018060a01b036001830154163314611d5d565b01805460ff811690600682101561020757610e7a65ffffffffffff9215611ce9565b60081c164211610efd5760207f9588f431a8bcf33fe3fe494614a8058ed92b7a6d34aa985fbb5112dd7727c46591600160ff19825416178155805465ffffffffffff60381b610ed465ffffffffffff8360c81c1642611c5c565b60381b169065ffffffffffff60381b19161780915565ffffffffffff6040519160381c168152a2005b60405162461bcd60e51b8152602060048201526007602482015266115e1c1a5c995960ca1b6044820152606490fd5b34610196576020366003190112610196576060610180604051610f4e81611afd565b60008152600060208201526000604082015260008382015260006080820152600060a0820152600060c0820152600060e082015260006101008201526000610120820152600061014082015282610160820152015260043560005260026020526040600020604051610fbf81611afd565b81546001600160a01b039081168252600183015481166020830190815260028401548216604084019081526003850154909216606084019081526004850154608085019081526005860154929592919060a0860160ff8416600681101561020757815260c087018460081c65ffffffffffff16815260e08801918560381c65ffffffffffff1683526101008901938660681c65ffffffffffff1685526101208a01958760981c65ffffffffffff1687526101408b019760c81c65ffffffffffff1688526006890161108f90611b3c565b986101608c01998a526007016110a490611b3c565b6101808c019081526040805160208082529d516001600160a01b039081169e82019e909e529d518d16908e015299518b1660608d01525190991660808b0152975160a08a015296518897906110fd9060c08a0190611be0565b5165ffffffffffff1660e08801525165ffffffffffff166101008701525165ffffffffffff166101208601525165ffffffffffff166101408501525165ffffffffffff166101608401525161018083016101a090526101c0830161116091611bed565b9051828203601f19016101a08401526111799190611bed565b0390f35b346101965760403660031901126101965760043560243567ffffffffffffffff8111610196576111b1903690600401611c2e565b82600093929352600260205260406000206111d960018060a01b036001830154163314611d5d565b600581019060ff825416916006831015610207576111fb600160079414611ce9565b805472ffffffffffff000000000000000000000000ff19164260681b65ffffffffffff60681b16176002179055019067ffffffffffffffff8111610501576112438254611ac3565b601f8111611310575b506000601f82116001146112ad57819293946000926112a2575b50508160011b916000199060031b1c19161790555b7f375b4005eeae25d0e37d56e1b3841d3bb394b277efa2548de3293f5dcb7a3493600080a2005b013590508480611266565b601f198216948382526020822091805b8781106112f85750836001959697106112de575b505050811b01905561127b565b0135600019600384901b60f8161c191690558480806112d1565b909260206001819286860135815501940191016112bd565b826000526020600020601f830160051c8101916020841061134e575b601f0160051c01905b818110611342575061124c565b60008155600101611335565b909150819061132c565b3461019657602036600319011261019657600435611374611dce565b80600052600260205260406000206101dc60018060a01b038254163314611cb1565b34610196576040366003190112610196576113af611a97565b6113b7611aad565b6001600160a01b039182166000908152600560209081526040808320949093168252928352819020549051908152f35b34610196576020366003190112610196576004356000526003602052602060ff604060002054166040519015158152f35b3461019657600036600319011261019657602060405162278d008152f35b3461019657602036600319011261019657600435611452611dce565b80600052600260205260406000209061147560018060a01b038354163314611cb1565b600582019160ff835416926006841015610207576114a184600161020096149081156114c05750611ce9565b805460ff1916600317905560018101546001600160a01b031691611f2d565b600291501486610b58565b34610196576020366003190112610196576004356114e7611dce565b806000526002602052604060002061150960018060a01b038254163314611cb1565b60058101549160ff83169260068410156102075765ffffffffffff6101fb9161153760016102009714611ce9565b60381c164211611d23565b346101965760003660031901126101965760206040516203f4808152f35b3461019657602036600319011261019657611579611a97565b611581611dce565b336000526005602052604060002060018060a01b03821660005260205260406000205490811561161957336000526005602052604060002060018060a01b038216600052602052600060408120556115da823383611df0565b6040519182526001600160a01b03169033907f5e110f8bc8a20b65dcc87f224bdf1cc039346e267118bae2739847f07321ffa890602090a36001600055005b60405162461bcd60e51b81526020600482015260076024820152664e6f206665657360c81b6044820152606490fd5b3461019657604036600319011261019657600435611664611aad565b9061166d611dce565b806000526002602052604060002091600283019260018060a01b03845416330361186857600581019160ff83541660068110156102075760046116b09114611c69565b6001600160a01b03169384156118355781546001600160a01b03168514801561181f575b156117e957600482015492600a8402848104600a14851517156105205761271061170091048095611ca4565b6001840180546001600160a01b031688036117b957825460ff1916600390811790935591840154915461173f926001600160a01b039182169116611df0565b82611774575b5050507ff77ceb5e091d2da041bc760667f9d5fe7a756949eaf29250ad0e60ca6f4c27d9600080a36001600055005b546001600160a01b0390811660009081526005602090815260408083206003909501549093168252929092529020805490916117af91611c5c565b9055828080611745565b50815460ff1916600517909155600383015483546117e492916001600160a01b039182169116611df0565b61173f565b60405162461bcd60e51b815260206004820152600e60248201526d24b73b30b634b2103bb4b73732b960911b6044820152606490fd5b5060018201546001600160a01b031685146116d4565b60405162461bcd60e51b815260206004820152600b60248201526a2d32b937903bb4b73732b960a91b6044820152606490fd5b60405162461bcd60e51b815260206004820152600b60248201526a2737ba1030b93134ba32b960a91b6044820152606490fd5b3461019657602036600319011261019657600435600081815260026020526040902054336001600160a01b03909116036118e7576000908152600360205260409020805460ff19169055005b80600052600260205260018060a01b0360016040600020015416331461190957005b6000526004602052604060002060ff198154169055005b3461019657602036600319011261019657600435600052600260205260056040600020015460ff81166006811015610207576004149081611968576020826040519015158152f35b65ffffffffffff915060981c1662278d0081018091116105205742116020610996565b34610196576020366003190112610196576004356000526002602052604060002060018060a01b0381541661117960018060a01b0360018401541692611a8860018060a01b036002830154169165ffffffffffff60018060a01b036003830154166004830154600584015491611a0f6007611a0860068801611b3c565b9601611b3c565b966040519a8b9a8b5260208b015260408a015260608901526080880152611a3c60a0880160ff8316611be0565b818160081c1660c0880152818160381c1660e0880152818160681c16610100880152818160981c1661012088015260c81c166101408601526101a06101608601526101a0850190611bed565b90838203610180850152611bed565b600435906001600160a01b038216820361019657565b602435906001600160a01b038216820361019657565b90600182811c92168015611af3575b6020831014611add57565b634e487b7160e01b600052602260045260246000fd5b91607f1691611ad2565b6101a0810190811067ffffffffffffffff82111761050157604052565b90601f8019910116810190811067ffffffffffffffff82111761050157604052565b9060405191826000825492611b5084611ac3565b8084529360018116908115611bbe5750600114611b77575b50611b7592500383611b1a565b565b90506000929192526020600020906000915b818310611ba2575050906020611b759282010138611b68565b6020919350806001915483858901015201910190918492611b89565b905060209250611b7594915060ff191682840152151560051b82010138611b68565b9060068210156102075752565b919082519283825260005b848110611c19575050826000602080949584010152601f8019910116010190565b80602080928401015182828601015201611bf8565b9181601f840112156101965782359167ffffffffffffffff8311610196576020838186019501011161019657565b9190820180921161052057565b15611c7057565b60405162461bcd60e51b815260206004820152600c60248201526b139bdd08191a5cdc1d5d195960a21b6044820152606490fd5b9190820391821161052057565b15611cb857565b60405162461bcd60e51b81526020600482015260096024820152682737ba10313abcb2b960b91b6044820152606490fd5b15611cf057565b60405162461bcd60e51b815260206004820152600b60248201526a57726f6e6720737461746560a81b6044820152606490fd5b15611d2a57565b60405162461bcd60e51b815260206004820152600b60248201526a139bdd08195e1c1a5c995960aa1b6044820152606490fd5b15611d6457565b60405162461bcd60e51b815260206004820152600a6024820152692737ba1039b2b63632b960b11b6044820152606490fd5b15611d9d57565b60405162461bcd60e51b81526020600482015260096024820152684e6f7420706172747960b81b6044820152606490fd5b600260005414611ddf576002600055565b633ee5aeb560e01b60005260046000fd5b6001600160a01b031680611e8857506000918291829182916001600160a01b03165af13d15611e83573d67ffffffffffffffff81116105015760405190611e41601f8201601f191660200183611b1a565b8152600060203d92013e5b15611e5357565b60405162461bcd60e51b81526020600482015260086024820152671155120819985a5b60c21b6044820152606490fd5b611e4c565b60405163a9059cbb60e01b60208201526001600160a01b039092166024830152604480830193909352918152611b7591611ec3606483611b1a565b611fd6565b6005808301805460ff19169091179055600382015482546004909301805492937fb7c1f9298a18c36af08bd57eabbfbeb04695f24d0438f67614741ec15fb5c4a993602093611f23926001600160a01b039081169116611df0565b54604051908152a2565b917f80230996023d69b50793fa73f1919127c9d8e741d3989743c479169f22e7a28891602091600482015490611f6b612710600a8402048093611ca4565b92611f8484600383019360018060a01b03855416611df0565b82611f96575b505050604051908152a2565b600201546001600160a01b03908116600090815260058652604080822093549092168152918552902080549091611fcc91611c5c565b9055388080611f8a565b906000602091828151910182855af1156106ce576000513d61202857506001600160a01b0381163b155b6120075750565b635274afe760e01b60009081526001600160a01b0391909116600452602490fd5b6001141561200056fea2646970667358221220e29da22404d2b5f61282471f481f4205a60280612526af90361c1d81054af3f564736f6c634300081c0033","opcodes":"PUSH1 0x80 DUP1 PUSH1 0x40 MSTORE CALLVALUE PUSH1 0x1A JUMPI PUSH1 0x1 PUSH1 0x0 SSTORE PUSH2 0x2067 SWAP1 DUP2 PUSH2 0x20 DUP3 CODECOPY RETURN JUMPDEST PUSH1 0x0 DUP1 REVERT INVALID PUSH1 0x80 PUSH1 0x40 MSTORE PUSH1 0x4 CALLDATASIZE LT ISZERO PUSH2 0x12 JUMPI PUSH1 0x0 DUP1 REVERT JUMPDEST PUSH1 0x0 CALLDATALOAD PUSH1 0xE0 SHR DUP1 PUSH3 0x77C10A EQ PUSH2 0x1396 JUMPI DUP1 PUSH4 0x12F52EE EQ PUSH2 0x198B JUMPI DUP1 PUSH4 0x58127C6 EQ PUSH2 0x1920 JUMPI DUP1 PUSH4 0xBFD5B82 EQ PUSH2 0x189B JUMPI DUP1 PUSH4 0xE33599D EQ PUSH2 0x1648 JUMPI DUP1 PUSH4 0x164E68DE EQ PUSH2 0x1560 JUMPI DUP1 PUSH4 0x1C8A5249 EQ PUSH2 0x1542 JUMPI DUP1 PUSH4 0x3212323E EQ PUSH2 0x14CB JUMPI DUP1 PUSH4 0x37BDC99B EQ PUSH2 0x1436 JUMPI DUP1 PUSH4 0x486265C6 EQ PUSH2 0x1418 JUMPI DUP1 PUSH4 0x4B00C323 EQ PUSH2 0x13E7 JUMPI DUP1 PUSH4 0x4DB15E74 EQ PUSH2 0x1396 JUMPI DUP1 PUSH4 0x5B7BAF64 EQ PUSH2 0x1358 JUMPI DUP1 PUSH4 0x5E390580 EQ PUSH2 0x117D JUMPI DUP1 PUSH4 0x7D19E596 EQ PUSH2 0xF2C JUMPI DUP1 PUSH4 0x7D41702E EQ PUSH2 0xE1D JUMPI DUP1 PUSH4 0x86D6D659 EQ PUSH2 0xDBD JUMPI DUP1 PUSH4 0x89CB29DD EQ PUSH2 0xD9F JUMPI DUP1 PUSH4 0x8E9856F9 EQ PUSH2 0xD81 JUMPI DUP1 PUSH4 0xA41F130A EQ PUSH2 0xD39 JUMPI DUP1 PUSH4 0xA5C1674E EQ PUSH2 0xC72 JUMPI DUP1 PUSH4 0xA8D883CD EQ PUSH2 0xB0D JUMPI DUP1 PUSH4 0xB3331DB9 EQ PUSH2 0xA57 JUMPI DUP1 PUSH4 0xBCFCC8D5 EQ PUSH2 0x9E2 JUMPI DUP1 PUSH4 0xBF333F2C EQ PUSH2 0x9C6 JUMPI DUP1 PUSH4 0xD1976B08 EQ PUSH2 0x95A JUMPI DUP1 PUSH4 0xD5F274F2 EQ PUSH2 0x863 JUMPI DUP1 PUSH4 0xE962BF25 EQ PUSH2 0x21D JUMPI DUP1 PUSH4 0xF7074219 EQ PUSH2 0x19B JUMPI PUSH4 0xFD4050F0 EQ PUSH2 0x165 JUMPI PUSH1 0x0 DUP1 REVERT JUMPDEST CALLVALUE PUSH2 0x196 JUMPI PUSH1 0x20 CALLDATASIZE PUSH1 0x3 NOT ADD SLT PUSH2 0x196 JUMPI PUSH1 0x4 CALLDATALOAD PUSH1 0x0 MSTORE PUSH1 0x4 PUSH1 0x20 MSTORE PUSH1 0x20 PUSH1 0xFF PUSH1 0x40 PUSH1 0x0 KECCAK256 SLOAD AND PUSH1 0x40 MLOAD SWAP1 ISZERO ISZERO DUP2 MSTORE RETURN JUMPDEST PUSH1 0x0 DUP1 REVERT JUMPDEST CALLVALUE PUSH2 0x196 JUMPI PUSH1 0x20 CALLDATASIZE PUSH1 0x3 NOT ADD SLT PUSH2 0x196 JUMPI PUSH1 0x4 CALLDATALOAD PUSH2 0x1B7 PUSH2 0x1DCE JUMP JUMPDEST DUP1 PUSH1 0x0 MSTORE PUSH1 0x2 PUSH1 0x20 MSTORE PUSH1 0x40 PUSH1 0x0 KECCAK256 PUSH2 0x1DC PUSH1 0x1 DUP1 PUSH1 0xA0 SHL SUB PUSH1 0x1 DUP4 ADD SLOAD AND CALLER EQ PUSH2 0x1D5D JUMP JUMPDEST PUSH1 0xFF PUSH1 0x5 DUP3 ADD SLOAD AND SWAP2 PUSH1 0x6 DUP4 LT ISZERO PUSH2 0x207 JUMPI PUSH2 0x1FB PUSH2 0x200 SWAP4 ISZERO PUSH2 0x1CE9 JUMP JUMPDEST PUSH2 0x1EC8 JUMP JUMPDEST PUSH1 0x1 PUSH1 0x0 SSTORE STOP JUMPDEST PUSH4 0x4E487B71 PUSH1 0xE0 SHL PUSH1 0x0 MSTORE PUSH1 0x21 PUSH1 0x4 MSTORE PUSH1 0x24 PUSH1 0x0 REVERT JUMPDEST PUSH1 0xE0 CALLDATASIZE PUSH1 0x3 NOT ADD SLT PUSH2 0x196 JUMPI PUSH2 0x231 PUSH2 0x1A97 JUMP JUMPDEST PUSH2 0x239 PUSH2 0x1AAD JUMP JUMPDEST SWAP1 PUSH1 0x44 CALLDATALOAD SWAP1 PUSH1 0x64 CALLDATALOAD PUSH1 0x1 PUSH1 0x1 PUSH1 0xA0 SHL SUB DUP2 AND SWAP1 DUP2 SWAP1 SUB PUSH2 0x196 JUMPI PUSH1 0x84 CALLDATALOAD PUSH8 0xFFFFFFFFFFFFFFFF DUP2 GT PUSH2 0x196 JUMPI PUSH2 0x273 SWAP1 CALLDATASIZE SWAP1 PUSH1 0x4 ADD PUSH2 0x1C2E JUMP JUMPDEST SWAP1 SWAP2 PUSH1 0xA4 CALLDATALOAD PUSH1 0xC4 CALLDATALOAD SWAP5 PUSH2 0x284 PUSH2 0x1DCE JUMP JUMPDEST PUSH1 0x1 PUSH1 0x1 PUSH1 0xA0 SHL SUB AND SWAP7 DUP8 ISZERO ISZERO DUP1 PUSH2 0x851 JUMPI JUMPDEST ISZERO PUSH2 0x81D JUMPI PUSH3 0xF4240 DUP8 LT PUSH2 0x7EC JUMPI CALLER DUP9 EQ PUSH2 0x7BB JUMPI PUSH1 0x1 PUSH1 0x1 PUSH1 0xA0 SHL SUB AND SWAP1 CALLER DUP3 EQ ISZERO DUP1 PUSH2 0x7B1 JUMPI JUMPDEST ISZERO PUSH2 0x77A JUMPI DUP6 ISZERO PUSH2 0x73E JUMPI DUP7 DUP4 PUSH2 0x5AF JUMPI DUP1 CALLVALUE SUB PUSH2 0x57B JUMPI PUSH6 0x9184E72A000 GT PUSH2 0x536 JUMPI JUMPDEST PUSH1 0x1 SLOAD SWAP6 PUSH1 0x0 NOT DUP8 EQ PUSH2 0x520 JUMPI PUSH1 0x1 DUP8 DUP2 ADD DUP2 SSTORE PUSH1 0x0 DUP9 DUP2 MSTORE PUSH1 0x2 PUSH1 0x20 DUP2 SWAP1 MSTORE PUSH1 0x40 SWAP1 SWAP2 KECCAK256 DUP1 SLOAD PUSH1 0x1 PUSH1 0x1 PUSH1 0xA0 SHL SUB NOT SWAP1 DUP2 AND CALLER OR DUP3 SSTORE SWAP3 DUP2 ADD DUP1 SLOAD DUP5 AND DUP14 OR SWAP1 SSTORE SWAP1 DUP2 ADD DUP1 SLOAD DUP4 AND SWAP1 SWAP6 OR SWAP1 SWAP5 SSTORE PUSH1 0x3 DUP5 ADD DUP1 SLOAD SWAP1 SWAP2 AND SWAP1 SWAP5 OR SWAP1 SWAP4 SSTORE PUSH1 0x4 DUP3 ADD DUP8 SWAP1 SSTORE PUSH1 0x5 DUP3 ADD DUP1 SLOAD PUSH1 0xFF NOT AND DUP2 SSTORE PUSH1 0x6 SWAP4 SWAP1 SWAP2 DUP1 PUSH2 0x517 JUMPI POP PUSH2 0x370 PUSH3 0x278D00 JUMPDEST TIMESTAMP PUSH2 0x1C5C JUMP JUMPDEST DUP3 SLOAD PUSH32 0xFF000000000000FFFFFFFFFFFFFFFFFFFFFFFFFFFFFFFFFFFF000000000000FF AND PUSH1 0x8 SWAP2 SWAP1 SWAP2 SHL PUSH7 0xFFFFFFFFFFFF00 AND OR PUSH1 0xC8 SWAP2 SWAP1 SWAP2 SHL PUSH6 0xFFFFFFFFFFFF PUSH1 0xC8 SHL AND OR SWAP1 SSTORE ADD SWAP2 PUSH8 0xFFFFFFFFFFFFFFFF DUP3 GT PUSH2 0x501 JUMPI DUP2 SWAP1 PUSH2 0x3D5 DUP5 SLOAD PUSH2 0x1AC3 JUMP JUMPDEST PUSH1 0x1F DUP2 GT PUSH2 0x4AE JUMPI JUMPDEST POP PUSH1 0x0 SWAP1 PUSH1 0x1F DUP4 GT PUSH1 0x1 EQ PUSH2 0x448 JUMPI PUSH1 0x0 SWAP3 PUSH2 0x43D JUMPI JUMPDEST POP POP DUP2 PUSH1 0x1 SHL SWAP2 PUSH1 0x0 NOT SWAP1 PUSH1 0x3 SHL SHR NOT AND OR SWAP1 SSTORE JUMPDEST PUSH1 0x40 MLOAD SWAP2 DUP3 MSTORE PUSH32 0x9405AD0A6208539879349284D71265479B1623846F70303DA1F9890D6E8C10A7 PUSH1 0x20 CALLER SWAP4 LOG4 PUSH1 0x1 PUSH1 0x0 SSTORE STOP JUMPDEST ADD CALLDATALOAD SWAP1 POP DUP7 DUP1 PUSH2 0x3F5 JUMP JUMPDEST DUP5 DUP3 MSTORE PUSH1 0x20 DUP3 KECCAK256 SWAP3 POP SWAP1 PUSH1 0x1F NOT DUP5 AND DUP2 JUMPDEST DUP2 DUP2 LT PUSH2 0x496 JUMPI POP SWAP1 DUP5 PUSH1 0x1 SWAP6 SWAP5 SWAP4 SWAP3 LT PUSH2 0x47C JUMPI JUMPDEST POP POP POP DUP2 SHL ADD SWAP1 SSTORE PUSH2 0x40A JUMP JUMPDEST ADD CALLDATALOAD PUSH1 0x0 NOT PUSH1 0x3 DUP5 SWAP1 SHL PUSH1 0xF8 AND SHR NOT AND SWAP1 SSTORE DUP7 DUP1 DUP1 PUSH2 0x46F JUMP JUMPDEST SWAP2 SWAP4 PUSH1 0x20 PUSH1 0x1 DUP2 SWAP3 DUP8 DUP8 ADD CALLDATALOAD DUP2 SSTORE ADD SWAP6 ADD SWAP3 ADD PUSH2 0x459 JUMP JUMPDEST SWAP1 SWAP2 POP DUP4 PUSH1 0x0 MSTORE PUSH1 0x20 PUSH1 0x0 KECCAK256 PUSH1 0x1F DUP5 ADD PUSH1 0x5 SHR DUP2 ADD SWAP2 PUSH1 0x20 DUP6 LT PUSH2 0x4F7 JUMPI JUMPDEST SWAP1 PUSH1 0x1F DUP6 SWAP5 SWAP4 SWAP3 ADD PUSH1 0x5 SHR ADD SWAP1 JUMPDEST DUP2 DUP2 LT PUSH2 0x4E8 JUMPI POP PUSH2 0x3DE JUMP JUMPDEST PUSH1 0x0 DUP2 SSTORE DUP5 SWAP4 POP PUSH1 0x1 ADD PUSH2 0x4DB JUMP JUMPDEST SWAP1 SWAP2 POP DUP2 SWAP1 PUSH2 0x4CD JUMP JUMPDEST PUSH4 0x4E487B71 PUSH1 0xE0 SHL PUSH1 0x0 MSTORE PUSH1 0x41 PUSH1 0x4 MSTORE PUSH1 0x24 PUSH1 0x0 REVERT JUMPDEST PUSH2 0x370 SWAP1 PUSH2 0x36A JUMP JUMPDEST PUSH4 0x4E487B71 PUSH1 0xE0 SHL PUSH1 0x0 MSTORE PUSH1 0x11 PUSH1 0x4 MSTORE PUSH1 0x24 PUSH1 0x0 REVERT JUMPDEST PUSH1 0x40 MLOAD PUSH3 0x461BCD PUSH1 0xE5 SHL DUP2 MSTORE PUSH1 0x20 PUSH1 0x4 DUP3 ADD MSTORE PUSH1 0x1B PUSH1 0x24 DUP3 ADD MSTORE PUSH32 0x45544820746F6F20736D616C6C20286D696E20302E3030303031290000000000 PUSH1 0x44 DUP3 ADD MSTORE PUSH1 0x64 SWAP1 REVERT JUMPDEST PUSH1 0x40 MLOAD PUSH3 0x461BCD PUSH1 0xE5 SHL DUP2 MSTORE PUSH1 0x20 PUSH1 0x4 DUP3 ADD MSTORE PUSH1 0xC PUSH1 0x24 DUP3 ADD MSTORE PUSH12 0x8AA89040DAD2E6DAC2E8C6D PUSH1 0xA3 SHL PUSH1 0x44 DUP3 ADD MSTORE PUSH1 0x64 SWAP1 REVERT JUMPDEST SWAP1 SWAP7 POP CALLVALUE PUSH2 0x710 JUMPI PUSH1 0x40 MLOAD PUSH4 0x70A08231 PUSH1 0xE0 SHL DUP2 MSTORE ADDRESS PUSH1 0x4 DUP3 ADD MSTORE SWAP1 PUSH1 0x20 DUP3 PUSH1 0x24 DUP2 DUP8 GAS STATICCALL SWAP2 DUP3 ISZERO PUSH2 0x6CE JUMPI PUSH1 0x0 SWAP3 PUSH2 0x6DA JUMPI JUMPDEST POP PUSH2 0x61F SWAP1 PUSH1 0x40 MLOAD SWAP1 PUSH4 0x23B872DD PUSH1 0xE0 SHL PUSH1 0x20 DUP4 ADD MSTORE CALLER PUSH1 0x24 DUP4 ADD MSTORE ADDRESS PUSH1 0x44 DUP4 ADD MSTORE PUSH1 0x64 DUP3 ADD MSTORE PUSH1 0x64 DUP2 MSTORE PUSH2 0x619 PUSH1 0x84 DUP3 PUSH2 0x1B1A JUMP JUMPDEST DUP5 PUSH2 0x1FD6 JUMP JUMPDEST PUSH1 0x40 MLOAD PUSH4 0x70A08231 PUSH1 0xE0 SHL DUP2 MSTORE ADDRESS PUSH1 0x4 DUP3 ADD MSTORE SWAP1 PUSH1 0x20 DUP3 PUSH1 0x24 DUP2 DUP8 GAS STATICCALL DUP1 ISZERO PUSH2 0x6CE JUMPI PUSH1 0x0 SWAP1 PUSH2 0x69A JUMPI JUMPDEST PUSH2 0x654 SWAP3 POP PUSH2 0x1CA4 JUMP JUMPDEST SWAP6 PUSH3 0xF4240 DUP8 LT ISZERO PUSH2 0x2E6 JUMPI PUSH1 0x40 MLOAD PUSH3 0x461BCD PUSH1 0xE5 SHL DUP2 MSTORE PUSH1 0x20 PUSH1 0x4 DUP3 ADD MSTORE PUSH1 0x12 PUSH1 0x24 DUP3 ADD MSTORE PUSH18 0x149958D95A5D9959081D1BDBC81CDB585B1B PUSH1 0x72 SHL PUSH1 0x44 DUP3 ADD MSTORE PUSH1 0x64 SWAP1 REVERT JUMPDEST POP PUSH1 0x20 DUP3 RETURNDATASIZE PUSH1 0x20 GT PUSH2 0x6C6 JUMPI JUMPDEST DUP2 PUSH2 0x6B4 PUSH1 0x20 SWAP4 DUP4 PUSH2 0x1B1A JUMP JUMPDEST DUP2 ADD SUB SLT PUSH2 0x196 JUMPI PUSH2 0x654 SWAP2 MLOAD PUSH2 0x64A JUMP JUMPDEST RETURNDATASIZE SWAP2 POP PUSH2 0x6A7 JUMP JUMPDEST PUSH1 0x40 MLOAD RETURNDATASIZE PUSH1 0x0 DUP3 RETURNDATACOPY RETURNDATASIZE SWAP1 REVERT JUMPDEST SWAP1 SWAP2 POP PUSH1 0x20 DUP2 RETURNDATASIZE PUSH1 0x20 GT PUSH2 0x708 JUMPI JUMPDEST DUP2 PUSH2 0x6F6 PUSH1 0x20 SWAP4 DUP4 PUSH2 0x1B1A JUMP JUMPDEST DUP2 ADD SUB SLT PUSH2 0x196 JUMPI MLOAD SWAP1 PUSH2 0x61F PUSH2 0x5E3 JUMP JUMPDEST RETURNDATASIZE SWAP2 POP PUSH2 0x6E9 JUMP JUMPDEST PUSH1 0x40 MLOAD PUSH3 0x461BCD PUSH1 0xE5 SHL DUP2 MSTORE PUSH1 0x20 PUSH1 0x4 DUP3 ADD MSTORE PUSH1 0x6 PUSH1 0x24 DUP3 ADD MSTORE PUSH6 0x9CDE408AA89 PUSH1 0xD3 SHL PUSH1 0x44 DUP3 ADD MSTORE PUSH1 0x64 SWAP1 REVERT JUMPDEST PUSH1 0x40 MLOAD PUSH3 0x461BCD PUSH1 0xE5 SHL DUP2 MSTORE PUSH1 0x20 PUSH1 0x4 DUP3 ADD MSTORE PUSH1 0x14 PUSH1 0x24 DUP3 ADD MSTORE PUSH20 0x139959590819195B1A5D995C9E481C195C9A5BD9 PUSH1 0x62 SHL PUSH1 0x44 DUP3 ADD MSTORE PUSH1 0x64 SWAP1 REVERT JUMPDEST PUSH1 0x40 MLOAD PUSH3 0x461BCD PUSH1 0xE5 SHL DUP2 MSTORE PUSH1 0x20 PUSH1 0x4 DUP3 ADD MSTORE PUSH1 0xF PUSH1 0x24 DUP3 ADD MSTORE PUSH15 0x2732BABA3930B61030B93134BA32B9 PUSH1 0x89 SHL PUSH1 0x44 DUP3 ADD MSTORE PUSH1 0x64 SWAP1 REVERT JUMPDEST POP DUP8 DUP3 EQ ISZERO PUSH2 0x2C1 JUMP JUMPDEST PUSH1 0x40 MLOAD PUSH3 0x461BCD PUSH1 0xE5 SHL DUP2 MSTORE PUSH1 0x20 PUSH1 0x4 DUP3 ADD MSTORE PUSH1 0x9 PUSH1 0x24 DUP3 ADD MSTORE PUSH9 0x14D95B198B5919585B PUSH1 0xBA SHL PUSH1 0x44 DUP3 ADD MSTORE PUSH1 0x64 SWAP1 REVERT JUMPDEST PUSH1 0x40 MLOAD PUSH3 0x461BCD PUSH1 0xE5 SHL DUP2 MSTORE PUSH1 0x20 PUSH1 0x4 DUP3 ADD MSTORE PUSH1 0x9 PUSH1 0x24 DUP3 ADD MSTORE PUSH9 0x151BDBC81CDB585B1B PUSH1 0xBA SHL PUSH1 0x44 DUP3 ADD MSTORE PUSH1 0x64 SWAP1 REVERT JUMPDEST PUSH1 0x40 MLOAD PUSH3 0x461BCD PUSH1 0xE5 SHL DUP2 MSTORE PUSH1 0x20 PUSH1 0x4 DUP3 ADD MSTORE PUSH1 0xC PUSH1 0x24 DUP3 ADD MSTORE PUSH12 0x24B73B30B634B21030B23239 PUSH1 0xA1 SHL PUSH1 0x44 DUP3 ADD MSTORE PUSH1 0x64 SWAP1 REVERT JUMPDEST POP PUSH1 0x1 PUSH1 0x1 PUSH1 0xA0 SHL SUB DUP2 AND ISZERO ISZERO PUSH2 0x297 JUMP JUMPDEST CALLVALUE PUSH2 0x196 JUMPI PUSH1 0x20 CALLDATASIZE PUSH1 0x3 NOT ADD SLT PUSH2 0x196 JUMPI PUSH1 0x4 CALLDATALOAD PUSH2 0x87F PUSH2 0x1DCE JUMP JUMPDEST DUP1 PUSH1 0x0 MSTORE PUSH1 0x2 PUSH1 0x20 MSTORE PUSH1 0x40 PUSH1 0x0 KECCAK256 SWAP1 PUSH1 0x5 DUP3 ADD SWAP2 DUP3 SLOAD PUSH1 0xFF DUP2 AND PUSH1 0x6 DUP2 LT ISZERO PUSH2 0x207 JUMPI PUSH1 0x2 SUB PUSH2 0x925 JUMPI PUSH6 0xFFFFFFFFFFFF SWAP1 PUSH1 0x68 SHR AND PUSH3 0x3F480 DUP2 ADD DUP1 SWAP2 GT PUSH2 0x520 JUMPI TIMESTAMP GT ISZERO PUSH2 0x8F0 JUMPI DUP3 SLOAD PUSH1 0xFF NOT AND PUSH1 0x3 OR SWAP1 SWAP3 SSTORE PUSH1 0x1 DUP3 ADD SLOAD PUSH2 0x200 SWAP3 PUSH1 0x1 PUSH1 0x1 PUSH1 0xA0 SHL SUB SWAP2 SWAP1 SWAP2 AND SWAP2 PUSH2 0x1F2D JUMP JUMPDEST PUSH1 0x40 MLOAD PUSH3 0x461BCD PUSH1 0xE5 SHL DUP2 MSTORE PUSH1 0x20 PUSH1 0x4 DUP3 ADD MSTORE PUSH1 0xD PUSH1 0x24 DUP3 ADD MSTORE PUSH13 0x57696E646F7720616374697665 PUSH1 0x98 SHL PUSH1 0x44 DUP3 ADD MSTORE PUSH1 0x64 SWAP1 REVERT JUMPDEST PUSH1 0x40 MLOAD PUSH3 0x461BCD PUSH1 0xE5 SHL DUP2 MSTORE PUSH1 0x20 PUSH1 0x4 DUP3 ADD MSTORE PUSH1 0xD PUSH1 0x24 DUP3 ADD MSTORE PUSH13 0x139BDD0819195B1A5D995C9959 PUSH1 0x9A SHL PUSH1 0x44 DUP3 ADD MSTORE PUSH1 0x64 SWAP1 REVERT JUMPDEST CALLVALUE PUSH2 0x196 JUMPI PUSH1 0x20 CALLDATASIZE PUSH1 0x3 NOT ADD SLT PUSH2 0x196 JUMPI PUSH1 0x4 CALLDATALOAD PUSH1 0x0 MSTORE PUSH1 0x2 PUSH1 0x20 MSTORE PUSH1 0x5 PUSH1 0x40 PUSH1 0x0 KECCAK256 ADD SLOAD PUSH1 0xFF DUP2 AND PUSH1 0x6 DUP2 LT ISZERO PUSH2 0x207 JUMPI PUSH1 0x2 EQ SWAP1 DUP2 PUSH2 0x9A3 JUMPI JUMPDEST PUSH1 0x20 DUP3 PUSH1 0x40 MLOAD SWAP1 ISZERO ISZERO DUP2 MSTORE RETURN JUMPDEST PUSH6 0xFFFFFFFFFFFF SWAP2 POP PUSH1 0x68 SHR AND PUSH3 0x3F480 DUP2 ADD DUP1 SWAP2 GT PUSH2 0x520 JUMPI TIMESTAMP GT PUSH1 0x20 PUSH2 0x996 JUMP JUMPDEST CALLVALUE PUSH2 0x196 JUMPI PUSH1 0x0 CALLDATASIZE PUSH1 0x3 NOT ADD SLT PUSH2 0x196 JUMPI PUSH1 0x20 PUSH1 0x40 MLOAD PUSH1 0xA DUP2 MSTORE RETURN JUMPDEST CALLVALUE PUSH2 0x196 JUMPI PUSH1 0x20 CALLDATASIZE PUSH1 0x3 NOT ADD SLT PUSH2 0x196 JUMPI PUSH1 0x4 CALLDATALOAD PUSH2 0x9FE PUSH2 0x1DCE JUMP JUMPDEST DUP1 PUSH1 0x0 MSTORE PUSH1 0x2 PUSH1 0x20 MSTORE PUSH1 0x40 PUSH1 0x0 KECCAK256 PUSH2 0xA20 PUSH1 0x1 DUP1 PUSH1 0xA0 SHL SUB DUP3 SLOAD AND CALLER EQ PUSH2 0x1CB1 JUMP JUMPDEST PUSH1 0x5 DUP2 ADD SLOAD SWAP2 PUSH1 0xFF DUP4 AND SWAP3 PUSH1 0x6 DUP5 LT ISZERO PUSH2 0x207 JUMPI PUSH6 0xFFFFFFFFFFFF PUSH2 0x1FB SWAP2 PUSH2 0xA4C PUSH2 0x200 SWAP7 ISZERO PUSH2 0x1CE9 JUMP JUMPDEST PUSH1 0x8 SHR AND TIMESTAMP GT PUSH2 0x1D23 JUMP JUMPDEST CALLVALUE PUSH2 0x196 JUMPI PUSH1 0x20 CALLDATASIZE PUSH1 0x3 NOT ADD SLT PUSH2 0x196 JUMPI PUSH1 0x4 CALLDATALOAD PUSH2 0xA73 PUSH2 0x1DCE JUMP JUMPDEST DUP1 PUSH1 0x0 MSTORE PUSH1 0x2 PUSH1 0x20 MSTORE PUSH1 0x40 PUSH1 0x0 KECCAK256 PUSH2 0xA95 PUSH1 0x1 DUP1 PUSH1 0xA0 SHL SUB DUP3 SLOAD AND CALLER EQ PUSH2 0x1CB1 JUMP JUMPDEST PUSH1 0x5 DUP2 ADD SLOAD PUSH1 0xFF DUP2 AND SWAP1 PUSH1 0x6 DUP3 LT ISZERO PUSH2 0x207 JUMPI PUSH2 0xABB PUSH1 0x4 PUSH6 0xFFFFFFFFFFFF SWAP4 EQ PUSH2 0x1C69 JUMP JUMPDEST PUSH1 0x98 SHR AND PUSH3 0x278D00 DUP2 ADD DUP1 SWAP2 GT PUSH2 0x520 JUMPI TIMESTAMP GT ISZERO PUSH2 0xADC JUMPI PUSH2 0x200 SWAP2 PUSH2 0x1EC8 JUMP JUMPDEST PUSH1 0x40 MLOAD PUSH3 0x461BCD PUSH1 0xE5 SHL DUP2 MSTORE PUSH1 0x20 PUSH1 0x4 DUP3 ADD MSTORE PUSH1 0x9 PUSH1 0x24 DUP3 ADD MSTORE PUSH9 0x546F6F206561726C79 PUSH1 0xB8 SHL PUSH1 0x44 DUP3 ADD MSTORE PUSH1 0x64 SWAP1 REVERT JUMPDEST CALLVALUE PUSH2 0x196 JUMPI PUSH1 0x20 CALLDATASIZE PUSH1 0x3 NOT ADD SLT PUSH2 0x196 JUMPI PUSH1 0x4 CALLDATALOAD PUSH2 0xB29 PUSH2 0x1DCE JUMP JUMPDEST DUP1 PUSH1 0x0 MSTORE PUSH1 0x2 PUSH1 0x20 MSTORE PUSH1 0x40 PUSH1 0x0 KECCAK256 PUSH1 0xFF PUSH1 0x5 DUP3 ADD SLOAD AND PUSH1 0x6 DUP2 LT ISZERO PUSH2 0x207 JUMPI DUP1 PUSH1 0x1 PUSH2 0xB5E SWAP3 EQ SWAP1 DUP2 ISZERO PUSH2 0xC67 JUMPI JUMPDEST POP PUSH2 0x1CE9 JUMP JUMPDEST DUP1 SLOAD PUSH1 0x1 PUSH1 0x1 PUSH1 0xA0 SHL SUB AND CALLER EQ DUP1 DUP1 ISZERO PUSH2 0xC51 JUMPI JUMPDEST PUSH2 0xB7C SWAP1 PUSH2 0x1D96 JUMP JUMPDEST ISZERO PUSH2 0xC33 JUMPI DUP2 PUSH1 0x0 MSTORE PUSH1 0x3 PUSH1 0x20 MSTORE PUSH1 0x40 PUSH1 0x0 KECCAK256 PUSH1 0x1 PUSH1 0xFF NOT DUP3 SLOAD AND OR SWAP1 SSTORE JUMPDEST CALLER DUP3 PUSH32 0xF0C15CA4FDE757356A9F03D93D4524ACEE3BE5B185ACEB8AF66EF9F31233B5BB PUSH1 0x0 DUP1 LOG3 DUP2 PUSH1 0x0 MSTORE PUSH1 0x3 PUSH1 0x20 MSTORE PUSH1 0xFF PUSH1 0x40 PUSH1 0x0 KECCAK256 SLOAD AND DUP1 PUSH2 0xC1B JUMPI JUMPDEST PUSH2 0xBE5 JUMPI PUSH1 0x1 PUSH1 0x0 SSTORE STOP JUMPDEST PUSH2 0xBEF SWAP1 DUP3 PUSH2 0x1EC8 JUMP JUMPDEST PUSH32 0xDFC737CD15A43AD3814036264D6E7F96BBEBA4CE40727BE8DF939ED2A1F671A1 PUSH1 0x0 DUP1 LOG2 DUP1 DUP1 PUSH2 0x200 JUMP JUMPDEST POP DUP2 PUSH1 0x0 MSTORE PUSH1 0x4 PUSH1 0x20 MSTORE PUSH1 0xFF PUSH1 0x40 PUSH1 0x0 KECCAK256 SLOAD AND PUSH2 0xBDA JUMP JUMPDEST DUP2 PUSH1 0x0 MSTORE PUSH1 0x4 PUSH1 0x20 MSTORE PUSH1 0x40 PUSH1 0x0 KECCAK256 PUSH1 0x1 PUSH1 0xFF NOT DUP3 SLOAD AND OR SWAP1 SSTORE PUSH2 0xB9B JUMP JUMPDEST POP PUSH1 0x1 DUP3 ADD SLOAD PUSH1 0x1 PUSH1 0x1 PUSH1 0xA0 SHL SUB AND CALLER EQ PUSH2 0xB73 JUMP JUMPDEST PUSH1 0x2 SWAP2 POP EQ DUP5 PUSH2 0xB58 JUMP JUMPDEST CALLVALUE PUSH2 0x196 JUMPI PUSH1 0x20 CALLDATASIZE PUSH1 0x3 NOT ADD SLT PUSH2 0x196 JUMPI PUSH1 0x4 CALLDATALOAD DUP1 PUSH1 0x0 MSTORE PUSH1 0x2 PUSH1 0x20 MSTORE PUSH1 0x5 PUSH1 0x40 PUSH1 0x0 KECCAK256 PUSH1 0x1 DUP1 PUSH1 0xA0 SHL SUB DUP2 SLOAD AND CALLER EQ DUP1 ISZERO PUSH2 0xD23 JUMPI JUMPDEST PUSH2 0xCB2 SWAP1 PUSH2 0x1D96 JUMP JUMPDEST ADD PUSH1 0xFF DUP2 SLOAD AND PUSH1 0x6 DUP2 LT ISZERO PUSH2 0x207 JUMPI DUP1 PUSH1 0x1 PUSH2 0xCD6 SWAP3 EQ SWAP1 DUP2 ISZERO PUSH2 0xC67 JUMPI POP PUSH2 0x1CE9 JUMP JUMPDEST DUP1 SLOAD PUSH1 0xFF PUSH6 0xFFFFFFFFFFFF PUSH1 0x98 SHL ADD NOT AND TIMESTAMP PUSH1 0x98 SHL PUSH6 0xFFFFFFFFFFFF PUSH1 0x98 SHL AND OR PUSH1 0x4 OR SWAP1 SSTORE PUSH32 0xED50123FE46D12537DCAAE53F33AEE1C64BCC9E4F222560F3BAE6C0824040DD3 PUSH1 0x0 DUP1 LOG2 STOP JUMPDEST POP PUSH1 0x1 DUP2 ADD SLOAD PUSH1 0x1 PUSH1 0x1 PUSH1 0xA0 SHL SUB AND CALLER EQ PUSH2 0xCA9 JUMP JUMPDEST CALLVALUE PUSH2 0x196 JUMPI PUSH1 0x20 CALLDATASIZE PUSH1 0x3 NOT ADD SLT PUSH2 0x196 JUMPI PUSH1 0x40 PUSH1 0x4 CALLDATALOAD DUP1 PUSH1 0x0 MSTORE PUSH1 0x3 PUSH1 0x20 MSTORE PUSH1 0xFF DUP3 PUSH1 0x0 KECCAK256 SLOAD AND SWAP1 PUSH1 0x0 MSTORE PUSH1 0x4 PUSH1 0x20 MSTORE PUSH1 0xFF DUP3 PUSH1 0x0 KECCAK256 SLOAD AND DUP3 MLOAD SWAP2 ISZERO ISZERO DUP3 MSTORE ISZERO ISZERO PUSH1 0x20 DUP3 ADD MSTORE RETURN JUMPDEST CALLVALUE PUSH2 0x196 JUMPI PUSH1 0x0 CALLDATASIZE PUSH1 0x3 NOT ADD SLT PUSH2 0x196 JUMPI PUSH1 0x20 PUSH1 0x40 MLOAD PUSH3 0xF4240 DUP2 MSTORE RETURN JUMPDEST CALLVALUE PUSH2 0x196 JUMPI PUSH1 0x0 CALLDATASIZE PUSH1 0x3 NOT ADD SLT PUSH2 0x196 JUMPI PUSH1 0x20 PUSH1 0x1 SLOAD PUSH1 0x40 MLOAD SWAP1 DUP2 MSTORE RETURN JUMPDEST CALLVALUE PUSH2 0x196 JUMPI PUSH1 0x20 CALLDATASIZE PUSH1 0x3 NOT ADD SLT PUSH2 0x196 JUMPI PUSH1 0x4 CALLDATALOAD PUSH1 0x0 MSTORE PUSH1 0x2 PUSH1 0x20 MSTORE PUSH1 0x5 PUSH1 0x40 PUSH1 0x0 KECCAK256 ADD SLOAD PUSH1 0xFF DUP2 AND SWAP1 PUSH1 0x6 DUP3 LT ISZERO PUSH2 0x207 JUMPI PUSH1 0x1 PUSH1 0x20 SWAP3 EQ SWAP1 DUP2 PUSH2 0xE08 JUMPI JUMPDEST POP PUSH1 0x40 MLOAD SWAP1 ISZERO ISZERO DUP2 MSTORE RETURN JUMPDEST PUSH6 0xFFFFFFFFFFFF SWAP2 POP PUSH1 0x38 SHR AND TIMESTAMP GT DUP3 PUSH2 0xDFD JUMP JUMPDEST CALLVALUE PUSH2 0x196 JUMPI PUSH1 0x20 CALLDATASIZE PUSH1 0x3 NOT ADD SLT PUSH2 0x196 JUMPI PUSH1 0x4 CALLDATALOAD DUP1 PUSH1 0x0 MSTORE PUSH1 0x2 PUSH1 0x20 MSTORE PUSH1 0x5 PUSH1 0x40 PUSH1 0x0 KECCAK256 PUSH2 0xE58 PUSH1 0x1 DUP1 PUSH1 0xA0 SHL SUB PUSH1 0x1 DUP4 ADD SLOAD AND CALLER EQ PUSH2 0x1D5D JUMP JUMPDEST ADD DUP1 SLOAD PUSH1 0xFF DUP2 AND SWAP1 PUSH1 0x6 DUP3 LT ISZERO PUSH2 0x207 JUMPI PUSH2 0xE7A PUSH6 0xFFFFFFFFFFFF SWAP3 ISZERO PUSH2 0x1CE9 JUMP JUMPDEST PUSH1 0x8 SHR AND TIMESTAMP GT PUSH2 0xEFD JUMPI PUSH1 0x20 PUSH32 0x9588F431A8BCF33FE3FE494614A8058ED92B7A6D34AA985FBB5112DD7727C465 SWAP2 PUSH1 0x1 PUSH1 0xFF NOT DUP3 SLOAD AND OR DUP2 SSTORE DUP1 SLOAD PUSH6 0xFFFFFFFFFFFF PUSH1 0x38 SHL PUSH2 0xED4 PUSH6 0xFFFFFFFFFFFF DUP4 PUSH1 0xC8 SHR AND TIMESTAMP PUSH2 0x1C5C JUMP JUMPDEST PUSH1 0x38 SHL AND SWAP1 PUSH6 0xFFFFFFFFFFFF PUSH1 0x38 SHL NOT AND OR DUP1 SWAP2 SSTORE PUSH6 0xFFFFFFFFFFFF PUSH1 0x40 MLOAD SWAP2 PUSH1 0x38 SHR AND DUP2 MSTORE LOG2 STOP JUMPDEST PUSH1 0x40 MLOAD PUSH3 0x461BCD PUSH1 0xE5 SHL DUP2 MSTORE PUSH1 0x20 PUSH1 0x4 DUP3 ADD MSTORE PUSH1 0x7 PUSH1 0x24 DUP3 ADD MSTORE PUSH7 0x115E1C1A5C9959 PUSH1 0xCA SHL PUSH1 0x44 DUP3 ADD MSTORE PUSH1 0x64 SWAP1 REVERT JUMPDEST CALLVALUE PUSH2 0x196 JUMPI PUSH1 0x20 CALLDATASIZE PUSH1 0x3 NOT ADD SLT PUSH2 0x196 JUMPI PUSH1 0x60 PUSH2 0x180 PUSH1 0x40 MLOAD PUSH2 0xF4E DUP2 PUSH2 0x1AFD JUMP JUMPDEST PUSH1 0x0 DUP2 MSTORE PUSH1 0x0 PUSH1 0x20 DUP3 ADD MSTORE PUSH1 0x0 PUSH1 0x40 DUP3 ADD MSTORE PUSH1 0x0 DUP4 DUP3 ADD MSTORE PUSH1 0x0 PUSH1 0x80 DUP3 ADD MSTORE PUSH1 0x0 PUSH1 0xA0 DUP3 ADD MSTORE PUSH1 0x0 PUSH1 0xC0 DUP3 ADD MSTORE PUSH1 0x0 PUSH1 0xE0 DUP3 ADD MSTORE PUSH1 0x0 PUSH2 0x100 DUP3 ADD MSTORE PUSH1 0x0 PUSH2 0x120 DUP3 ADD MSTORE PUSH1 0x0 PUSH2 0x140 DUP3 ADD MSTORE DUP3 PUSH2 0x160 DUP3 ADD MSTORE ADD MSTORE PUSH1 0x4 CALLDATALOAD PUSH1 0x0 MSTORE PUSH1 0x2 PUSH1 0x20 MSTORE PUSH1 0x40 PUSH1 0x0 KECCAK256 PUSH1 0x40 MLOAD PUSH2 0xFBF DUP2 PUSH2 0x1AFD JUMP JUMPDEST DUP2 SLOAD PUSH1 0x1 PUSH1 0x1 PUSH1 0xA0 SHL SUB SWAP1 DUP2 AND DUP3 MSTORE PUSH1 0x1 DUP4 ADD SLOAD DUP2 AND PUSH1 0x20 DUP4 ADD SWAP1 DUP2 MSTORE PUSH1 0x2 DUP5 ADD SLOAD DUP3 AND PUSH1 0x40 DUP5 ADD SWAP1 DUP2 MSTORE PUSH1 0x3 DUP6 ADD SLOAD SWAP1 SWAP3 AND PUSH1 0x60 DUP5 ADD SWAP1 DUP2 MSTORE PUSH1 0x4 DUP6 ADD SLOAD PUSH1 0x80 DUP6 ADD SWAP1 DUP2 MSTORE PUSH1 0x5 DUP7 ADD SLOAD SWAP3 SWAP6 SWAP3 SWAP2 SWAP1 PUSH1 0xA0 DUP7 ADD PUSH1 0xFF DUP5 AND PUSH1 0x6 DUP2 LT ISZERO PUSH2 0x207 JUMPI DUP2 MSTORE PUSH1 0xC0 DUP8 ADD DUP5 PUSH1 0x8 SHR PUSH6 0xFFFFFFFFFFFF AND DUP2 MSTORE PUSH1 0xE0 DUP9 ADD SWAP2 DUP6 PUSH1 0x38 SHR PUSH6 0xFFFFFFFFFFFF AND DUP4 MSTORE PUSH2 0x100 DUP10 ADD SWAP4 DUP7 PUSH1 0x68 SHR PUSH6 0xFFFFFFFFFFFF AND DUP6 MSTORE PUSH2 0x120 DUP11 ADD SWAP6 DUP8 PUSH1 0x98 SHR PUSH6 0xFFFFFFFFFFFF AND DUP8 MSTORE PUSH2 0x140 DUP12 ADD SWAP8 PUSH1 0xC8 SHR PUSH6 0xFFFFFFFFFFFF AND DUP9 MSTORE PUSH1 0x6 DUP10 ADD PUSH2 0x108F SWAP1 PUSH2 0x1B3C JUMP JUMPDEST SWAP9 PUSH2 0x160 DUP13 ADD SWAP10 DUP11 MSTORE PUSH1 0x7 ADD PUSH2 0x10A4 SWAP1 PUSH2 0x1B3C JUMP JUMPDEST PUSH2 0x180 DUP13 ADD SWAP1 DUP2 MSTORE PUSH1 0x40 DUP1 MLOAD PUSH1 0x20 DUP1 DUP3 MSTORE SWAP14 MLOAD PUSH1 0x1 PUSH1 0x1 PUSH1 0xA0 SHL SUB SWAP1 DUP2 AND SWAP15 DUP3 ADD SWAP15 SWAP1 SWAP15 MSTORE SWAP14 MLOAD DUP14 AND SWAP1 DUP15 ADD MSTORE SWAP10 MLOAD DUP12 AND PUSH1 0x60 DUP14 ADD MSTORE MLOAD SWAP1 SWAP10 AND PUSH1 0x80 DUP12 ADD MSTORE SWAP8 MLOAD PUSH1 0xA0 DUP11 ADD MSTORE SWAP7 MLOAD DUP9 SWAP8 SWAP1 PUSH2 0x10FD SWAP1 PUSH1 0xC0 DUP11 ADD SWAP1 PUSH2 0x1BE0 JUMP JUMPDEST MLOAD PUSH6 0xFFFFFFFFFFFF AND PUSH1 0xE0 DUP9 ADD MSTORE MLOAD PUSH6 0xFFFFFFFFFFFF AND PUSH2 0x100 DUP8 ADD MSTORE MLOAD PUSH6 0xFFFFFFFFFFFF AND PUSH2 0x120 DUP7 ADD MSTORE MLOAD PUSH6 0xFFFFFFFFFFFF AND PUSH2 0x140 DUP6 ADD MSTORE MLOAD PUSH6 0xFFFFFFFFFFFF AND PUSH2 0x160 DUP5 ADD MSTORE MLOAD PUSH2 0x180 DUP4 ADD PUSH2 0x1A0 SWAP1 MSTORE PUSH2 0x1C0 DUP4 ADD PUSH2 0x1160 SWAP2 PUSH2 0x1BED JUMP JUMPDEST SWAP1 MLOAD DUP3 DUP3 SUB PUSH1 0x1F NOT ADD PUSH2 0x1A0 DUP5 ADD MSTORE PUSH2 0x1179 SWAP2 SWAP1 PUSH2 0x1BED JUMP JUMPDEST SUB SWAP1 RETURN JUMPDEST CALLVALUE PUSH2 0x196 JUMPI PUSH1 0x40 CALLDATASIZE PUSH1 0x3 NOT ADD SLT PUSH2 0x196 JUMPI PUSH1 0x4 CALLDATALOAD PUSH1 0x24 CALLDATALOAD PUSH8 0xFFFFFFFFFFFFFFFF DUP2 GT PUSH2 0x196 JUMPI PUSH2 0x11B1 SWAP1 CALLDATASIZE SWAP1 PUSH1 0x4 ADD PUSH2 0x1C2E JUMP JUMPDEST DUP3 PUSH1 0x0 SWAP4 SWAP3 SWAP4 MSTORE PUSH1 0x2 PUSH1 0x20 MSTORE PUSH1 0x40 PUSH1 0x0 KECCAK256 PUSH2 0x11D9 PUSH1 0x1 DUP1 PUSH1 0xA0 SHL SUB PUSH1 0x1 DUP4 ADD SLOAD AND CALLER EQ PUSH2 0x1D5D JUMP JUMPDEST PUSH1 0x5 DUP2 ADD SWAP1 PUSH1 0xFF DUP3 SLOAD AND SWAP2 PUSH1 0x6 DUP4 LT ISZERO PUSH2 0x207 JUMPI PUSH2 0x11FB PUSH1 0x1 PUSH1 0x7 SWAP5 EQ PUSH2 0x1CE9 JUMP JUMPDEST DUP1 SLOAD PUSH19 0xFFFFFFFFFFFF000000000000000000000000FF NOT AND TIMESTAMP PUSH1 0x68 SHL PUSH6 0xFFFFFFFFFFFF PUSH1 0x68 SHL AND OR PUSH1 0x2 OR SWAP1 SSTORE ADD SWAP1 PUSH8 0xFFFFFFFFFFFFFFFF DUP2 GT PUSH2 0x501 JUMPI PUSH2 0x1243 DUP3 SLOAD PUSH2 0x1AC3 JUMP JUMPDEST PUSH1 0x1F DUP2 GT PUSH2 0x1310 JUMPI JUMPDEST POP PUSH1 0x0 PUSH1 0x1F DUP3 GT PUSH1 0x1 EQ PUSH2 0x12AD JUMPI DUP2 SWAP3 SWAP4 SWAP5 PUSH1 0x0 SWAP3 PUSH2 0x12A2 JUMPI JUMPDEST POP POP DUP2 PUSH1 0x1 SHL SWAP2 PUSH1 0x0 NOT SWAP1 PUSH1 0x3 SHL SHR NOT AND OR SWAP1 SSTORE JUMPDEST PUSH32 0x375B4005EEAE25D0E37D56E1B3841D3BB394B277EFA2548DE3293F5DCB7A3493 PUSH1 0x0 DUP1 LOG2 STOP JUMPDEST ADD CALLDATALOAD SWAP1 POP DUP5 DUP1 PUSH2 0x1266 JUMP JUMPDEST PUSH1 0x1F NOT DUP3 AND SWAP5 DUP4 DUP3 MSTORE PUSH1 0x20 DUP3 KECCAK256 SWAP2 DUP1 JUMPDEST DUP8 DUP2 LT PUSH2 0x12F8 JUMPI POP DUP4 PUSH1 0x1 SWAP6 SWAP7 SWAP8 LT PUSH2 0x12DE JUMPI JUMPDEST POP POP POP DUP2 SHL ADD SWAP1 SSTORE PUSH2 0x127B JUMP JUMPDEST ADD CALLDATALOAD PUSH1 0x0 NOT PUSH1 0x3 DUP5 SWAP1 SHL PUSH1 0xF8 AND SHR NOT AND SWAP1 SSTORE DUP5 DUP1 DUP1 PUSH2 0x12D1 JUMP JUMPDEST SWAP1 SWAP3 PUSH1 0x20 PUSH1 0x1 DUP2 SWAP3 DUP7 DUP7 ADD CALLDATALOAD DUP2 SSTORE ADD SWAP5 ADD SWAP2 ADD PUSH2 0x12BD JUMP JUMPDEST DUP3 PUSH1 0x0 MSTORE PUSH1 0x20 PUSH1 0x0 KECCAK256 PUSH1 0x1F DUP4 ADD PUSH1 0x5 SHR DUP2 ADD SWAP2 PUSH1 0x20 DUP5 LT PUSH2 0x134E JUMPI JUMPDEST PUSH1 0x1F ADD PUSH1 0x5 SHR ADD SWAP1 JUMPDEST DUP2 DUP2 LT PUSH2 0x1342 JUMPI POP PUSH2 0x124C JUMP JUMPDEST PUSH1 0x0 DUP2 SSTORE PUSH1 0x1 ADD PUSH2 0x1335 JUMP JUMPDEST SWAP1 SWAP2 POP DUP2 SWAP1 PUSH2 0x132C JUMP JUMPDEST CALLVALUE PUSH2 0x196 JUMPI PUSH1 0x20 CALLDATASIZE PUSH1 0x3 NOT ADD SLT PUSH2 0x196 JUMPI PUSH1 0x4 CALLDATALOAD PUSH2 0x1374 PUSH2 0x1DCE JUMP JUMPDEST DUP1 PUSH1 0x0 MSTORE PUSH1 0x2 PUSH1 0x20 MSTORE PUSH1 0x40 PUSH1 0x0 KECCAK256 PUSH2 0x1DC PUSH1 0x1 DUP1 PUSH1 0xA0 SHL SUB DUP3 SLOAD AND CALLER EQ PUSH2 0x1CB1 JUMP JUMPDEST CALLVALUE PUSH2 0x196 JUMPI PUSH1 0x40 CALLDATASIZE PUSH1 0x3 NOT ADD SLT PUSH2 0x196 JUMPI PUSH2 0x13AF PUSH2 0x1A97 JUMP JUMPDEST PUSH2 0x13B7 PUSH2 0x1AAD JUMP JUMPDEST PUSH1 0x1 PUSH1 0x1 PUSH1 0xA0 SHL SUB SWAP2 DUP3 AND PUSH1 0x0 SWAP1 DUP2 MSTORE PUSH1 0x5 PUSH1 0x20 SWAP1 DUP2 MSTORE PUSH1 0x40 DUP1 DUP4 KECCAK256 SWAP5 SWAP1 SWAP4 AND DUP3 MSTORE SWAP3 DUP4 MSTORE DUP2 SWAP1 KECCAK256 SLOAD SWAP1 MLOAD SWAP1 DUP2 MSTORE RETURN JUMPDEST CALLVALUE PUSH2 0x196 JUMPI PUSH1 0x20 CALLDATASIZE PUSH1 0x3 NOT ADD SLT PUSH2 0x196 JUMPI PUSH1 0x4 CALLDATALOAD PUSH1 0x0 MSTORE PUSH1 0x3 PUSH1 0x20 MSTORE PUSH1 0x20 PUSH1 0xFF PUSH1 0x40 PUSH1 0x0 KECCAK256 SLOAD AND PUSH1 0x40 MLOAD SWAP1 ISZERO ISZERO DUP2 MSTORE RETURN JUMPDEST CALLVALUE PUSH2 0x196 JUMPI PUSH1 0x0 CALLDATASIZE PUSH1 0x3 NOT ADD SLT PUSH2 0x196 JUMPI PUSH1 0x20 PUSH1 0x40 MLOAD PUSH3 0x278D00 DUP2 MSTORE RETURN JUMPDEST CALLVALUE PUSH2 0x196 JUMPI PUSH1 0x20 CALLDATASIZE PUSH1 0x3 NOT ADD SLT PUSH2 0x196 JUMPI PUSH1 0x4 CALLDATALOAD PUSH2 0x1452 PUSH2 0x1DCE JUMP JUMPDEST DUP1 PUSH1 0x0 MSTORE PUSH1 0x2 PUSH1 0x20 MSTORE PUSH1 0x40 PUSH1 0x0 KECCAK256 SWAP1 PUSH2 0x1475 PUSH1 0x1 DUP1 PUSH1 0xA0 SHL SUB DUP4 SLOAD AND CALLER EQ PUSH2 0x1CB1 JUMP JUMPDEST PUSH1 0x5 DUP3 ADD SWAP2 PUSH1 0xFF DUP4 SLOAD AND SWAP3 PUSH1 0x6 DUP5 LT ISZERO PUSH2 0x207 JUMPI PUSH2 0x14A1 DUP5 PUSH1 0x1 PUSH2 0x200 SWAP7 EQ SWAP1 DUP2 ISZERO PUSH2 0x14C0 JUMPI POP PUSH2 0x1CE9 JUMP JUMPDEST DUP1 SLOAD PUSH1 0xFF NOT AND PUSH1 0x3 OR SWAP1 SSTORE PUSH1 0x1 DUP2 ADD SLOAD PUSH1 0x1 PUSH1 0x1 PUSH1 0xA0 SHL SUB AND SWAP2 PUSH2 0x1F2D JUMP JUMPDEST PUSH1 0x2 SWAP2 POP EQ DUP7 PUSH2 0xB58 JUMP JUMPDEST CALLVALUE PUSH2 0x196 JUMPI PUSH1 0x20 CALLDATASIZE PUSH1 0x3 NOT ADD SLT PUSH2 0x196 JUMPI PUSH1 0x4 CALLDATALOAD PUSH2 0x14E7 PUSH2 0x1DCE JUMP JUMPDEST DUP1 PUSH1 0x0 MSTORE PUSH1 0x2 PUSH1 0x20 MSTORE PUSH1 0x40 PUSH1 0x0 KECCAK256 PUSH2 0x1509 PUSH1 0x1 DUP1 PUSH1 0xA0 SHL SUB DUP3 SLOAD AND CALLER EQ PUSH2 0x1CB1 JUMP JUMPDEST PUSH1 0x5 DUP2 ADD SLOAD SWAP2 PUSH1 0xFF DUP4 AND SWAP3 PUSH1 0x6 DUP5 LT ISZERO PUSH2 0x207 JUMPI PUSH6 0xFFFFFFFFFFFF PUSH2 0x1FB SWAP2 PUSH2 0x1537 PUSH1 0x1 PUSH2 0x200 SWAP8 EQ PUSH2 0x1CE9 JUMP JUMPDEST PUSH1 0x38 SHR AND TIMESTAMP GT PUSH2 0x1D23 JUMP JUMPDEST CALLVALUE PUSH2 0x196 JUMPI PUSH1 0x0 CALLDATASIZE PUSH1 0x3 NOT ADD SLT PUSH2 0x196 JUMPI PUSH1 0x20 PUSH1 0x40 MLOAD PUSH3 0x3F480 DUP2 MSTORE RETURN JUMPDEST CALLVALUE PUSH2 0x196 JUMPI PUSH1 0x20 CALLDATASIZE PUSH1 0x3 NOT ADD SLT PUSH2 0x196 JUMPI PUSH2 0x1579 PUSH2 0x1A97 JUMP JUMPDEST PUSH2 0x1581 PUSH2 0x1DCE JUMP JUMPDEST CALLER PUSH1 0x0 MSTORE PUSH1 0x5 PUSH1 0x20 MSTORE PUSH1 0x40 PUSH1 0x0 KECCAK256 PUSH1 0x1 DUP1 PUSH1 0xA0 SHL SUB DUP3 AND PUSH1 0x0 MSTORE PUSH1 0x20 MSTORE PUSH1 0x40 PUSH1 0x0 KECCAK256 SLOAD SWAP1 DUP2 ISZERO PUSH2 0x1619 JUMPI CALLER PUSH1 0x0 MSTORE PUSH1 0x5 PUSH1 0x20 MSTORE PUSH1 0x40 PUSH1 0x0 KECCAK256 PUSH1 0x1 DUP1 PUSH1 0xA0 SHL SUB DUP3 AND PUSH1 0x0 MSTORE PUSH1 0x20 MSTORE PUSH1 0x0 PUSH1 0x40 DUP2 KECCAK256 SSTORE PUSH2 0x15DA DUP3 CALLER DUP4 PUSH2 0x1DF0 JUMP JUMPDEST PUSH1 0x40 MLOAD SWAP2 DUP3 MSTORE PUSH1 0x1 PUSH1 0x1 PUSH1 0xA0 SHL SUB AND SWAP1 CALLER SWAP1 PUSH32 0x5E110F8BC8A20B65DCC87F224BDF1CC039346E267118BAE2739847F07321FFA8 SWAP1 PUSH1 0x20 SWAP1 LOG3 PUSH1 0x1 PUSH1 0x0 SSTORE STOP JUMPDEST PUSH1 0x40 MLOAD PUSH3 0x461BCD PUSH1 0xE5 SHL DUP2 MSTORE PUSH1 0x20 PUSH1 0x4 DUP3 ADD MSTORE PUSH1 0x7 PUSH1 0x24 DUP3 ADD MSTORE PUSH7 0x4E6F2066656573 PUSH1 0xC8 SHL PUSH1 0x44 DUP3 ADD MSTORE PUSH1 0x64 SWAP1 REVERT JUMPDEST CALLVALUE PUSH2 0x196 JUMPI PUSH1 0x40 CALLDATASIZE PUSH1 0x3 NOT ADD SLT PUSH2 0x196 JUMPI PUSH1 0x4 CALLDATALOAD PUSH2 0x1664 PUSH2 0x1AAD JUMP JUMPDEST SWAP1 PUSH2 0x166D PUSH2 0x1DCE JUMP JUMPDEST DUP1 PUSH1 0x0 MSTORE PUSH1 0x2 PUSH1 0x20 MSTORE PUSH1 0x40 PUSH1 0x0 KECCAK256 SWAP2 PUSH1 0x2 DUP4 ADD SWAP3 PUSH1 0x1 DUP1 PUSH1 0xA0 SHL SUB DUP5 SLOAD AND CALLER SUB PUSH2 0x1868 JUMPI PUSH1 0x5 DUP2 ADD SWAP2 PUSH1 0xFF DUP4 SLOAD AND PUSH1 0x6 DUP2 LT ISZERO PUSH2 0x207 JUMPI PUSH1 0x4 PUSH2 0x16B0 SWAP2 EQ PUSH2 0x1C69 JUMP JUMPDEST PUSH1 0x1 PUSH1 0x1 PUSH1 0xA0 SHL SUB AND SWAP4 DUP5 ISZERO PUSH2 0x1835 JUMPI DUP2 SLOAD PUSH1 0x1 PUSH1 0x1 PUSH1 0xA0 SHL SUB AND DUP6 EQ DUP1 ISZERO PUSH2 0x181F JUMPI JUMPDEST ISZERO PUSH2 0x17E9 JUMPI PUSH1 0x4 DUP3 ADD SLOAD SWAP3 PUSH1 0xA DUP5 MUL DUP5 DUP2 DIV PUSH1 0xA EQ DUP6 ISZERO OR ISZERO PUSH2 0x520 JUMPI PUSH2 0x2710 PUSH2 0x1700 SWAP2 DIV DUP1 SWAP6 PUSH2 0x1CA4 JUMP JUMPDEST PUSH1 0x1 DUP5 ADD DUP1 SLOAD PUSH1 0x1 PUSH1 0x1 PUSH1 0xA0 SHL SUB AND DUP9 SUB PUSH2 0x17B9 JUMPI DUP3 SLOAD PUSH1 0xFF NOT AND PUSH1 0x3 SWAP1 DUP2 OR SWAP1 SWAP4 SSTORE SWAP2 DUP5 ADD SLOAD SWAP2 SLOAD PUSH2 0x173F SWAP3 PUSH1 0x1 PUSH1 0x1 PUSH1 0xA0 SHL SUB SWAP2 DUP3 AND SWAP2 AND PUSH2 0x1DF0 JUMP JUMPDEST DUP3 PUSH2 0x1774 JUMPI JUMPDEST POP POP POP PUSH32 0xF77CEB5E091D2DA041BC760667F9D5FE7A756949EAF29250AD0E60CA6F4C27D9 PUSH1 0x0 DUP1 LOG3 PUSH1 0x1 PUSH1 0x0 SSTORE STOP JUMPDEST SLOAD PUSH1 0x1 PUSH1 0x1 PUSH1 0xA0 SHL SUB SWAP1 DUP2 AND PUSH1 0x0 SWAP1 DUP2 MSTORE PUSH1 0x5 PUSH1 0x20 SWAP1 DUP2 MSTORE PUSH1 0x40 DUP1 DUP4 KECCAK256 PUSH1 0x3 SWAP1 SWAP6 ADD SLOAD SWAP1 SWAP4 AND DUP3 MSTORE SWAP3 SWAP1 SWAP3 MSTORE SWAP1 KECCAK256 DUP1 SLOAD SWAP1 SWAP2 PUSH2 0x17AF SWAP2 PUSH2 0x1C5C JUMP JUMPDEST SWAP1 SSTORE DUP3 DUP1 DUP1 PUSH2 0x1745 JUMP JUMPDEST POP DUP2 SLOAD PUSH1 0xFF NOT AND PUSH1 0x5 OR SWAP1 SWAP2 SSTORE PUSH1 0x3 DUP4 ADD SLOAD DUP4 SLOAD PUSH2 0x17E4 SWAP3 SWAP2 PUSH1 0x1 PUSH1 0x1 PUSH1 0xA0 SHL SUB SWAP2 DUP3 AND SWAP2 AND PUSH2 0x1DF0 JUMP JUMPDEST PUSH2 0x173F JUMP JUMPDEST PUSH1 0x40 MLOAD PUSH3 0x461BCD PUSH1 0xE5 SHL DUP2 MSTORE PUSH1 0x20 PUSH1 0x4 DUP3 ADD MSTORE PUSH1 0xE PUSH1 0x24 DUP3 ADD MSTORE PUSH14 0x24B73B30B634B2103BB4B73732B9 PUSH1 0x91 SHL PUSH1 0x44 DUP3 ADD MSTORE PUSH1 0x64 SWAP1 REVERT JUMPDEST POP PUSH1 0x1 DUP3 ADD SLOAD PUSH1 0x1 PUSH1 0x1 PUSH1 0xA0 SHL SUB AND DUP6 EQ PUSH2 0x16D4 JUMP JUMPDEST PUSH1 0x40 MLOAD PUSH3 0x461BCD PUSH1 0xE5 SHL DUP2 MSTORE PUSH1 0x20 PUSH1 0x4 DUP3 ADD MSTORE PUSH1 0xB PUSH1 0x24 DUP3 ADD MSTORE PUSH11 0x2D32B937903BB4B73732B9 PUSH1 0xA9 SHL PUSH1 0x44 DUP3 ADD MSTORE PUSH1 0x64 SWAP1 REVERT JUMPDEST PUSH1 0x40 MLOAD PUSH3 0x461BCD PUSH1 0xE5 SHL DUP2 MSTORE PUSH1 0x20 PUSH1 0x4 DUP3 ADD MSTORE PUSH1 0xB PUSH1 0x24 DUP3 ADD MSTORE PUSH11 0x2737BA1030B93134BA32B9 PUSH1 0xA9 SHL PUSH1 0x44 DUP3 ADD MSTORE PUSH1 0x64 SWAP1 REVERT JUMPDEST CALLVALUE PUSH2 0x196 JUMPI PUSH1 0x20 CALLDATASIZE PUSH1 0x3 NOT ADD SLT PUSH2 0x196 JUMPI PUSH1 0x4 CALLDATALOAD PUSH1 0x0 DUP2 DUP2 MSTORE PUSH1 0x2 PUSH1 0x20 MSTORE PUSH1 0x40 SWAP1 KECCAK256 SLOAD CALLER PUSH1 0x1 PUSH1 0x1 PUSH1 0xA0 SHL SUB SWAP1 SWAP2 AND SUB PUSH2 0x18E7 JUMPI PUSH1 0x0 SWAP1 DUP2 MSTORE PUSH1 0x3 PUSH1 0x20 MSTORE PUSH1 0x40 SWAP1 KECCAK256 DUP1 SLOAD PUSH1 0xFF NOT AND SWAP1 SSTORE STOP JUMPDEST DUP1 PUSH1 0x0 MSTORE PUSH1 0x2 PUSH1 0x20 MSTORE PUSH1 0x1 DUP1 PUSH1 0xA0 SHL SUB PUSH1 0x1 PUSH1 0x40 PUSH1 0x0 KECCAK256 ADD SLOAD AND CALLER EQ PUSH2 0x1909 JUMPI STOP JUMPDEST PUSH1 0x0 MSTORE PUSH1 0x4 PUSH1 0x20 MSTORE PUSH1 0x40 PUSH1 0x0 KECCAK256 PUSH1 0xFF NOT DUP2 SLOAD AND SWAP1 SSTORE STOP JUMPDEST CALLVALUE PUSH2 0x196 JUMPI PUSH1 0x20 CALLDATASIZE PUSH1 0x3 NOT ADD SLT PUSH2 0x196 JUMPI PUSH1 0x4 CALLDATALOAD PUSH1 0x0 MSTORE PUSH1 0x2 PUSH1 0x20 MSTORE PUSH1 0x5 PUSH1 0x40 PUSH1 0x0 KECCAK256 ADD SLOAD PUSH1 0xFF DUP2 AND PUSH1 0x6 DUP2 LT ISZERO PUSH2 0x207 JUMPI PUSH1 0x4 EQ SWAP1 DUP2 PUSH2 0x1968 JUMPI PUSH1 0x20 DUP3 PUSH1 0x40 MLOAD SWAP1 ISZERO ISZERO DUP2 MSTORE RETURN JUMPDEST PUSH6 0xFFFFFFFFFFFF SWAP2 POP PUSH1 0x98 SHR AND PUSH3 0x278D00 DUP2 ADD DUP1 SWAP2 GT PUSH2 0x520 JUMPI TIMESTAMP GT PUSH1 0x20 PUSH2 0x996 JUMP JUMPDEST CALLVALUE PUSH2 0x196 JUMPI PUSH1 0x20 CALLDATASIZE PUSH1 0x3 NOT ADD SLT PUSH2 0x196 JUMPI PUSH1 0x4 CALLDATALOAD PUSH1 0x0 MSTORE PUSH1 0x2 PUSH1 0x20 MSTORE PUSH1 0x40 PUSH1 0x0 KECCAK256 PUSH1 0x1 DUP1 PUSH1 0xA0 SHL SUB DUP2 SLOAD AND PUSH2 0x1179 PUSH1 0x1 DUP1 PUSH1 0xA0 SHL SUB PUSH1 0x1 DUP5 ADD SLOAD AND SWAP3 PUSH2 0x1A88 PUSH1 0x1 DUP1 PUSH1 0xA0 SHL SUB PUSH1 0x2 DUP4 ADD SLOAD AND SWAP2 PUSH6 0xFFFFFFFFFFFF PUSH1 0x1 DUP1 PUSH1 0xA0 SHL SUB PUSH1 0x3 DUP4 ADD SLOAD AND PUSH1 0x4 DUP4 ADD SLOAD PUSH1 0x5 DUP5 ADD SLOAD SWAP2 PUSH2 0x1A0F PUSH1 0x7 PUSH2 0x1A08 PUSH1 0x6 DUP9 ADD PUSH2 0x1B3C JUMP JUMPDEST SWAP7 ADD PUSH2 0x1B3C JUMP JUMPDEST SWAP7 PUSH1 0x40 MLOAD SWAP11 DUP12 SWAP11 DUP12 MSTORE PUSH1 0x20 DUP12 ADD MSTORE PUSH1 0x40 DUP11 ADD MSTORE PUSH1 0x60 DUP10 ADD MSTORE PUSH1 0x80 DUP9 ADD MSTORE PUSH2 0x1A3C PUSH1 0xA0 DUP9 ADD PUSH1 0xFF DUP4 AND PUSH2 0x1BE0 JUMP JUMPDEST DUP2 DUP2 PUSH1 0x8 SHR AND PUSH1 0xC0 DUP9 ADD MSTORE DUP2 DUP2 PUSH1 0x38 SHR AND PUSH1 0xE0 DUP9 ADD MSTORE DUP2 DUP2 PUSH1 0x68 SHR AND PUSH2 0x100 DUP9 ADD MSTORE DUP2 DUP2 PUSH1 0x98 SHR AND PUSH2 0x120 DUP9 ADD MSTORE PUSH1 0xC8 SHR AND PUSH2 0x140 DUP7 ADD MSTORE PUSH2 0x1A0 PUSH2 0x160 DUP7 ADD MSTORE PUSH2 0x1A0 DUP6 ADD SWAP1 PUSH2 0x1BED JUMP JUMPDEST SWAP1 DUP4 DUP3 SUB PUSH2 0x180 DUP6 ADD MSTORE PUSH2 0x1BED JUMP JUMPDEST PUSH1 0x4 CALLDATALOAD SWAP1 PUSH1 0x1 PUSH1 0x1 PUSH1 0xA0 SHL SUB DUP3 AND DUP3 SUB PUSH2 0x196 JUMPI JUMP JUMPDEST PUSH1 0x24 CALLDATALOAD SWAP1 PUSH1 0x1 PUSH1 0x1 PUSH1 0xA0 SHL SUB DUP3 AND DUP3 SUB PUSH2 0x196 JUMPI JUMP JUMPDEST SWAP1 PUSH1 0x1 DUP3 DUP2 SHR SWAP3 AND DUP1 ISZERO PUSH2 0x1AF3 JUMPI JUMPDEST PUSH1 0x20 DUP4 LT EQ PUSH2 0x1ADD JUMPI JUMP JUMPDEST PUSH4 0x4E487B71 PUSH1 0xE0 SHL PUSH1 0x0 MSTORE PUSH1 0x22 PUSH1 0x4 MSTORE PUSH1 0x24 PUSH1 0x0 REVERT JUMPDEST SWAP2 PUSH1 0x7F AND SWAP2 PUSH2 0x1AD2 JUMP JUMPDEST PUSH2 0x1A0 DUP2 ADD SWAP1 DUP2 LT PUSH8 0xFFFFFFFFFFFFFFFF DUP3 GT OR PUSH2 0x501 JUMPI PUSH1 0x40 MSTORE JUMP JUMPDEST SWAP1 PUSH1 0x1F DUP1 NOT SWAP2 ADD AND DUP2 ADD SWAP1 DUP2 LT PUSH8 0xFFFFFFFFFFFFFFFF DUP3 GT OR PUSH2 0x501 JUMPI PUSH1 0x40 MSTORE JUMP JUMPDEST SWAP1 PUSH1 0x40 MLOAD SWAP2 DUP3 PUSH1 0x0 DUP3 SLOAD SWAP3 PUSH2 0x1B50 DUP5 PUSH2 0x1AC3 JUMP JUMPDEST DUP1 DUP5 MSTORE SWAP4 PUSH1 0x1 DUP2 AND SWAP1 DUP2 ISZERO PUSH2 0x1BBE JUMPI POP PUSH1 0x1 EQ PUSH2 0x1B77 JUMPI JUMPDEST POP PUSH2 0x1B75 SWAP3 POP SUB DUP4 PUSH2 0x1B1A JUMP JUMPDEST JUMP JUMPDEST SWAP1 POP PUSH1 0x0 SWAP3 SWAP2 SWAP3 MSTORE PUSH1 0x20 PUSH1 0x0 KECCAK256 SWAP1 PUSH1 0x0 SWAP2 JUMPDEST DUP2 DUP4 LT PUSH2 0x1BA2 JUMPI POP POP SWAP1 PUSH1 0x20 PUSH2 0x1B75 SWAP3 DUP3 ADD ADD CODESIZE PUSH2 0x1B68 JUMP JUMPDEST PUSH1 0x20 SWAP2 SWAP4 POP DUP1 PUSH1 0x1 SWAP2 SLOAD DUP4 DUP6 DUP10 ADD ADD MSTORE ADD SWAP2 ADD SWAP1 SWAP2 DUP5 SWAP3 PUSH2 0x1B89 JUMP JUMPDEST SWAP1 POP PUSH1 0x20 SWAP3 POP PUSH2 0x1B75 SWAP5 SWAP2 POP PUSH1 0xFF NOT AND DUP3 DUP5 ADD MSTORE ISZERO ISZERO PUSH1 0x5 SHL DUP3 ADD ADD CODESIZE PUSH2 0x1B68 JUMP JUMPDEST SWAP1 PUSH1 0x6 DUP3 LT ISZERO PUSH2 0x207 JUMPI MSTORE JUMP JUMPDEST SWAP2 SWAP1 DUP3 MLOAD SWAP3 DUP4 DUP3 MSTORE PUSH1 0x0 JUMPDEST DUP5 DUP2 LT PUSH2 0x1C19 JUMPI POP POP DUP3 PUSH1 0x0 PUSH1 0x20 DUP1 SWAP5 SWAP6 DUP5 ADD ADD MSTORE PUSH1 0x1F DUP1 NOT SWAP2 ADD AND ADD ADD SWAP1 JUMP JUMPDEST DUP1 PUSH1 0x20 DUP1 SWAP3 DUP5 ADD ADD MLOAD DUP3 DUP3 DUP7 ADD ADD MSTORE ADD PUSH2 0x1BF8 JUMP JUMPDEST SWAP2 DUP2 PUSH1 0x1F DUP5 ADD SLT ISZERO PUSH2 0x196 JUMPI DUP3 CALLDATALOAD SWAP2 PUSH8 0xFFFFFFFFFFFFFFFF DUP4 GT PUSH2 0x196 JUMPI PUSH1 0x20 DUP4 DUP2 DUP7 ADD SWAP6 ADD ADD GT PUSH2 0x196 JUMPI JUMP JUMPDEST SWAP2 SWAP1 DUP3 ADD DUP1 SWAP3 GT PUSH2 0x520 JUMPI JUMP JUMPDEST ISZERO PUSH2 0x1C70 JUMPI JUMP JUMPDEST PUSH1 0x40 MLOAD PUSH3 0x461BCD PUSH1 0xE5 SHL DUP2 MSTORE PUSH1 0x20 PUSH1 0x4 DUP3 ADD MSTORE PUSH1 0xC PUSH1 0x24 DUP3 ADD MSTORE PUSH12 0x139BDD08191A5CDC1D5D1959 PUSH1 0xA2 SHL PUSH1 0x44 DUP3 ADD MSTORE PUSH1 0x64 SWAP1 REVERT JUMPDEST SWAP2 SWAP1 DUP3 SUB SWAP2 DUP3 GT PUSH2 0x520 JUMPI JUMP JUMPDEST ISZERO PUSH2 0x1CB8 JUMPI JUMP JUMPDEST PUSH1 0x40 MLOAD PUSH3 0x461BCD PUSH1 0xE5 SHL DUP2 MSTORE PUSH1 0x20 PUSH1 0x4 DUP3 ADD MSTORE PUSH1 0x9 PUSH1 0x24 DUP3 ADD MSTORE PUSH9 0x2737BA10313ABCB2B9 PUSH1 0xB9 SHL PUSH1 0x44 DUP3 ADD MSTORE PUSH1 0x64 SWAP1 REVERT JUMPDEST ISZERO PUSH2 0x1CF0 JUMPI JUMP JUMPDEST PUSH1 0x40 MLOAD PUSH3 0x461BCD PUSH1 0xE5 SHL DUP2 MSTORE PUSH1 0x20 PUSH1 0x4 DUP3 ADD MSTORE PUSH1 0xB PUSH1 0x24 DUP3 ADD MSTORE PUSH11 0x57726F6E67207374617465 PUSH1 0xA8 SHL PUSH1 0x44 DUP3 ADD MSTORE PUSH1 0x64 SWAP1 REVERT JUMPDEST ISZERO PUSH2 0x1D2A JUMPI JUMP JUMPDEST PUSH1 0x40 MLOAD PUSH3 0x461BCD PUSH1 0xE5 SHL DUP2 MSTORE PUSH1 0x20 PUSH1 0x4 DUP3 ADD MSTORE PUSH1 0xB PUSH1 0x24 DUP3 ADD MSTORE PUSH11 0x139BDD08195E1C1A5C9959 PUSH1 0xAA SHL PUSH1 0x44 DUP3 ADD MSTORE PUSH1 0x64 SWAP1 REVERT JUMPDEST ISZERO PUSH2 0x1D64 JUMPI JUMP JUMPDEST PUSH1 0x40 MLOAD PUSH3 0x461BCD PUSH1 0xE5 SHL DUP2 MSTORE PUSH1 0x20 PUSH1 0x4 DUP3 ADD MSTORE PUSH1 0xA PUSH1 0x24 DUP3 ADD MSTORE PUSH10 0x2737BA1039B2B63632B9 PUSH1 0xB1 SHL PUSH1 0x44 DUP3 ADD MSTORE PUSH1 0x64 SWAP1 REVERT JUMPDEST ISZERO PUSH2 0x1D9D JUMPI JUMP JUMPDEST PUSH1 0x40 MLOAD PUSH3 0x461BCD PUSH1 0xE5 SHL DUP2 MSTORE PUSH1 0x20 PUSH1 0x4 DUP3 ADD MSTORE PUSH1 0x9 PUSH1 0x24 DUP3 ADD MSTORE PUSH9 0x4E6F74207061727479 PUSH1 0xB8 SHL PUSH1 0x44 DUP3 ADD MSTORE PUSH1 0x64 SWAP1 REVERT JUMPDEST PUSH1 0x2 PUSH1 0x0 SLOAD EQ PUSH2 0x1DDF JUMPI PUSH1 0x2 PUSH1 0x0 SSTORE JUMP JUMPDEST PUSH4 0x3EE5AEB5 PUSH1 0xE0 SHL PUSH1 0x0 MSTORE PUSH1 0x4 PUSH1 0x0 REVERT JUMPDEST PUSH1 0x1 PUSH1 0x1 PUSH1 0xA0 SHL SUB AND DUP1 PUSH2 0x1E88 JUMPI POP PUSH1 0x0 SWAP2 DUP3 SWAP2 DUP3 SWAP2 DUP3 SWAP2 PUSH1 0x1 PUSH1 0x1 PUSH1 0xA0 SHL SUB AND GAS CALL RETURNDATASIZE ISZERO PUSH2 0x1E83 JUMPI RETURNDATASIZE PUSH8 0xFFFFFFFFFFFFFFFF DUP2 GT PUSH2 0x501 JUMPI PUSH1 0x40 MLOAD SWAP1 PUSH2 0x1E41 PUSH1 0x1F DUP3 ADD PUSH1 0x1F NOT AND PUSH1 0x20 ADD DUP4 PUSH2 0x1B1A JUMP JUMPDEST DUP2 MSTORE PUSH1 0x0 PUSH1 0x20 RETURNDATASIZE SWAP3 ADD RETURNDATACOPY JUMPDEST ISZERO PUSH2 0x1E53 JUMPI JUMP JUMPDEST PUSH1 0x40 MLOAD PUSH3 0x461BCD PUSH1 0xE5 SHL DUP2 MSTORE PUSH1 0x20 PUSH1 0x4 DUP3 ADD MSTORE PUSH1 0x8 PUSH1 0x24 DUP3 ADD MSTORE PUSH8 0x1155120819985A5B PUSH1 0xC2 SHL PUSH1 0x44 DUP3 ADD MSTORE PUSH1 0x64 SWAP1 REVERT JUMPDEST PUSH2 0x1E4C JUMP JUMPDEST PUSH1 0x40 MLOAD PUSH4 0xA9059CBB PUSH1 0xE0 SHL PUSH1 0x20 DUP3 ADD MSTORE PUSH1 0x1 PUSH1 0x1 PUSH1 0xA0 SHL SUB SWAP1 SWAP3 AND PUSH1 0x24 DUP4 ADD MSTORE PUSH1 0x44 DUP1 DUP4 ADD SWAP4 SWAP1 SWAP4 MSTORE SWAP2 DUP2 MSTORE PUSH2 0x1B75 SWAP2 PUSH2 0x1EC3 PUSH1 0x64 DUP4 PUSH2 0x1B1A JUMP JUMPDEST PUSH2 0x1FD6 JUMP JUMPDEST PUSH1 0x5 DUP1 DUP4 ADD DUP1 SLOAD PUSH1 0xFF NOT AND SWAP1 SWAP2 OR SWAP1 SSTORE PUSH1 0x3 DUP3 ADD SLOAD DUP3 SLOAD PUSH1 0x4 SWAP1 SWAP4 ADD DUP1 SLOAD SWAP3 SWAP4 PUSH32 0xB7C1F9298A18C36AF08BD57EABBFBEB04695F24D0438F67614741EC15FB5C4A9 SWAP4 PUSH1 0x20 SWAP4 PUSH2 0x1F23 SWAP3 PUSH1 0x1 PUSH1 0x1 PUSH1 0xA0 SHL SUB SWAP1 DUP2 AND SWAP2 AND PUSH2 0x1DF0 JUMP JUMPDEST SLOAD PUSH1 0x40 MLOAD SWAP1 DUP2 MSTORE LOG2 JUMP JUMPDEST SWAP2 PUSH32 0x80230996023D69B50793FA73F1919127C9D8E741D3989743C479169F22E7A288 SWAP2 PUSH1 0x20 SWAP2 PUSH1 0x4 DUP3 ADD SLOAD SWAP1 PUSH2 0x1F6B PUSH2 0x2710 PUSH1 0xA DUP5 MUL DIV DUP1 SWAP4 PUSH2 0x1CA4 JUMP JUMPDEST SWAP3 PUSH2 0x1F84 DUP5 PUSH1 0x3 DUP4 ADD SWAP4 PUSH1 0x1 DUP1 PUSH1 0xA0 SHL SUB DUP6 SLOAD AND PUSH2 0x1DF0 JUMP JUMPDEST DUP3 PUSH2 0x1F96 JUMPI JUMPDEST POP POP POP PUSH1 0x40 MLOAD SWAP1 DUP2 MSTORE LOG2 JUMP JUMPDEST PUSH1 0x2 ADD SLOAD PUSH1 0x1 PUSH1 0x1 PUSH1 0xA0 SHL SUB SWAP1 DUP2 AND PUSH1 0x0 SWAP1 DUP2 MSTORE PUSH1 0x5 DUP7 MSTORE PUSH1 0x40 DUP1 DUP3 KECCAK256 SWAP4 SLOAD SWAP1 SWAP3 AND DUP2 MSTORE SWAP2 DUP6 MSTORE SWAP1 KECCAK256 DUP1 SLOAD SWAP1 SWAP2 PUSH2 0x1FCC SWAP2 PUSH2 0x1C5C JUMP JUMPDEST SWAP1 SSTORE CODESIZE DUP1 DUP1 PUSH2 0x1F8A JUMP JUMPDEST SWAP1 PUSH1 0x0 PUSH1 0x20 SWAP2 DUP3 DUP2 MLOAD SWAP2 ADD DUP3 DUP6 GAS CALL ISZERO PUSH2 0x6CE JUMPI PUSH1 0x0 MLOAD RETURNDATASIZE PUSH2 0x2028 JUMPI POP PUSH1 0x1 PUSH1 0x1 PUSH1 0xA0 SHL SUB DUP2 AND EXTCODESIZE ISZERO JUMPDEST PUSH2 0x2007 JUMPI POP JUMP JUMPDEST PUSH4 0x5274AFE7 PUSH1 0xE0 SHL PUSH1 0x0 SWAP1 DUP2 MSTORE PUSH1 0x1 PUSH1 0x1 PUSH1 0xA0 SHL SUB SWAP2 SWAP1 SWAP2 AND PUSH1 0x4 MSTORE PUSH1 0x24 SWAP1 REVERT JUMPDEST PUSH1 0x1 EQ ISZERO PUSH2 0x2000 JUMP INVALID LOG2 PUSH5 0x6970667358 0x22 SLT KECCAK256 0xE2 SWAP14 LOG2 0x24 DIV 0xD2 0xB5 0xF6 SLT DUP3 SELFBALANCE 0x1F BASEFEE 0x1F TIMESTAMP SDIV 0xA6 MUL DUP1 PUSH2 0x2526 0xAF SWAP1 CALLDATASIZE SHR SAR DUP2 SDIV BLOBBASEFEE RETURN CREATE2 PUSH5 0x736F6C6343 STOP ADDMOD SHR STOP CALLER "},"methodIdentifiers":{"AUTO_RELEASE_WINDOW()":"1c8a5249","DISPUTE_TIMEOUT()":"486265c6","FEE_BPS()":"bf333f2c","MIN_ESCROW_AMOUNT()":"8e9856f9","acceptDeal(uint256)":"7d41702e","buyerCancelRequest(uint256)":"4b00c323","canClaimAutoRelease(uint256)":"d1976b08","canClaimDeliveryTimeout(uint256)":"86d6d659","canClaimDisputeTimeout(uint256)":"058127c6","cancelMutualCancelRequest(uint256)":"0bfd5b82","claimAutoRelease(uint256)":"d5f274f2","claimDeliveryTimeout(uint256)":"3212323e","claimDisputeTimeout(uint256)":"b3331db9","claimExpiredRefund(uint256)":"bcfcc8d5","claimRefund(uint256)":"5b7baf64","createEscrow(address,address,uint256,address,string,uint256,uint256)":"e962bf25","escrows(uint256)":"012f52ee","getEscrow(uint256)":"7d19e596","getMutualCancelStatus(uint256)":"a41f130a","getPendingFees(address,address)":"0077c10a","markDelivered(uint256,string)":"5e390580","nextEscrowId()":"89cb29dd","pendingFees(address,address)":"4db15e74","raiseDispute(uint256)":"a5c1674e","rejectDeal(uint256)":"f7074219","release(uint256)":"37bdc99b","requestMutualCancel(uint256)":"a8d883cd","resolveDispute(uint256,address)":"0e33599d","sellerCancelRequest(uint256)":"fd4050f0","withdrawFees(address)":"164e68de"}}}}}