{
  "_format": "hh-sol-artifact-1",
  "contractName": "Escrow",
  "sourceName": "contracts/Escrow.sol",
  "abi": [
    {
      "inputs": [],
      "name": "ReentrancyGuardReentrantCall",
      "type": "error"
    },
    {
      "inputs": [
        {
          "internalType": "address",
          "name": "token",
          "type": "address"
        }
      ],
      "name": "SafeERC20FailedOperation",
      "type": "error"
    },
    {
      "anonymous": false,
      "inputs": [
        {
          "indexed": true,
          "internalType": "uint256",
          "name": "escrowId",
          "type": "uint256"
        },
        {
          "indexed": false,
          "internalType": "uint48",
          "name": "deliveryDeadline",
          "type": "uint48"
        }
      ],
      "name": "DealAccepted",
      "type": "event"
    },
    {
      "anonymous": false,
      "inputs": [
        {
          "indexed": true,
          "internalType": "uint256",
          "name": "escrowId",
          "type": "uint256"
        }
      ],
      "name": "DeliveryConfirmed",
      "type": "event"
    },
    {
      "anonymous": false,
      "inputs": [
        {
          "indexed": true,
          "internalType": "uint256",
          "name": "escrowId",
          "type": "uint256"
        }
      ],
      "name": "DisputeOpened",
      "type": "event"
    },
    {
      "anonymous": false,
      "inputs": [
        {
          "indexed": true,
          "internalType": "uint256",
          "name": "escrowId",
          "type": "uint256"
        },
        {
          "indexed": true,
          "internalType": "address",
          "name": "winner",
          "type": "address"
        }
      ],
      "name": "DisputeResolved",
      "type": "event"
    },
    {
      "anonymous": false,
      "inputs": [
        {
          "indexed": true,
          "internalType": "uint256",
          "name": "escrowId",
          "type": "uint256"
        },
        {
          "indexed": true,
          "internalType": "address",
          "name": "buyer",
          "type": "address"
        },
        {
          "indexed": true,
          "internalType": "address",
          "name": "seller",
          "type": "address"
        },
        {
          "indexed": false,
          "internalType": "uint256",
          "name": "amount",
          "type": "uint256"
        }
      ],
      "name": "EscrowCreated",
      "type": "event"
    },
    {
      "anonymous": false,
      "inputs": [
        {
          "indexed": true,
          "internalType": "address",
          "name": "arbiter",
          "type": "address"
        },
        {
          "indexed": true,
          "internalType": "address",
          "name": "token",
          "type": "address"
        },
        {
          "indexed": false,
          "internalType": "uint256",
          "name": "amount",
          "type": "uint256"
        }
      ],
      "name": "FeesWithdrawn",
      "type": "event"
    },
    {
      "anonymous": false,
      "inputs": [
        {
          "indexed": true,
          "internalType": "uint256",
          "name": "escrowId",
          "type": "uint256"
        },
        {
          "indexed": false,
          "internalType": "uint256",
          "name": "payout",
          "type": "uint256"
        }
      ],
      "name": "FundsReleased",
      "type": "event"
    },
    {
      "anonymous": false,
      "inputs": [
        {
          "indexed": true,
          "internalType": "uint256",
          "name": "escrowId",
          "type": "uint256"
        }
      ],
      "name": "MutualCancelCompleted",
      "type": "event"
    },
    {
      "anonymous": false,
      "inputs": [
        {
          "indexed": true,
          "internalType": "uint256",
          "name": "escrowId",
          "type": "uint256"
        },
        {
          "indexed": true,
          "internalType": "address",
          "name": "by",
          "type": "address"
        }
      ],
      "name": "MutualCancelRequested",
      "type": "event"
    },
    {
      "anonymous": false,
      "inputs": [
        {
          "indexed": true,
          "internalType": "uint256",
          "name": "escrowId",
          "type": "uint256"
        },
        {
          "indexed": false,
          "internalType": "uint256",
          "name": "amount",
          "type": "uint256"
        }
      ],
      "name": "Refunded",
      "type": "event"
    },
    {
      "inputs": [],
      "name": "AUTO_RELEASE_WINDOW",
      "outputs": [
        {
          "internalType": "uint256",
          "name": "",
          "type": "uint256"
        }
      ],
      "stateMutability": "view",
      "type": "function"
    },
    {
      "inputs": [],
      "name": "DISPUTE_TIMEOUT",
      "outputs": [
        {
          "internalType": "uint256",
          "name": "",
          "type": "uint256"
        }
      ],
      "stateMutability": "view",
      "type": "function"
    },
    {
      "inputs": [],
      "name": "FEE_BPS",
      "outputs": [
        {
          "internalType": "uint256",
          "name": "",
          "type": "uint256"
        }
      ],
      "stateMutability": "view",
      "type": "function"
    },
    {
      "inputs": [],
      "name": "MIN_ESCROW_AMOUNT",
      "outputs": [
        {
          "internalType": "uint256",
          "name": "",
          "type": "uint256"
        }
      ],
      "stateMutability": "view",
      "type": "function"
    },
    {
      "inputs": [
        {
          "internalType": "uint256",
          "name": "id",
          "type": "uint256"
        }
      ],
      "name": "acceptDeal",
      "outputs": [],
      "stateMutability": "nonpayable",
      "type": "function"
    },
    {
      "inputs": [
        {
          "internalType": "uint256",
          "name": "",
          "type": "uint256"
        }
      ],
      "name": "buyerCancelRequest",
      "outputs": [
        {
          "internalType": "bool",
          "name": "",
          "type": "bool"
        }
      ],
      "stateMutability": "view",
      "type": "function"
    },
    {
      "inputs": [
        {
          "internalType": "uint256",
          "name": "id",
          "type": "uint256"
        }
      ],
      "name": "canClaimAutoRelease",
      "outputs": [
        {
          "internalType": "bool",
          "name": "",
          "type": "bool"
        }
      ],
      "stateMutability": "view",
      "type": "function"
    },
    {
      "inputs": [
        {
          "internalType": "uint256",
          "name": "id",
          "type": "uint256"
        }
      ],
      "name": "canClaimDeliveryTimeout",
      "outputs": [
        {
          "internalType": "bool",
          "name": "",
          "type": "bool"
        }
      ],
      "stateMutability": "view",
      "type": "function"
    },
    {
      "inputs": [
        {
          "internalType": "uint256",
          "name": "id",
          "type": "uint256"
        }
      ],
      "name": "canClaimDisputeTimeout",
      "outputs": [
        {
          "internalType": "bool",
          "name": "",
          "type": "bool"
        }
      ],
      "stateMutability": "view",
      "type": "function"
    },
    {
      "inputs": [
        {
          "internalType": "uint256",
          "name": "id",
          "type": "uint256"
        }
      ],
      "name": "cancelMutualCancelRequest",
      "outputs": [],
      "stateMutability": "nonpayable",
      "type": "function"
    },
    {
      "inputs": [
        {
          "internalType": "uint256",
          "name": "id",
          "type": "uint256"
        }
      ],
      "name": "claimAutoRelease",
      "outputs": [],
      "stateMutability": "nonpayable",
      "type": "function"
    },
    {
      "inputs": [
        {
          "internalType": "uint256",
          "name": "id",
          "type": "uint256"
        }
      ],
      "name": "claimDeliveryTimeout",
      "outputs": [],
      "stateMutability": "nonpayable",
      "type": "function"
    },
    {
      "inputs": [
        {
          "internalType": "uint256",
          "name": "id",
          "type": "uint256"
        }
      ],
      "name": "claimDisputeTimeout",
      "outputs": [],
      "stateMutability": "nonpayable",
      "type": "function"
    },
    {
      "inputs": [
        {
          "internalType": "uint256",
          "name": "id",
          "type": "uint256"
        }
      ],
      "name": "claimExpiredRefund",
      "outputs": [],
      "stateMutability": "nonpayable",
      "type": "function"
    },
    {
      "inputs": [
        {
          "internalType": "uint256",
          "name": "id",
          "type": "uint256"
        }
      ],
      "name": "claimRefund",
      "outputs": [],
      "stateMutability": "nonpayable",
      "type": "function"
    },
    {
      "inputs": [
        {
          "internalType": "address",
          "name": "seller",
          "type": "address"
        },
        {
          "internalType": "address",
          "name": "arbiter",
          "type": "address"
        },
        {
          "internalType": "uint256",
          "name": "amount",
          "type": "uint256"
        },
        {
          "internalType": "address",
          "name": "token",
          "type": "address"
        },
        {
          "internalType": "string",
          "name": "desc",
          "type": "string"
        },
        {
          "internalType": "uint256",
          "name": "accPeriod",
          "type": "uint256"
        },
        {
          "internalType": "uint256",
          "name": "delPeriod",
          "type": "uint256"
        }
      ],
      "name": "createEscrow",
      "outputs": [],
      "stateMutability": "payable",
      "type": "function"
    },
    {
      "inputs": [
        {
          "internalType": "uint256",
          "name": "",
          "type": "uint256"
        }
      ],
      "name": "escrows",
      "outputs": [
        {
          "internalType": "address",
          "name": "buyer",
          "type": "address"
        },
        {
          "internalType": "address",
          "name": "seller",
          "type": "address"
        },
        {
          "internalType": "address",
          "name": "arbiter",
          "type": "address"
        },
        {
          "internalType": "address",
          "name": "token",
          "type": "address"
        },
        {
          "internalType": "uint256",
          "name": "amount",
          "type": "uint256"
        },
        {
          "internalType": "enum Escrow.State",
          "name": "state",
          "type": "uint8"
        },
        {
          "internalType": "uint48",
          "name": "acceptanceDeadline",
          "type": "uint48"
        },
        {
          "internalType": "uint48",
          "name": "deliveryDeadline",
          "type": "uint48"
        },
        {
          "internalType": "uint48",
          "name": "deliveryTimestamp",
          "type": "uint48"
        },
        {
          "internalType": "uint48",
          "name": "disputeTimestamp",
          "type": "uint48"
        },
        {
          "internalType": "uint48",
          "name": "deliveryPeriod",
          "type": "uint48"
        },
        {
          "internalType": "string",
          "name": "description",
          "type": "string"
        },
        {
          "internalType": "string",
          "name": "proofOfDelivery",
          "type": "string"
        }
      ],
      "stateMutability": "view",
      "type": "function"
    },
    {
      "inputs": [
        {
          "internalType": "uint256",
          "name": "id",
          "type": "uint256"
        }
      ],
      "name": "getEscrow",
      "outputs": [
        {
          "components": [
            {
              "internalType": "address",
              "name": "buyer",
              "type": "address"
            },
            {
              "internalType": "address",
              "name": "seller",
              "type": "address"
            },
            {
              "internalType": "address",
              "name": "arbiter",
              "type": "address"
            },
            {
              "internalType": "address",
              "name": "token",
              "type": "address"
            },
            {
              "internalType": "uint256",
              "name": "amount",
              "type": "uint256"
            },
            {
              "internalType": "enum Escrow.State",
              "name": "state",
              "type": "uint8"
            },
            {
              "internalType": "uint48",
              "name": "acceptanceDeadline",
              "type": "uint48"
            },
            {
              "internalType": "uint48",
              "name": "deliveryDeadline",
              "type": "uint48"
            },
            {
              "internalType": "uint48",
              "name": "deliveryTimestamp",
              "type": "uint48"
            },
            {
              "internalType": "uint48",
              "name": "disputeTimestamp",
              "type": "uint48"
            },
            {
              "internalType": "uint48",
              "name": "deliveryPeriod",
              "type": "uint48"
            },
            {
              "internalType": "string",
              "name": "description",
              "type": "string"
            },
            {
              "internalType": "string",
              "name": "proofOfDelivery",
              "type": "string"
            }
          ],
          "internalType": "struct Escrow.Deal",
          "name": "",
          "type": "tuple"
        }
      ],
      "stateMutability": "view",
      "type": "function"
    },
    {
      "inputs": [
        {
          "internalType": "uint256",
          "name": "id",
          "type": "uint256"
        }
      ],
      "name": "getMutualCancelStatus",
      "outputs": [
        {
          "internalType": "bool",
          "name": "",
          "type": "bool"
        },
        {
          "internalType": "bool",
          "name": "",
          "type": "bool"
        }
      ],
      "stateMutability": "view",
      "type": "function"
    },
    {
      "inputs": [
        {
          "internalType": "address",
          "name": "arbiter",
          "type": "address"
        },
        {
          "internalType": "address",
          "name": "token",
          "type": "address"
        }
      ],
      "name": "getPendingFees",
      "outputs": [
        {
          "internalType": "uint256",
          "name": "",
          "type": "uint256"
        }
      ],
      "stateMutability": "view",
      "type": "function"
    },
    {
      "inputs": [
        {
          "internalType": "uint256",
          "name": "id",
          "type": "uint256"
        },
        {
          "internalType": "string",
          "name": "proof",
          "type": "string"
        }
      ],
      "name": "markDelivered",
      "outputs": [],
      "stateMutability": "nonpayable",
      "type": "function"
    },
    {
      "inputs": [],
      "name": "nextEscrowId",
      "outputs": [
        {
          "internalType": "uint256",
          "name": "",
          "type": "uint256"
        }
      ],
      "stateMutability": "view",
      "type": "function"
    },
    {
      "inputs": [
        {
          "internalType": "address",
          "name": "",
          "type": "address"
        },
        {
          "internalType": "address",
          "name": "",
          "type": "address"
        }
      ],
      "name": "pendingFees",
      "outputs": [
        {
          "internalType": "uint256",
          "name": "",
          "type": "uint256"
        }
      ],
      "stateMutability": "view",
      "type": "function"
    },
    {
      "inputs": [
        {
          "internalType": "uint256",
          "name": "id",
          "type": "uint256"
        }
      ],
      "name": "raiseDispute",
      "outputs": [],
      "stateMutability": "nonpayable",
      "type": "function"
    },
    {
      "inputs": [
        {
          "internalType": "uint256",
          "name": "id",
          "type": "uint256"
        }
      ],
      "name": "rejectDeal",
      "outputs": [],
      "stateMutability": "nonpayable",
      "type": "function"
    },
    {
      "inputs": [
        {
          "internalType": "uint256",
          "name": "id",
          "type": "uint256"
        }
      ],
      "name": "release",
      "outputs": [],
      "stateMutability": "nonpayable",
      "type": "function"
    },
    {
      "inputs": [
        {
          "internalType": "uint256",
          "name": "id",
          "type": "uint256"
        }
      ],
      "name": "requestMutualCancel",
      "outputs": [],
      "stateMutability": "nonpayable",
      "type": "function"
    },
    {
      "inputs": [
        {
          "internalType": "uint256",
          "name": "id",
          "type": "uint256"
        },
        {
          "internalType": "address",
          "name": "winner",
          "type": "address"
        }
      ],
      "name": "resolveDispute",
      "outputs": [],
      "stateMutability": "nonpayable",
      "type": "function"
    },
    {
      "inputs": [
        {
          "internalType": "uint256",
          "name": "",
          "type": "uint256"
        }
      ],
      "name": "sellerCancelRequest",
      "outputs": [
        {
          "internalType": "bool",
          "name": "",
          "type": "bool"
        }
      ],
      "stateMutability": "view",
      "type": "function"
    },
    {
      "inputs": [
        {
          "internalType": "address",
          "name": "token",
          "type": "address"
        }
      ],
      "name": "withdrawFees",
      "outputs": [],
      "stateMutability": "nonpayable",
      "type": "function"
    }
  ],
  "bytecode": "0x60808060405234601a57600160005561206790816100208239f35b600080fdfe6080604052600436101561001257600080fd5b60003560e01c806277c10a14611396578063012f52ee1461198b578063058127c6146119205780630bfd5b821461189b5780630e33599d14611648578063164e68de146115605780631c8a5249146115425780633212323e146114cb57806337bdc99b14611436578063486265c6146114185780634b00c323146113e75780634db15e74146113965780635b7baf64146113585780635e3905801461117d5780637d19e59614610f2c5780637d41702e14610e1d57806386d6d65914610dbd57806389cb29dd14610d9f5780638e9856f914610d81578063a41f130a14610d39578063a5c1674e14610c72578063a8d883cd14610b0d578063b3331db914610a57578063bcfcc8d5146109e2578063bf333f2c146109c6578063d1976b081461095a578063d5f274f214610863578063e962bf251461021d578063f70742191461019b5763fd4050f01461016557600080fd5b34610196576020366003190112610196576004356000526004602052602060ff604060002054166040519015158152f35b600080fd5b34610196576020366003190112610196576004356101b7611dce565b80600052600260205260406000206101dc60018060a01b036001830154163314611d5d565b60ff600582015416916006831015610207576101fb6102009315611ce9565b611ec8565b6001600055005b634e487b7160e01b600052602160045260246000fd5b60e036600319011261019657610231611a97565b610239611aad565b90604435906064356001600160a01b038116908190036101965760843567ffffffffffffffff811161019657610273903690600401611c2e565b909160a43560c43594610284611dce565b6001600160a01b03169687151580610851575b1561081d57620f424087106107ec573388146107bb576001600160a01b03169033821415806107b1575b1561077a57851561073e5786836105af5780340361057b576509184e72a00011610536575b6001549560001987146105205760018781018155600088815260026020819052604090912080546001600160a01b031990811633178255928101805484168d179055908101805483169095179094556003840180549091169094179093556004820187905560058201805460ff19168155600693909180610517575061037062278d005b42611c5c565b82547fff000000000000ffffffffffffffffffffffffffffffffffff000000000000ff1660089190911b66ffffffffffff00161760c89190911b65ffffffffffff60c81b16179055019167ffffffffffffffff82116105015781906103d58454611ac3565b601f81116104ae575b50600090601f83116001146104485760009261043d575b50508160011b916000199060031b1c19161790555b6040519182527f9405ad0a6208539879349284d71265479b1623846f70303da1f9890d6e8c10a760203393a46001600055005b0135905086806103f5565b84825260208220925090601f198416815b818110610496575090846001959493921061047c575b505050811b01905561040a565b0135600019600384901b60f8161c1916905586808061046f565b91936020600181928787013581550195019201610459565b909150836000526020600020601f840160051c810191602085106104f7575b90601f859493920160051c01905b8181106104e857506103de565b600081558493506001016104db565b90915081906104cd565b634e487b7160e01b600052604160045260246000fd5b6103709061036a565b634e487b7160e01b600052601160045260246000fd5b60405162461bcd60e51b815260206004820152601b60248201527f45544820746f6f20736d616c6c20286d696e20302e30303030312900000000006044820152606490fd5b60405162461bcd60e51b815260206004820152600c60248201526b08aa89040dad2e6dac2e8c6d60a31b6044820152606490fd5b90965034610710576040516370a0823160e01b815230600482015290602082602481875afa9182156106ce576000926106da575b5061061f90604051906323b872dd60e01b6020830152336024830152306044830152606482015260648152610619608482611b1a565b84611fd6565b6040516370a0823160e01b815230600482015290602082602481875afa80156106ce5760009061069a575b6106549250611ca4565b95620f42408710156102e65760405162461bcd60e51b8152602060048201526012602482015271149958d95a5d9959081d1bdbc81cdb585b1b60721b6044820152606490fd5b506020823d6020116106c6575b816106b460209383611b1a565b8101031261019657610654915161064a565b3d91506106a7565b6040513d6000823e3d90fd5b9091506020813d602011610708575b816106f660209383611b1a565b8101031261019657519061061f6105e3565b3d91506106e9565b60405162461bcd60e51b815260206004820152600660248201526509cde408aa8960d31b6044820152606490fd5b60405162461bcd60e51b8152602060048201526014602482015273139959590819195b1a5d995c9e481c195c9a5bd960621b6044820152606490fd5b60405162461bcd60e51b815260206004820152600f60248201526e2732baba3930b61030b93134ba32b960891b6044820152606490fd5b50878214156102c1565b60405162461bcd60e51b815260206004820152600960248201526814d95b198b5919585b60ba1b6044820152606490fd5b60405162461bcd60e51b8152602060048201526009602482015268151bdbc81cdb585b1b60ba1b6044820152606490fd5b60405162461bcd60e51b815260206004820152600c60248201526b24b73b30b634b21030b2323960a11b6044820152606490fd5b506001600160a01b0381161515610297565b346101965760203660031901126101965760043561087f611dce565b8060005260026020526040600020906005820191825460ff81166006811015610207576002036109255765ffffffffffff9060681c166203f4808101809111610520574211156108f057825460ff19166003179092556001820154610200926001600160a01b039190911691611f2d565b60405162461bcd60e51b815260206004820152600d60248201526c57696e646f772061637469766560981b6044820152606490fd5b60405162461bcd60e51b815260206004820152600d60248201526c139bdd0819195b1a5d995c9959609a1b6044820152606490fd5b3461019657602036600319011261019657600435600052600260205260056040600020015460ff811660068110156102075760021490816109a3575b6020826040519015158152f35b65ffffffffffff915060681c166203f48081018091116105205742116020610996565b34610196576000366003190112610196576020604051600a8152f35b34610196576020366003190112610196576004356109fe611dce565b8060005260026020526040600020610a2060018060a01b038254163314611cb1565b60058101549160ff83169260068410156102075765ffffffffffff6101fb91610a4c6102009615611ce9565b60081c164211611d23565b3461019657602036600319011261019657600435610a73611dce565b8060005260026020526040600020610a9560018060a01b038254163314611cb1565b600581015460ff811690600682101561020757610abb600465ffffffffffff9314611c69565b60981c1662278d00810180911161052057421115610adc5761020091611ec8565b60405162461bcd60e51b8152602060048201526009602482015268546f6f206561726c7960b81b6044820152606490fd5b3461019657602036600319011261019657600435610b29611dce565b806000526002602052604060002060ff600582015416600681101561020757806001610b5e9214908115610c67575b50611ce9565b80546001600160a01b03163314808015610c51575b610b7c90611d96565b15610c33578160005260036020526040600020600160ff198254161790555b33827ff0c15ca4fde757356a9f03d93d4524acee3be5b185aceb8af66ef9f31233b5bb600080a381600052600360205260ff6040600020541680610c1b575b610be5576001600055005b610bef9082611ec8565b7fdfc737cd15a43ad3814036264d6e7f96bbeba4ce40727be8df939ed2a1f671a1600080a28080610200565b5081600052600460205260ff60406000205416610bda565b8160005260046020526040600020600160ff19825416179055610b9b565b5060018201546001600160a01b03163314610b73565b600291501484610b58565b34610196576020366003190112610196576004358060005260026020526005604060002060018060a01b0381541633148015610d23575b610cb290611d96565b0160ff815416600681101561020757806001610cd69214908115610c675750611ce9565b805460ff65ffffffffffff60981b0119164260981b65ffffffffffff60981b161760041790557fed50123fe46d12537dcaae53f33aee1c64bcc9e4f222560f3bae6c0824040dd3600080a2005b5060018101546001600160a01b03163314610ca9565b3461019657602036600319011261019657604060043580600052600360205260ff82600020541690600052600460205260ff8260002054168251911515825215156020820152f35b34610196576000366003190112610196576020604051620f42408152f35b34610196576000366003190112610196576020600154604051908152f35b3461019657602036600319011261019657600435600052600260205260056040600020015460ff8116906006821015610207576001602092149081610e08575b506040519015158152f35b65ffffffffffff915060381c16421182610dfd565b346101965760203660031901126101965760043580600052600260205260056040600020610e5860018060a01b036001830154163314611d5d565b01805460ff811690600682101561020757610e7a65ffffffffffff9215611ce9565b60081c164211610efd5760207f9588f431a8bcf33fe3fe494614a8058ed92b7a6d34aa985fbb5112dd7727c46591600160ff19825416178155805465ffffffffffff60381b610ed465ffffffffffff8360c81c1642611c5c565b60381b169065ffffffffffff60381b19161780915565ffffffffffff6040519160381c168152a2005b60405162461bcd60e51b8152602060048201526007602482015266115e1c1a5c995960ca1b6044820152606490fd5b34610196576020366003190112610196576060610180604051610f4e81611afd565b60008152600060208201526000604082015260008382015260006080820152600060a0820152600060c0820152600060e082015260006101008201526000610120820152600061014082015282610160820152015260043560005260026020526040600020604051610fbf81611afd565b81546001600160a01b039081168252600183015481166020830190815260028401548216604084019081526003850154909216606084019081526004850154608085019081526005860154929592919060a0860160ff8416600681101561020757815260c087018460081c65ffffffffffff16815260e08801918560381c65ffffffffffff1683526101008901938660681c65ffffffffffff1685526101208a01958760981c65ffffffffffff1687526101408b019760c81c65ffffffffffff1688526006890161108f90611b3c565b986101608c01998a526007016110a490611b3c565b6101808c019081526040805160208082529d516001600160a01b039081169e82019e909e529d518d16908e015299518b1660608d01525190991660808b0152975160a08a015296518897906110fd9060c08a0190611be0565b5165ffffffffffff1660e08801525165ffffffffffff166101008701525165ffffffffffff166101208601525165ffffffffffff166101408501525165ffffffffffff166101608401525161018083016101a090526101c0830161116091611bed565b9051828203601f19016101a08401526111799190611bed565b0390f35b346101965760403660031901126101965760043560243567ffffffffffffffff8111610196576111b1903690600401611c2e565b82600093929352600260205260406000206111d960018060a01b036001830154163314611d5d565b600581019060ff825416916006831015610207576111fb600160079414611ce9565b805472ffffffffffff000000000000000000000000ff19164260681b65ffffffffffff60681b16176002179055019067ffffffffffffffff8111610501576112438254611ac3565b601f8111611310575b506000601f82116001146112ad57819293946000926112a2575b50508160011b916000199060031b1c19161790555b7f375b4005eeae25d0e37d56e1b3841d3bb394b277efa2548de3293f5dcb7a3493600080a2005b013590508480611266565b601f198216948382526020822091805b8781106112f85750836001959697106112de575b505050811b01905561127b565b0135600019600384901b60f8161c191690558480806112d1565b909260206001819286860135815501940191016112bd565b826000526020600020601f830160051c8101916020841061134e575b601f0160051c01905b818110611342575061124c565b60008155600101611335565b909150819061132c565b3461019657602036600319011261019657600435611374611dce565b80600052600260205260406000206101dc60018060a01b038254163314611cb1565b34610196576040366003190112610196576113af611a97565b6113b7611aad565b6001600160a01b039182166000908152600560209081526040808320949093168252928352819020549051908152f35b34610196576020366003190112610196576004356000526003602052602060ff604060002054166040519015158152f35b3461019657600036600319011261019657602060405162278d008152f35b3461019657602036600319011261019657600435611452611dce565b80600052600260205260406000209061147560018060a01b038354163314611cb1565b600582019160ff835416926006841015610207576114a184600161020096149081156114c05750611ce9565b805460ff1916600317905560018101546001600160a01b031691611f2d565b600291501486610b58565b34610196576020366003190112610196576004356114e7611dce565b806000526002602052604060002061150960018060a01b038254163314611cb1565b60058101549160ff83169260068410156102075765ffffffffffff6101fb9161153760016102009714611ce9565b60381c164211611d23565b346101965760003660031901126101965760206040516203f4808152f35b3461019657602036600319011261019657611579611a97565b611581611dce565b336000526005602052604060002060018060a01b03821660005260205260406000205490811561161957336000526005602052604060002060018060a01b038216600052602052600060408120556115da823383611df0565b6040519182526001600160a01b03169033907f5e110f8bc8a20b65dcc87f224bdf1cc039346e267118bae2739847f07321ffa890602090a36001600055005b60405162461bcd60e51b81526020600482015260076024820152664e6f206665657360c81b6044820152606490fd5b3461019657604036600319011261019657600435611664611aad565b9061166d611dce565b806000526002602052604060002091600283019260018060a01b03845416330361186857600581019160ff83541660068110156102075760046116b09114611c69565b6001600160a01b03169384156118355781546001600160a01b03168514801561181f575b156117e957600482015492600a8402848104600a14851517156105205761271061170091048095611ca4565b6001840180546001600160a01b031688036117b957825460ff1916600390811790935591840154915461173f926001600160a01b039182169116611df0565b82611774575b5050507ff77ceb5e091d2da041bc760667f9d5fe7a756949eaf29250ad0e60ca6f4c27d9600080a36001600055005b546001600160a01b0390811660009081526005602090815260408083206003909501549093168252929092529020805490916117af91611c5c565b9055828080611745565b50815460ff1916600517909155600383015483546117e492916001600160a01b039182169116611df0565b61173f565b60405162461bcd60e51b815260206004820152600e60248201526d24b73b30b634b2103bb4b73732b960911b6044820152606490fd5b5060018201546001600160a01b031685146116d4565b60405162461bcd60e51b815260206004820152600b60248201526a2d32b937903bb4b73732b960a91b6044820152606490fd5b60405162461bcd60e51b815260206004820152600b60248201526a2737ba1030b93134ba32b960a91b6044820152606490fd5b3461019657602036600319011261019657600435600081815260026020526040902054336001600160a01b03909116036118e7576000908152600360205260409020805460ff19169055005b80600052600260205260018060a01b0360016040600020015416331461190957005b6000526004602052604060002060ff198154169055005b3461019657602036600319011261019657600435600052600260205260056040600020015460ff81166006811015610207576004149081611968576020826040519015158152f35b65ffffffffffff915060981c1662278d0081018091116105205742116020610996565b34610196576020366003190112610196576004356000526002602052604060002060018060a01b0381541661117960018060a01b0360018401541692611a8860018060a01b036002830154169165ffffffffffff60018060a01b036003830154166004830154600584015491611a0f6007611a0860068801611b3c565b9601611b3c565b966040519a8b9a8b5260208b015260408a015260608901526080880152611a3c60a0880160ff8316611be0565b818160081c1660c0880152818160381c1660e0880152818160681c16610100880152818160981c1661012088015260c81c166101408601526101a06101608601526101a0850190611bed565b90838203610180850152611bed565b600435906001600160a01b038216820361019657565b602435906001600160a01b038216820361019657565b90600182811c92168015611af3575b6020831014611add57565b634e487b7160e01b600052602260045260246000fd5b91607f1691611ad2565b6101a0810190811067ffffffffffffffff82111761050157604052565b90601f8019910116810190811067ffffffffffffffff82111761050157604052565b9060405191826000825492611b5084611ac3565b8084529360018116908115611bbe5750600114611b77575b50611b7592500383611b1a565b565b90506000929192526020600020906000915b818310611ba2575050906020611b759282010138611b68565b6020919350806001915483858901015201910190918492611b89565b905060209250611b7594915060ff191682840152151560051b82010138611b68565b9060068210156102075752565b919082519283825260005b848110611c19575050826000602080949584010152601f8019910116010190565b80602080928401015182828601015201611bf8565b9181601f840112156101965782359167ffffffffffffffff8311610196576020838186019501011161019657565b9190820180921161052057565b15611c7057565b60405162461bcd60e51b815260206004820152600c60248201526b139bdd08191a5cdc1d5d195960a21b6044820152606490fd5b9190820391821161052057565b15611cb857565b60405162461bcd60e51b81526020600482015260096024820152682737ba10313abcb2b960b91b6044820152606490fd5b15611cf057565b60405162461bcd60e51b815260206004820152600b60248201526a57726f6e6720737461746560a81b6044820152606490fd5b15611d2a57565b60405162461bcd60e51b815260206004820152600b60248201526a139bdd08195e1c1a5c995960aa1b6044820152606490fd5b15611d6457565b60405162461bcd60e51b815260206004820152600a6024820152692737ba1039b2b63632b960b11b6044820152606490fd5b15611d9d57565b60405162461bcd60e51b81526020600482015260096024820152684e6f7420706172747960b81b6044820152606490fd5b600260005414611ddf576002600055565b633ee5aeb560e01b60005260046000fd5b6001600160a01b031680611e8857506000918291829182916001600160a01b03165af13d15611e83573d67ffffffffffffffff81116105015760405190611e41601f8201601f191660200183611b1a565b8152600060203d92013e5b15611e5357565b60405162461bcd60e51b81526020600482015260086024820152671155120819985a5b60c21b6044820152606490fd5b611e4c565b60405163a9059cbb60e01b60208201526001600160a01b039092166024830152604480830193909352918152611b7591611ec3606483611b1a565b611fd6565b6005808301805460ff19169091179055600382015482546004909301805492937fb7c1f9298a18c36af08bd57eabbfbeb04695f24d0438f67614741ec15fb5c4a993602093611f23926001600160a01b039081169116611df0565b54604051908152a2565b917f80230996023d69b50793fa73f1919127c9d8e741d3989743c479169f22e7a28891602091600482015490611f6b612710600a8402048093611ca4565b92611f8484600383019360018060a01b03855416611df0565b82611f96575b505050604051908152a2565b600201546001600160a01b03908116600090815260058652604080822093549092168152918552902080549091611fcc91611c5c565b9055388080611f8a565b906000602091828151910182855af1156106ce576000513d61202857506001600160a01b0381163b155b6120075750565b635274afe760e01b60009081526001600160a01b0391909116600452602490fd5b6001141561200056fea2646970667358221220e29da22404d2b5f61282471f481f4205a60280612526af90361c1d81054af3f564736f6c634300081c0033",
  "linkReferences": {},
  "deployedLinkReferences": {}
}